{
	"contracts/CrowdFunding.sol": {
		"CrowdFunding": {
			"abi": [
				{
					"inputs": [
						{
							"internalType": "string",
							"name": "_name",
							"type": "string"
						},
						{
							"internalType": "string",
							"name": "_description",
							"type": "string"
						},
						{
							"internalType": "uint256",
							"name": "_goal",
							"type": "uint256"
						},
						{
							"internalType": "uint256",
							"name": "_durationInDays",
							"type": "uint256"
						}
					],
					"stateMutability": "nonpayable",
					"type": "constructor"
				},
				{
					"inputs": [
						{
							"internalType": "string",
							"name": "_name",
							"type": "string"
						},
						{
							"internalType": "uint256",
							"name": "_amount",
							"type": "uint256"
						}
					],
					"name": "addTier",
					"outputs": [],
					"stateMutability": "nonpayable",
					"type": "function"
				},
				{
					"inputs": [
						{
							"internalType": "address",
							"name": "",
							"type": "address"
						}
					],
					"name": "backers",
					"outputs": [
						{
							"internalType": "uint256",
							"name": "totalContribution",
							"type": "uint256"
						}
					],
					"stateMutability": "view",
					"type": "function"
				},
				{
					"inputs": [],
					"name": "deadline",
					"outputs": [
						{
							"internalType": "uint256",
							"name": "",
							"type": "uint256"
						}
					],
					"stateMutability": "view",
					"type": "function"
				},
				{
					"inputs": [],
					"name": "description",
					"outputs": [
						{
							"internalType": "string",
							"name": "",
							"type": "string"
						}
					],
					"stateMutability": "view",
					"type": "function"
				},
				{
					"inputs": [
						{
							"internalType": "uint256",
							"name": "_tierIndex",
							"type": "uint256"
						}
					],
					"name": "fund",
					"outputs": [],
					"stateMutability": "payable",
					"type": "function"
				},
				{
					"inputs": [],
					"name": "getContractBalance",
					"outputs": [
						{
							"internalType": "uint256",
							"name": "",
							"type": "uint256"
						}
					],
					"stateMutability": "view",
					"type": "function"
				},
				{
					"inputs": [],
					"name": "goal",
					"outputs": [
						{
							"internalType": "uint256",
							"name": "",
							"type": "uint256"
						}
					],
					"stateMutability": "view",
					"type": "function"
				},
				{
					"inputs": [
						{
							"internalType": "address",
							"name": "_backer",
							"type": "address"
						},
						{
							"internalType": "uint256",
							"name": "_tierIndex",
							"type": "uint256"
						}
					],
					"name": "hasFundedTier",
					"outputs": [
						{
							"internalType": "bool",
							"name": "",
							"type": "bool"
						}
					],
					"stateMutability": "view",
					"type": "function"
				},
				{
					"inputs": [],
					"name": "name",
					"outputs": [
						{
							"internalType": "string",
							"name": "",
							"type": "string"
						}
					],
					"stateMutability": "view",
					"type": "function"
				},
				{
					"inputs": [],
					"name": "owner",
					"outputs": [
						{
							"internalType": "address",
							"name": "",
							"type": "address"
						}
					],
					"stateMutability": "view",
					"type": "function"
				},
				{
					"inputs": [],
					"name": "refund",
					"outputs": [],
					"stateMutability": "nonpayable",
					"type": "function"
				},
				{
					"inputs": [
						{
							"internalType": "uint256",
							"name": "_index",
							"type": "uint256"
						}
					],
					"name": "removeTier",
					"outputs": [],
					"stateMutability": "nonpayable",
					"type": "function"
				},
				{
					"inputs": [],
					"name": "state",
					"outputs": [
						{
							"internalType": "enum CrowdFunding.CampaignState",
							"name": "",
							"type": "uint8"
						}
					],
					"stateMutability": "view",
					"type": "function"
				},
				{
					"inputs": [
						{
							"internalType": "uint256",
							"name": "",
							"type": "uint256"
						}
					],
					"name": "tiers",
					"outputs": [
						{
							"internalType": "string",
							"name": "name",
							"type": "string"
						},
						{
							"internalType": "uint256",
							"name": "amount",
							"type": "uint256"
						},
						{
							"internalType": "uint256",
							"name": "backers",
							"type": "uint256"
						}
					],
					"stateMutability": "view",
					"type": "function"
				},
				{
					"inputs": [],
					"name": "withdraw",
					"outputs": [],
					"stateMutability": "nonpayable",
					"type": "function"
				}
			],
			"devdoc": {
				"kind": "dev",
				"methods": {},
				"version": 1
			},
			"evm": {
				"assembly": "    /* \"contracts/CrowdFunding.sol\":60:3618  contract CrowdFunding {... */\n  mstore(0x40, 0x80)\n    /* \"contracts/CrowdFunding.sol\":902:1296  constructor(... */\n  callvalue\n  dup1\n  iszero\n  tag_1\n  jumpi\n  revert(0x00, 0x00)\ntag_1:\n  pop\n  mload(0x40)\n  sub(codesize, bytecodeSize)\n  dup1\n  bytecodeSize\n  dup4\n  codecopy\n  dup2\n  dup2\n  add\n  0x40\n  mstore\n  dup2\n  add\n  swap1\n  tag_2\n  swap2\n  swap1\n  tag_3\n  jump\t// in\ntag_2:\n    /* \"contracts/CrowdFunding.sol\":1064:1069  _name */\n  dup4\n    /* \"contracts/CrowdFunding.sol\":1057:1061  name */\n  0x00\n    /* \"contracts/CrowdFunding.sol\":1057:1069  name = _name */\n  swap1\n  dup2\n  tag_6\n  swap2\n  swap1\n  tag_7\n  jump\t// in\ntag_6:\n  pop\n    /* \"contracts/CrowdFunding.sol\":1094:1106  _description */\n  dup3\n    /* \"contracts/CrowdFunding.sol\":1080:1091  description */\n  0x01\n    /* \"contracts/CrowdFunding.sol\":1080:1106  description = _description */\n  swap1\n  dup2\n  tag_8\n  swap2\n  swap1\n  tag_7\n  jump\t// in\ntag_8:\n  pop\n    /* \"contracts/CrowdFunding.sol\":1124:1129  _goal */\n  dup2\n    /* \"contracts/CrowdFunding.sol\":1117:1121  goal */\n  0x02\n    /* \"contracts/CrowdFunding.sol\":1117:1129  goal = _goal */\n  dup2\n  swap1\n  sstore\n  pop\n    /* \"contracts/CrowdFunding.sol\":1188:1194  1 days */\n  0x015180\n    /* \"contracts/CrowdFunding.sol\":1170:1185  _durationInDays */\n  dup2\n    /* \"contracts/CrowdFunding.sol\":1170:1194  _durationInDays * 1 days */\n  tag_9\n  swap2\n  swap1\n  tag_10\n  jump\t// in\ntag_9:\n    /* \"contracts/CrowdFunding.sol\":1151:1166  block.timestamp */\n  timestamp\n    /* \"contracts/CrowdFunding.sol\":1151:1195  block.timestamp + (_durationInDays * 1 days) */\n  tag_11\n  swap2\n  swap1\n  tag_12\n  jump\t// in\ntag_11:\n    /* \"contracts/CrowdFunding.sol\":1140:1148  deadline */\n  0x03\n    /* \"contracts/CrowdFunding.sol\":1140:1195  deadline = block.timestamp + (_durationInDays * 1 days) */\n  dup2\n  swap1\n  sstore\n  pop\n    /* \"contracts/CrowdFunding.sol\":1239:1249  msg.sender */\n  caller\n    /* \"contracts/CrowdFunding.sol\":1231:1236  owner */\n  0x04\n  0x00\n    /* \"contracts/CrowdFunding.sol\":1231:1249  owner = msg.sender */\n  0x0100\n  exp\n  dup2\n  sload\n  dup2\n  0xffffffffffffffffffffffffffffffffffffffff\n  mul\n  not\n  and\n  swap1\n  dup4\n  0xffffffffffffffffffffffffffffffffffffffff\n  and\n  mul\n  or\n  swap1\n  sstore\n  pop\n    /* \"contracts/CrowdFunding.sol\":1268:1288  CampaignState.Active */\n  0x00\n    /* \"contracts/CrowdFunding.sol\":1260:1265  state */\n  0x04\n  0x14\n    /* \"contracts/CrowdFunding.sol\":1260:1288  state = CampaignState.Active */\n  0x0100\n  exp\n  dup2\n  sload\n  dup2\n  0xff\n  mul\n  not\n  and\n  swap1\n  dup4\n  0x02\n  dup2\n  gt\n  iszero\n  tag_13\n  jumpi\n  tag_14\n  tag_15\n  jump\t// in\ntag_14:\ntag_13:\n  mul\n  or\n  swap1\n  sstore\n  pop\n    /* \"contracts/CrowdFunding.sol\":902:1296  constructor(... */\n  pop\n  pop\n  pop\n  pop\n    /* \"contracts/CrowdFunding.sol\":60:3618  contract CrowdFunding {... */\n  jump(tag_16)\n    /* \"#utility.yul\":7:82   */\ntag_17:\n    /* \"#utility.yul\":40:46   */\n  0x00\n    /* \"#utility.yul\":73:75   */\n  0x40\n    /* \"#utility.yul\":67:76   */\n  mload\n    /* \"#utility.yul\":57:76   */\n  swap1\n  pop\n    /* \"#utility.yul\":7:82   */\n  swap1\n  jump\t// out\n    /* \"#utility.yul\":88:205   */\ntag_18:\n    /* \"#utility.yul\":197:198   */\n  0x00\n    /* \"#utility.yul\":194:195   */\n  0x00\n    /* \"#utility.yul\":187:199   */\n  revert\n    /* \"#utility.yul\":211:328   */\ntag_19:\n    /* \"#utility.yul\":320:321   */\n  0x00\n    /* \"#utility.yul\":317:318   */\n  0x00\n    /* \"#utility.yul\":310:322   */\n  revert\n    /* \"#utility.yul\":334:451   */\ntag_20:\n    /* \"#utility.yul\":443:444   */\n  0x00\n    /* \"#utility.yul\":440:441   */\n  0x00\n    /* \"#utility.yul\":433:445   */\n  revert\n    /* \"#utility.yul\":457:574   */\ntag_21:\n    /* \"#utility.yul\":566:567   */\n  0x00\n    /* \"#utility.yul\":563:564   */\n  0x00\n    /* \"#utility.yul\":556:568   */\n  revert\n    /* \"#utility.yul\":580:682   */\ntag_22:\n    /* \"#utility.yul\":621:627   */\n  0x00\n    /* \"#utility.yul\":672:674   */\n  0x1f\n    /* \"#utility.yul\":668:675   */\n  not\n    /* \"#utility.yul\":663:665   */\n  0x1f\n    /* \"#utility.yul\":656:661   */\n  dup4\n    /* \"#utility.yul\":652:666   */\n  add\n    /* \"#utility.yul\":648:676   */\n  and\n    /* \"#utility.yul\":638:676   */\n  swap1\n  pop\n    /* \"#utility.yul\":580:682   */\n  swap2\n  swap1\n  pop\n  jump\t// out\n    /* \"#utility.yul\":688:868   */\ntag_23:\n    /* \"#utility.yul\":736:813   */\n  0x4e487b7100000000000000000000000000000000000000000000000000000000\n    /* \"#utility.yul\":733:734   */\n  0x00\n    /* \"#utility.yul\":726:814   */\n  mstore\n    /* \"#utility.yul\":833:837   */\n  0x41\n    /* \"#utility.yul\":830:831   */\n  0x04\n    /* \"#utility.yul\":823:838   */\n  mstore\n    /* \"#utility.yul\":857:861   */\n  0x24\n    /* \"#utility.yul\":854:855   */\n  0x00\n    /* \"#utility.yul\":847:862   */\n  revert\n    /* \"#utility.yul\":874:1155   */\ntag_24:\n    /* \"#utility.yul\":957:984   */\n  tag_61\n    /* \"#utility.yul\":979:983   */\n  dup3\n    /* \"#utility.yul\":957:984   */\n  tag_22\n  jump\t// in\ntag_61:\n    /* \"#utility.yul\":949:955   */\n  dup2\n    /* \"#utility.yul\":945:985   */\n  add\n    /* \"#utility.yul\":1087:1093   */\n  dup2\n    /* \"#utility.yul\":1075:1085   */\n  dup2\n    /* \"#utility.yul\":1072:1094   */\n  lt\n    /* \"#utility.yul\":1051:1069   */\n  0xffffffffffffffff\n    /* \"#utility.yul\":1039:1049   */\n  dup3\n    /* \"#utility.yul\":1036:1070   */\n  gt\n    /* \"#utility.yul\":1033:1095   */\n  or\n    /* \"#utility.yul\":1030:1118   */\n  iszero\n  tag_62\n  jumpi\n    /* \"#utility.yul\":1098:1116   */\n  tag_63\n  tag_23\n  jump\t// in\ntag_63:\n    /* \"#utility.yul\":1030:1118   */\ntag_62:\n    /* \"#utility.yul\":1138:1148   */\n  dup1\n    /* \"#utility.yul\":1134:1136   */\n  0x40\n    /* \"#utility.yul\":1127:1149   */\n  mstore\n    /* \"#utility.yul\":917:1155   */\n  pop\n    /* \"#utility.yul\":874:1155   */\n  pop\n  pop\n  jump\t// out\n    /* \"#utility.yul\":1161:1290   */\ntag_25:\n    /* \"#utility.yul\":1195:1201   */\n  0x00\n    /* \"#utility.yul\":1222:1242   */\n  tag_65\n  tag_17\n  jump\t// in\ntag_65:\n    /* \"#utility.yul\":1212:1242   */\n  swap1\n  pop\n    /* \"#utility.yul\":1251:1284   */\n  tag_66\n    /* \"#utility.yul\":1279:1283   */\n  dup3\n    /* \"#utility.yul\":1271:1277   */\n  dup3\n    /* \"#utility.yul\":1251:1284   */\n  tag_24\n  jump\t// in\ntag_66:\n    /* \"#utility.yul\":1161:1290   */\n  swap2\n  swap1\n  pop\n  jump\t// out\n    /* \"#utility.yul\":1296:1604   */\ntag_26:\n    /* \"#utility.yul\":1358:1362   */\n  0x00\n    /* \"#utility.yul\":1448:1466   */\n  0xffffffffffffffff\n    /* \"#utility.yul\":1440:1446   */\n  dup3\n    /* \"#utility.yul\":1437:1467   */\n  gt\n    /* \"#utility.yul\":1434:1490   */\n  iszero\n  tag_68\n  jumpi\n    /* \"#utility.yul\":1470:1488   */\n  tag_69\n  tag_23\n  jump\t// in\ntag_69:\n    /* \"#utility.yul\":1434:1490   */\ntag_68:\n    /* \"#utility.yul\":1508:1537   */\n  tag_70\n    /* \"#utility.yul\":1530:1536   */\n  dup3\n    /* \"#utility.yul\":1508:1537   */\n  tag_22\n  jump\t// in\ntag_70:\n    /* \"#utility.yul\":1500:1537   */\n  swap1\n  pop\n    /* \"#utility.yul\":1592:1596   */\n  0x20\n    /* \"#utility.yul\":1586:1590   */\n  dup2\n    /* \"#utility.yul\":1582:1597   */\n  add\n    /* \"#utility.yul\":1574:1597   */\n  swap1\n  pop\n    /* \"#utility.yul\":1296:1604   */\n  swap2\n  swap1\n  pop\n  jump\t// out\n    /* \"#utility.yul\":1610:1749   */\ntag_27:\n    /* \"#utility.yul\":1699:1705   */\n  dup3\n    /* \"#utility.yul\":1694:1697   */\n  dup2\n    /* \"#utility.yul\":1689:1692   */\n  dup4\n    /* \"#utility.yul\":1683:1706   */\n  mcopy\n    /* \"#utility.yul\":1740:1741   */\n  0x00\n    /* \"#utility.yul\":1731:1737   */\n  dup4\n    /* \"#utility.yul\":1726:1729   */\n  dup4\n    /* \"#utility.yul\":1722:1738   */\n  add\n    /* \"#utility.yul\":1715:1742   */\n  mstore\n    /* \"#utility.yul\":1610:1749   */\n  pop\n  pop\n  pop\n  jump\t// out\n    /* \"#utility.yul\":1755:2189   */\ntag_28:\n    /* \"#utility.yul\":1844:1849   */\n  0x00\n    /* \"#utility.yul\":1869:1935   */\n  tag_73\n    /* \"#utility.yul\":1885:1934   */\n  tag_74\n    /* \"#utility.yul\":1927:1933   */\n  dup5\n    /* \"#utility.yul\":1885:1934   */\n  tag_26\n  jump\t// in\ntag_74:\n    /* \"#utility.yul\":1869:1935   */\n  tag_25\n  jump\t// in\ntag_73:\n    /* \"#utility.yul\":1860:1935   */\n  swap1\n  pop\n    /* \"#utility.yul\":1958:1964   */\n  dup3\n    /* \"#utility.yul\":1951:1956   */\n  dup2\n    /* \"#utility.yul\":1944:1965   */\n  mstore\n    /* \"#utility.yul\":1996:2000   */\n  0x20\n    /* \"#utility.yul\":1989:1994   */\n  dup2\n    /* \"#utility.yul\":1985:2001   */\n  add\n    /* \"#utility.yul\":2034:2037   */\n  dup5\n    /* \"#utility.yul\":2025:2031   */\n  dup5\n    /* \"#utility.yul\":2020:2023   */\n  dup5\n    /* \"#utility.yul\":2016:2032   */\n  add\n    /* \"#utility.yul\":2013:2038   */\n  gt\n    /* \"#utility.yul\":2010:2122   */\n  iszero\n  tag_75\n  jumpi\n    /* \"#utility.yul\":2041:2120   */\n  tag_76\n  tag_21\n  jump\t// in\ntag_76:\n    /* \"#utility.yul\":2010:2122   */\ntag_75:\n    /* \"#utility.yul\":2131:2183   */\n  tag_77\n    /* \"#utility.yul\":2176:2182   */\n  dup5\n    /* \"#utility.yul\":2171:2174   */\n  dup3\n    /* \"#utility.yul\":2166:2169   */\n  dup6\n    /* \"#utility.yul\":2131:2183   */\n  tag_27\n  jump\t// in\ntag_77:\n    /* \"#utility.yul\":1850:2189   */\n  pop\n    /* \"#utility.yul\":1755:2189   */\n  swap4\n  swap3\n  pop\n  pop\n  pop\n  jump\t// out\n    /* \"#utility.yul\":2209:2564   */\ntag_29:\n    /* \"#utility.yul\":2276:2281   */\n  0x00\n    /* \"#utility.yul\":2325:2328   */\n  dup3\n    /* \"#utility.yul\":2318:2322   */\n  0x1f\n    /* \"#utility.yul\":2310:2316   */\n  dup4\n    /* \"#utility.yul\":2306:2323   */\n  add\n    /* \"#utility.yul\":2302:2329   */\n  slt\n    /* \"#utility.yul\":2292:2414   */\n  tag_79\n  jumpi\n    /* \"#utility.yul\":2333:2412   */\n  tag_80\n  tag_20\n  jump\t// in\ntag_80:\n    /* \"#utility.yul\":2292:2414   */\ntag_79:\n    /* \"#utility.yul\":2443:2449   */\n  dup2\n    /* \"#utility.yul\":2437:2450   */\n  mload\n    /* \"#utility.yul\":2468:2558   */\n  tag_81\n    /* \"#utility.yul\":2554:2557   */\n  dup5\n    /* \"#utility.yul\":2546:2552   */\n  dup3\n    /* \"#utility.yul\":2539:2543   */\n  0x20\n    /* \"#utility.yul\":2531:2537   */\n  dup7\n    /* \"#utility.yul\":2527:2544   */\n  add\n    /* \"#utility.yul\":2468:2558   */\n  tag_28\n  jump\t// in\ntag_81:\n    /* \"#utility.yul\":2459:2558   */\n  swap2\n  pop\n    /* \"#utility.yul\":2282:2564   */\n  pop\n    /* \"#utility.yul\":2209:2564   */\n  swap3\n  swap2\n  pop\n  pop\n  jump\t// out\n    /* \"#utility.yul\":2570:2647   */\ntag_30:\n    /* \"#utility.yul\":2607:2614   */\n  0x00\n    /* \"#utility.yul\":2636:2641   */\n  dup2\n    /* \"#utility.yul\":2625:2641   */\n  swap1\n  pop\n    /* \"#utility.yul\":2570:2647   */\n  swap2\n  swap1\n  pop\n  jump\t// out\n    /* \"#utility.yul\":2653:2775   */\ntag_31:\n    /* \"#utility.yul\":2726:2750   */\n  tag_84\n    /* \"#utility.yul\":2744:2749   */\n  dup2\n    /* \"#utility.yul\":2726:2750   */\n  tag_30\n  jump\t// in\ntag_84:\n    /* \"#utility.yul\":2719:2724   */\n  dup2\n    /* \"#utility.yul\":2716:2751   */\n  eq\n    /* \"#utility.yul\":2706:2769   */\n  tag_85\n  jumpi\n    /* \"#utility.yul\":2765:2766   */\n  0x00\n    /* \"#utility.yul\":2762:2763   */\n  0x00\n    /* \"#utility.yul\":2755:2767   */\n  revert\n    /* \"#utility.yul\":2706:2769   */\ntag_85:\n    /* \"#utility.yul\":2653:2775   */\n  pop\n  jump\t// out\n    /* \"#utility.yul\":2781:2924   */\ntag_32:\n    /* \"#utility.yul\":2838:2843   */\n  0x00\n    /* \"#utility.yul\":2869:2875   */\n  dup2\n    /* \"#utility.yul\":2863:2876   */\n  mload\n    /* \"#utility.yul\":2854:2876   */\n  swap1\n  pop\n    /* \"#utility.yul\":2885:2918   */\n  tag_87\n    /* \"#utility.yul\":2912:2917   */\n  dup2\n    /* \"#utility.yul\":2885:2918   */\n  tag_31\n  jump\t// in\ntag_87:\n    /* \"#utility.yul\":2781:2924   */\n  swap3\n  swap2\n  pop\n  pop\n  jump\t// out\n    /* \"#utility.yul\":2930:4096   */\ntag_3:\n    /* \"#utility.yul\":3047:3053   */\n  0x00\n    /* \"#utility.yul\":3055:3061   */\n  0x00\n    /* \"#utility.yul\":3063:3069   */\n  0x00\n    /* \"#utility.yul\":3071:3077   */\n  0x00\n    /* \"#utility.yul\":3120:3123   */\n  0x80\n    /* \"#utility.yul\":3108:3117   */\n  dup6\n    /* \"#utility.yul\":3099:3106   */\n  dup8\n    /* \"#utility.yul\":3095:3118   */\n  sub\n    /* \"#utility.yul\":3091:3124   */\n  slt\n    /* \"#utility.yul\":3088:3208   */\n  iszero\n  tag_89\n  jumpi\n    /* \"#utility.yul\":3127:3206   */\n  tag_90\n  tag_18\n  jump\t// in\ntag_90:\n    /* \"#utility.yul\":3088:3208   */\ntag_89:\n    /* \"#utility.yul\":3268:3269   */\n  0x00\n    /* \"#utility.yul\":3257:3266   */\n  dup6\n    /* \"#utility.yul\":3253:3270   */\n  add\n    /* \"#utility.yul\":3247:3271   */\n  mload\n    /* \"#utility.yul\":3298:3316   */\n  0xffffffffffffffff\n    /* \"#utility.yul\":3290:3296   */\n  dup2\n    /* \"#utility.yul\":3287:3317   */\n  gt\n    /* \"#utility.yul\":3284:3401   */\n  iszero\n  tag_91\n  jumpi\n    /* \"#utility.yul\":3320:3399   */\n  tag_92\n  tag_19\n  jump\t// in\ntag_92:\n    /* \"#utility.yul\":3284:3401   */\ntag_91:\n    /* \"#utility.yul\":3425:3499   */\n  tag_93\n    /* \"#utility.yul\":3491:3498   */\n  dup8\n    /* \"#utility.yul\":3482:3488   */\n  dup3\n    /* \"#utility.yul\":3471:3480   */\n  dup9\n    /* \"#utility.yul\":3467:3489   */\n  add\n    /* \"#utility.yul\":3425:3499   */\n  tag_29\n  jump\t// in\ntag_93:\n    /* \"#utility.yul\":3415:3499   */\n  swap5\n  pop\n    /* \"#utility.yul\":3218:3509   */\n  pop\n    /* \"#utility.yul\":3569:3571   */\n  0x20\n    /* \"#utility.yul\":3558:3567   */\n  dup6\n    /* \"#utility.yul\":3554:3572   */\n  add\n    /* \"#utility.yul\":3548:3573   */\n  mload\n    /* \"#utility.yul\":3600:3618   */\n  0xffffffffffffffff\n    /* \"#utility.yul\":3592:3598   */\n  dup2\n    /* \"#utility.yul\":3589:3619   */\n  gt\n    /* \"#utility.yul\":3586:3703   */\n  iszero\n  tag_94\n  jumpi\n    /* \"#utility.yul\":3622:3701   */\n  tag_95\n  tag_19\n  jump\t// in\ntag_95:\n    /* \"#utility.yul\":3586:3703   */\ntag_94:\n    /* \"#utility.yul\":3727:3801   */\n  tag_96\n    /* \"#utility.yul\":3793:3800   */\n  dup8\n    /* \"#utility.yul\":3784:3790   */\n  dup3\n    /* \"#utility.yul\":3773:3782   */\n  dup9\n    /* \"#utility.yul\":3769:3791   */\n  add\n    /* \"#utility.yul\":3727:3801   */\n  tag_29\n  jump\t// in\ntag_96:\n    /* \"#utility.yul\":3717:3801   */\n  swap4\n  pop\n    /* \"#utility.yul\":3519:3811   */\n  pop\n    /* \"#utility.yul\":3850:3852   */\n  0x40\n    /* \"#utility.yul\":3876:3940   */\n  tag_97\n    /* \"#utility.yul\":3932:3939   */\n  dup8\n    /* \"#utility.yul\":3923:3929   */\n  dup3\n    /* \"#utility.yul\":3912:3921   */\n  dup9\n    /* \"#utility.yul\":3908:3930   */\n  add\n    /* \"#utility.yul\":3876:3940   */\n  tag_32\n  jump\t// in\ntag_97:\n    /* \"#utility.yul\":3866:3940   */\n  swap3\n  pop\n    /* \"#utility.yul\":3821:3950   */\n  pop\n    /* \"#utility.yul\":3989:3991   */\n  0x60\n    /* \"#utility.yul\":4015:4079   */\n  tag_98\n    /* \"#utility.yul\":4071:4078   */\n  dup8\n    /* \"#utility.yul\":4062:4068   */\n  dup3\n    /* \"#utility.yul\":4051:4060   */\n  dup9\n    /* \"#utility.yul\":4047:4069   */\n  add\n    /* \"#utility.yul\":4015:4079   */\n  tag_32\n  jump\t// in\ntag_98:\n    /* \"#utility.yul\":4005:4079   */\n  swap2\n  pop\n    /* \"#utility.yul\":3960:4089   */\n  pop\n    /* \"#utility.yul\":2930:4096   */\n  swap3\n  swap6\n  swap2\n  swap5\n  pop\n  swap3\n  pop\n  jump\t// out\n    /* \"#utility.yul\":4102:4201   */\ntag_33:\n    /* \"#utility.yul\":4154:4160   */\n  0x00\n    /* \"#utility.yul\":4188:4193   */\n  dup2\n    /* \"#utility.yul\":4182:4194   */\n  mload\n    /* \"#utility.yul\":4172:4194   */\n  swap1\n  pop\n    /* \"#utility.yul\":4102:4201   */\n  swap2\n  swap1\n  pop\n  jump\t// out\n    /* \"#utility.yul\":4207:4387   */\ntag_34:\n    /* \"#utility.yul\":4255:4332   */\n  0x4e487b7100000000000000000000000000000000000000000000000000000000\n    /* \"#utility.yul\":4252:4253   */\n  0x00\n    /* \"#utility.yul\":4245:4333   */\n  mstore\n    /* \"#utility.yul\":4352:4356   */\n  0x22\n    /* \"#utility.yul\":4349:4350   */\n  0x04\n    /* \"#utility.yul\":4342:4357   */\n  mstore\n    /* \"#utility.yul\":4376:4380   */\n  0x24\n    /* \"#utility.yul\":4373:4374   */\n  0x00\n    /* \"#utility.yul\":4366:4381   */\n  revert\n    /* \"#utility.yul\":4393:4713   */\ntag_35:\n    /* \"#utility.yul\":4437:4443   */\n  0x00\n    /* \"#utility.yul\":4474:4475   */\n  0x02\n    /* \"#utility.yul\":4468:4472   */\n  dup3\n    /* \"#utility.yul\":4464:4476   */\n  div\n    /* \"#utility.yul\":4454:4476   */\n  swap1\n  pop\n    /* \"#utility.yul\":4521:4522   */\n  0x01\n    /* \"#utility.yul\":4515:4519   */\n  dup3\n    /* \"#utility.yul\":4511:4523   */\n  and\n    /* \"#utility.yul\":4542:4560   */\n  dup1\n    /* \"#utility.yul\":4532:4613   */\n  tag_102\n  jumpi\n    /* \"#utility.yul\":4598:4602   */\n  0x7f\n    /* \"#utility.yul\":4590:4596   */\n  dup3\n    /* \"#utility.yul\":4586:4603   */\n  and\n    /* \"#utility.yul\":4576:4603   */\n  swap2\n  pop\n    /* \"#utility.yul\":4532:4613   */\ntag_102:\n    /* \"#utility.yul\":4660:4662   */\n  0x20\n    /* \"#utility.yul\":4652:4658   */\n  dup3\n    /* \"#utility.yul\":4649:4663   */\n  lt\n    /* \"#utility.yul\":4629:4647   */\n  dup2\n    /* \"#utility.yul\":4626:4664   */\n  sub\n    /* \"#utility.yul\":4623:4707   */\n  tag_103\n  jumpi\n    /* \"#utility.yul\":4679:4697   */\n  tag_104\n  tag_34\n  jump\t// in\ntag_104:\n    /* \"#utility.yul\":4623:4707   */\ntag_103:\n    /* \"#utility.yul\":4444:4713   */\n  pop\n    /* \"#utility.yul\":4393:4713   */\n  swap2\n  swap1\n  pop\n  jump\t// out\n    /* \"#utility.yul\":4719:4860   */\ntag_36:\n    /* \"#utility.yul\":4768:4772   */\n  0x00\n    /* \"#utility.yul\":4791:4794   */\n  dup2\n    /* \"#utility.yul\":4783:4794   */\n  swap1\n  pop\n    /* \"#utility.yul\":4814:4817   */\n  dup2\n    /* \"#utility.yul\":4811:4812   */\n  0x00\n    /* \"#utility.yul\":4804:4818   */\n  mstore\n    /* \"#utility.yul\":4848:4852   */\n  0x20\n    /* \"#utility.yul\":4845:4846   */\n  0x00\n    /* \"#utility.yul\":4835:4853   */\n  keccak256\n    /* \"#utility.yul\":4827:4853   */\n  swap1\n  pop\n    /* \"#utility.yul\":4719:4860   */\n  swap2\n  swap1\n  pop\n  jump\t// out\n    /* \"#utility.yul\":4866:4959   */\ntag_37:\n    /* \"#utility.yul\":4903:4909   */\n  0x00\n    /* \"#utility.yul\":4950:4952   */\n  0x20\n    /* \"#utility.yul\":4945:4947   */\n  0x1f\n    /* \"#utility.yul\":4938:4943   */\n  dup4\n    /* \"#utility.yul\":4934:4948   */\n  add\n    /* \"#utility.yul\":4930:4953   */\n  div\n    /* \"#utility.yul\":4920:4953   */\n  swap1\n  pop\n    /* \"#utility.yul\":4866:4959   */\n  swap2\n  swap1\n  pop\n  jump\t// out\n    /* \"#utility.yul\":4965:5072   */\ntag_38:\n    /* \"#utility.yul\":5009:5017   */\n  0x00\n    /* \"#utility.yul\":5059:5064   */\n  dup3\n    /* \"#utility.yul\":5053:5057   */\n  dup3\n    /* \"#utility.yul\":5049:5065   */\n  shl\n    /* \"#utility.yul\":5028:5065   */\n  swap1\n  pop\n    /* \"#utility.yul\":4965:5072   */\n  swap3\n  swap2\n  pop\n  pop\n  jump\t// out\n    /* \"#utility.yul\":5078:5471   */\ntag_39:\n    /* \"#utility.yul\":5147:5153   */\n  0x00\n    /* \"#utility.yul\":5197:5198   */\n  0x08\n    /* \"#utility.yul\":5185:5195   */\n  dup4\n    /* \"#utility.yul\":5181:5199   */\n  mul\n    /* \"#utility.yul\":5220:5317   */\n  tag_109\n    /* \"#utility.yul\":5250:5316   */\n  0xffffffffffffffffffffffffffffffffffffffffffffffffffffffffffffffff\n    /* \"#utility.yul\":5239:5248   */\n  dup3\n    /* \"#utility.yul\":5220:5317   */\n  tag_38\n  jump\t// in\ntag_109:\n    /* \"#utility.yul\":5338:5377   */\n  tag_110\n    /* \"#utility.yul\":5368:5376   */\n  dup7\n    /* \"#utility.yul\":5357:5366   */\n  dup4\n    /* \"#utility.yul\":5338:5377   */\n  tag_38\n  jump\t// in\ntag_110:\n    /* \"#utility.yul\":5326:5377   */\n  swap6\n  pop\n    /* \"#utility.yul\":5410:5414   */\n  dup1\n    /* \"#utility.yul\":5406:5415   */\n  not\n    /* \"#utility.yul\":5399:5404   */\n  dup5\n    /* \"#utility.yul\":5395:5416   */\n  and\n    /* \"#utility.yul\":5386:5416   */\n  swap4\n  pop\n    /* \"#utility.yul\":5459:5463   */\n  dup1\n    /* \"#utility.yul\":5449:5457   */\n  dup7\n    /* \"#utility.yul\":5445:5464   */\n  and\n    /* \"#utility.yul\":5438:5443   */\n  dup5\n    /* \"#utility.yul\":5435:5465   */\n  or\n    /* \"#utility.yul\":5425:5465   */\n  swap3\n  pop\n    /* \"#utility.yul\":5154:5471   */\n  pop\n  pop\n    /* \"#utility.yul\":5078:5471   */\n  swap4\n  swap3\n  pop\n  pop\n  pop\n  jump\t// out\n    /* \"#utility.yul\":5477:5537   */\ntag_40:\n    /* \"#utility.yul\":5505:5508   */\n  0x00\n    /* \"#utility.yul\":5526:5531   */\n  dup2\n    /* \"#utility.yul\":5519:5531   */\n  swap1\n  pop\n    /* \"#utility.yul\":5477:5537   */\n  swap2\n  swap1\n  pop\n  jump\t// out\n    /* \"#utility.yul\":5543:5685   */\ntag_41:\n    /* \"#utility.yul\":5593:5602   */\n  0x00\n    /* \"#utility.yul\":5626:5679   */\n  tag_113\n    /* \"#utility.yul\":5644:5678   */\n  tag_114\n    /* \"#utility.yul\":5653:5677   */\n  tag_115\n    /* \"#utility.yul\":5671:5676   */\n  dup5\n    /* \"#utility.yul\":5653:5677   */\n  tag_30\n  jump\t// in\ntag_115:\n    /* \"#utility.yul\":5644:5678   */\n  tag_40\n  jump\t// in\ntag_114:\n    /* \"#utility.yul\":5626:5679   */\n  tag_30\n  jump\t// in\ntag_113:\n    /* \"#utility.yul\":5613:5679   */\n  swap1\n  pop\n    /* \"#utility.yul\":5543:5685   */\n  swap2\n  swap1\n  pop\n  jump\t// out\n    /* \"#utility.yul\":5691:5766   */\ntag_42:\n    /* \"#utility.yul\":5734:5737   */\n  0x00\n    /* \"#utility.yul\":5755:5760   */\n  dup2\n    /* \"#utility.yul\":5748:5760   */\n  swap1\n  pop\n    /* \"#utility.yul\":5691:5766   */\n  swap2\n  swap1\n  pop\n  jump\t// out\n    /* \"#utility.yul\":5772:6041   */\ntag_43:\n    /* \"#utility.yul\":5882:5921   */\n  tag_118\n    /* \"#utility.yul\":5913:5920   */\n  dup4\n    /* \"#utility.yul\":5882:5921   */\n  tag_41\n  jump\t// in\ntag_118:\n    /* \"#utility.yul\":5943:6034   */\n  tag_119\n    /* \"#utility.yul\":5992:6033   */\n  tag_120\n    /* \"#utility.yul\":6016:6032   */\n  dup3\n    /* \"#utility.yul\":5992:6033   */\n  tag_42\n  jump\t// in\ntag_120:\n    /* \"#utility.yul\":5984:5990   */\n  dup5\n    /* \"#utility.yul\":5977:5981   */\n  dup5\n    /* \"#utility.yul\":5971:5982   */\n  sload\n    /* \"#utility.yul\":5943:6034   */\n  tag_39\n  jump\t// in\ntag_119:\n    /* \"#utility.yul\":5937:5941   */\n  dup3\n    /* \"#utility.yul\":5930:6035   */\n  sstore\n    /* \"#utility.yul\":5848:6041   */\n  pop\n    /* \"#utility.yul\":5772:6041   */\n  pop\n  pop\n  pop\n  jump\t// out\n    /* \"#utility.yul\":6047:6120   */\ntag_44:\n    /* \"#utility.yul\":6092:6095   */\n  0x00\n    /* \"#utility.yul\":6113:6114   */\n  0x00\n    /* \"#utility.yul\":6106:6114   */\n  swap1\n  pop\n    /* \"#utility.yul\":6047:6120   */\n  swap1\n  jump\t// out\n    /* \"#utility.yul\":6126:6315   */\ntag_45:\n    /* \"#utility.yul\":6203:6235   */\n  tag_123\n  tag_44\n  jump\t// in\ntag_123:\n    /* \"#utility.yul\":6244:6309   */\n  tag_124\n    /* \"#utility.yul\":6302:6308   */\n  dup2\n    /* \"#utility.yul\":6294:6300   */\n  dup5\n    /* \"#utility.yul\":6288:6292   */\n  dup5\n    /* \"#utility.yul\":6244:6309   */\n  tag_43\n  jump\t// in\ntag_124:\n    /* \"#utility.yul\":6179:6315   */\n  pop\n    /* \"#utility.yul\":6126:6315   */\n  pop\n  pop\n  jump\t// out\n    /* \"#utility.yul\":6321:6507   */\ntag_46:\n    /* \"#utility.yul\":6381:6501   */\ntag_126:\n    /* \"#utility.yul\":6398:6401   */\n  dup2\n    /* \"#utility.yul\":6391:6396   */\n  dup2\n    /* \"#utility.yul\":6388:6402   */\n  lt\n    /* \"#utility.yul\":6381:6501   */\n  iszero\n  tag_128\n  jumpi\n    /* \"#utility.yul\":6452:6491   */\n  tag_129\n    /* \"#utility.yul\":6489:6490   */\n  0x00\n    /* \"#utility.yul\":6482:6487   */\n  dup3\n    /* \"#utility.yul\":6452:6491   */\n  tag_45\n  jump\t// in\ntag_129:\n    /* \"#utility.yul\":6425:6426   */\n  0x01\n    /* \"#utility.yul\":6418:6423   */\n  dup2\n    /* \"#utility.yul\":6414:6427   */\n  add\n    /* \"#utility.yul\":6405:6427   */\n  swap1\n  pop\n    /* \"#utility.yul\":6381:6501   */\n  jump(tag_126)\ntag_128:\n    /* \"#utility.yul\":6321:6507   */\n  pop\n  pop\n  jump\t// out\n    /* \"#utility.yul\":6513:7056   */\ntag_47:\n    /* \"#utility.yul\":6614:6616   */\n  0x1f\n    /* \"#utility.yul\":6609:6612   */\n  dup3\n    /* \"#utility.yul\":6606:6617   */\n  gt\n    /* \"#utility.yul\":6603:7049   */\n  iszero\n  tag_131\n  jumpi\n    /* \"#utility.yul\":6648:6686   */\n  tag_132\n    /* \"#utility.yul\":6680:6685   */\n  dup2\n    /* \"#utility.yul\":6648:6686   */\n  tag_36\n  jump\t// in\ntag_132:\n    /* \"#utility.yul\":6732:6761   */\n  tag_133\n    /* \"#utility.yul\":6750:6760   */\n  dup5\n    /* \"#utility.yul\":6732:6761   */\n  tag_37\n  jump\t// in\ntag_133:\n    /* \"#utility.yul\":6722:6730   */\n  dup2\n    /* \"#utility.yul\":6718:6762   */\n  add\n    /* \"#utility.yul\":6915:6917   */\n  0x20\n    /* \"#utility.yul\":6903:6913   */\n  dup6\n    /* \"#utility.yul\":6900:6918   */\n  lt\n    /* \"#utility.yul\":6897:6946   */\n  iszero\n  tag_134\n  jumpi\n    /* \"#utility.yul\":6936:6944   */\n  dup2\n    /* \"#utility.yul\":6921:6944   */\n  swap1\n  pop\n    /* \"#utility.yul\":6897:6946   */\ntag_134:\n    /* \"#utility.yul\":6959:7039   */\n  tag_135\n    /* \"#utility.yul\":7015:7037   */\n  tag_136\n    /* \"#utility.yul\":7033:7036   */\n  dup6\n    /* \"#utility.yul\":7015:7037   */\n  tag_37\n  jump\t// in\ntag_136:\n    /* \"#utility.yul\":7005:7013   */\n  dup4\n    /* \"#utility.yul\":7001:7038   */\n  add\n    /* \"#utility.yul\":6988:6999   */\n  dup3\n    /* \"#utility.yul\":6959:7039   */\n  tag_46\n  jump\t// in\ntag_135:\n    /* \"#utility.yul\":6618:7049   */\n  pop\n  pop\n    /* \"#utility.yul\":6603:7049   */\ntag_131:\n    /* \"#utility.yul\":6513:7056   */\n  pop\n  pop\n  pop\n  jump\t// out\n    /* \"#utility.yul\":7062:7179   */\ntag_48:\n    /* \"#utility.yul\":7116:7124   */\n  0x00\n    /* \"#utility.yul\":7166:7171   */\n  dup3\n    /* \"#utility.yul\":7160:7164   */\n  dup3\n    /* \"#utility.yul\":7156:7172   */\n  shr\n    /* \"#utility.yul\":7135:7172   */\n  swap1\n  pop\n    /* \"#utility.yul\":7062:7179   */\n  swap3\n  swap2\n  pop\n  pop\n  jump\t// out\n    /* \"#utility.yul\":7185:7354   */\ntag_49:\n    /* \"#utility.yul\":7229:7235   */\n  0x00\n    /* \"#utility.yul\":7262:7313   */\n  tag_139\n    /* \"#utility.yul\":7310:7311   */\n  0x00\n    /* \"#utility.yul\":7306:7312   */\n  not\n    /* \"#utility.yul\":7298:7303   */\n  dup5\n    /* \"#utility.yul\":7295:7296   */\n  0x08\n    /* \"#utility.yul\":7291:7304   */\n  mul\n    /* \"#utility.yul\":7262:7313   */\n  tag_48\n  jump\t// in\ntag_139:\n    /* \"#utility.yul\":7258:7314   */\n  not\n    /* \"#utility.yul\":7343:7347   */\n  dup1\n    /* \"#utility.yul\":7337:7341   */\n  dup4\n    /* \"#utility.yul\":7333:7348   */\n  and\n    /* \"#utility.yul\":7323:7348   */\n  swap2\n  pop\n    /* \"#utility.yul\":7236:7354   */\n  pop\n    /* \"#utility.yul\":7185:7354   */\n  swap3\n  swap2\n  pop\n  pop\n  jump\t// out\n    /* \"#utility.yul\":7359:7654   */\ntag_50:\n    /* \"#utility.yul\":7435:7439   */\n  0x00\n    /* \"#utility.yul\":7581:7610   */\n  tag_141\n    /* \"#utility.yul\":7606:7609   */\n  dup4\n    /* \"#utility.yul\":7600:7604   */\n  dup4\n    /* \"#utility.yul\":7581:7610   */\n  tag_49\n  jump\t// in\ntag_141:\n    /* \"#utility.yul\":7573:7610   */\n  swap2\n  pop\n    /* \"#utility.yul\":7643:7646   */\n  dup3\n    /* \"#utility.yul\":7640:7641   */\n  0x02\n    /* \"#utility.yul\":7636:7647   */\n  mul\n    /* \"#utility.yul\":7630:7634   */\n  dup3\n    /* \"#utility.yul\":7627:7648   */\n  or\n    /* \"#utility.yul\":7619:7648   */\n  swap1\n  pop\n    /* \"#utility.yul\":7359:7654   */\n  swap3\n  swap2\n  pop\n  pop\n  jump\t// out\n    /* \"#utility.yul\":7659:9054   */\ntag_7:\n    /* \"#utility.yul\":7776:7813   */\n  tag_143\n    /* \"#utility.yul\":7809:7812   */\n  dup3\n    /* \"#utility.yul\":7776:7813   */\n  tag_33\n  jump\t// in\ntag_143:\n    /* \"#utility.yul\":7878:7896   */\n  0xffffffffffffffff\n    /* \"#utility.yul\":7870:7876   */\n  dup2\n    /* \"#utility.yul\":7867:7897   */\n  gt\n    /* \"#utility.yul\":7864:7920   */\n  iszero\n  tag_144\n  jumpi\n    /* \"#utility.yul\":7900:7918   */\n  tag_145\n  tag_23\n  jump\t// in\ntag_145:\n    /* \"#utility.yul\":7864:7920   */\ntag_144:\n    /* \"#utility.yul\":7944:7982   */\n  tag_146\n    /* \"#utility.yul\":7976:7980   */\n  dup3\n    /* \"#utility.yul\":7970:7981   */\n  sload\n    /* \"#utility.yul\":7944:7982   */\n  tag_35\n  jump\t// in\ntag_146:\n    /* \"#utility.yul\":8029:8096   */\n  tag_147\n    /* \"#utility.yul\":8089:8095   */\n  dup3\n    /* \"#utility.yul\":8081:8087   */\n  dup3\n    /* \"#utility.yul\":8075:8079   */\n  dup6\n    /* \"#utility.yul\":8029:8096   */\n  tag_47\n  jump\t// in\ntag_147:\n    /* \"#utility.yul\":8123:8124   */\n  0x00\n    /* \"#utility.yul\":8147:8151   */\n  0x20\n    /* \"#utility.yul\":8134:8151   */\n  swap1\n  pop\n    /* \"#utility.yul\":8179:8181   */\n  0x1f\n    /* \"#utility.yul\":8171:8177   */\n  dup4\n    /* \"#utility.yul\":8168:8182   */\n  gt\n    /* \"#utility.yul\":8196:8197   */\n  0x01\n    /* \"#utility.yul\":8191:8809   */\n  dup2\n  eq\n  tag_149\n  jumpi\n    /* \"#utility.yul\":8853:8854   */\n  0x00\n    /* \"#utility.yul\":8870:8876   */\n  dup5\n    /* \"#utility.yul\":8867:8944   */\n  iszero\n  tag_150\n  jumpi\n    /* \"#utility.yul\":8919:8928   */\n  dup3\n    /* \"#utility.yul\":8914:8917   */\n  dup8\n    /* \"#utility.yul\":8910:8929   */\n  add\n    /* \"#utility.yul\":8904:8930   */\n  mload\n    /* \"#utility.yul\":8895:8930   */\n  swap1\n  pop\n    /* \"#utility.yul\":8867:8944   */\ntag_150:\n    /* \"#utility.yul\":8970:9037   */\n  tag_151\n    /* \"#utility.yul\":9030:9036   */\n  dup6\n    /* \"#utility.yul\":9023:9028   */\n  dup3\n    /* \"#utility.yul\":8970:9037   */\n  tag_50\n  jump\t// in\ntag_151:\n    /* \"#utility.yul\":8964:8968   */\n  dup7\n    /* \"#utility.yul\":8957:9038   */\n  sstore\n    /* \"#utility.yul\":8826:9048   */\n  pop\n    /* \"#utility.yul\":8161:9048   */\n  jump(tag_148)\n    /* \"#utility.yul\":8191:8809   */\ntag_149:\n    /* \"#utility.yul\":8243:8247   */\n  0x1f\n    /* \"#utility.yul\":8239:8248   */\n  not\n    /* \"#utility.yul\":8231:8237   */\n  dup5\n    /* \"#utility.yul\":8227:8249   */\n  and\n    /* \"#utility.yul\":8277:8314   */\n  tag_152\n    /* \"#utility.yul\":8309:8313   */\n  dup7\n    /* \"#utility.yul\":8277:8314   */\n  tag_36\n  jump\t// in\ntag_152:\n    /* \"#utility.yul\":8336:8337   */\n  0x00\n    /* \"#utility.yul\":8350:8558   */\ntag_153:\n    /* \"#utility.yul\":8364:8371   */\n  dup3\n    /* \"#utility.yul\":8361:8362   */\n  dup2\n    /* \"#utility.yul\":8358:8372   */\n  lt\n    /* \"#utility.yul\":8350:8558   */\n  iszero\n  tag_155\n  jumpi\n    /* \"#utility.yul\":8443:8452   */\n  dup5\n    /* \"#utility.yul\":8438:8441   */\n  dup10\n    /* \"#utility.yul\":8434:8453   */\n  add\n    /* \"#utility.yul\":8428:8454   */\n  mload\n    /* \"#utility.yul\":8420:8426   */\n  dup3\n    /* \"#utility.yul\":8413:8455   */\n  sstore\n    /* \"#utility.yul\":8494:8495   */\n  0x01\n    /* \"#utility.yul\":8486:8492   */\n  dup3\n    /* \"#utility.yul\":8482:8496   */\n  add\n    /* \"#utility.yul\":8472:8496   */\n  swap2\n  pop\n    /* \"#utility.yul\":8541:8543   */\n  0x20\n    /* \"#utility.yul\":8530:8539   */\n  dup6\n    /* \"#utility.yul\":8526:8544   */\n  add\n    /* \"#utility.yul\":8513:8544   */\n  swap5\n  pop\n    /* \"#utility.yul\":8387:8391   */\n  0x20\n    /* \"#utility.yul\":8384:8385   */\n  dup2\n    /* \"#utility.yul\":8380:8392   */\n  add\n    /* \"#utility.yul\":8375:8392   */\n  swap1\n  pop\n    /* \"#utility.yul\":8350:8558   */\n  jump(tag_153)\ntag_155:\n    /* \"#utility.yul\":8586:8592   */\n  dup7\n    /* \"#utility.yul\":8577:8584   */\n  dup4\n    /* \"#utility.yul\":8574:8593   */\n  lt\n    /* \"#utility.yul\":8571:8750   */\n  iszero\n  tag_156\n  jumpi\n    /* \"#utility.yul\":8644:8653   */\n  dup5\n    /* \"#utility.yul\":8639:8642   */\n  dup10\n    /* \"#utility.yul\":8635:8654   */\n  add\n    /* \"#utility.yul\":8629:8655   */\n  mload\n    /* \"#utility.yul\":8687:8735   */\n  tag_157\n    /* \"#utility.yul\":8729:8733   */\n  0x1f\n    /* \"#utility.yul\":8721:8727   */\n  dup10\n    /* \"#utility.yul\":8717:8734   */\n  and\n    /* \"#utility.yul\":8706:8715   */\n  dup3\n    /* \"#utility.yul\":8687:8735   */\n  tag_49\n  jump\t// in\ntag_157:\n    /* \"#utility.yul\":8679:8685   */\n  dup4\n    /* \"#utility.yul\":8672:8736   */\n  sstore\n    /* \"#utility.yul\":8594:8750   */\n  pop\n    /* \"#utility.yul\":8571:8750   */\ntag_156:\n    /* \"#utility.yul\":8796:8797   */\n  0x01\n    /* \"#utility.yul\":8792:8793   */\n  0x02\n    /* \"#utility.yul\":8784:8790   */\n  dup9\n    /* \"#utility.yul\":8780:8794   */\n  mul\n    /* \"#utility.yul\":8776:8798   */\n  add\n    /* \"#utility.yul\":8770:8774   */\n  dup9\n    /* \"#utility.yul\":8763:8799   */\n  sstore\n    /* \"#utility.yul\":8198:8809   */\n  pop\n  pop\n  pop\n    /* \"#utility.yul\":8161:9048   */\ntag_148:\n  pop\n    /* \"#utility.yul\":7751:9054   */\n  pop\n  pop\n  pop\n    /* \"#utility.yul\":7659:9054   */\n  pop\n  pop\n  jump\t// out\n    /* \"#utility.yul\":9060:9240   */\ntag_51:\n    /* \"#utility.yul\":9108:9185   */\n  0x4e487b7100000000000000000000000000000000000000000000000000000000\n    /* \"#utility.yul\":9105:9106   */\n  0x00\n    /* \"#utility.yul\":9098:9186   */\n  mstore\n    /* \"#utility.yul\":9205:9209   */\n  0x11\n    /* \"#utility.yul\":9202:9203   */\n  0x04\n    /* \"#utility.yul\":9195:9210   */\n  mstore\n    /* \"#utility.yul\":9229:9233   */\n  0x24\n    /* \"#utility.yul\":9226:9227   */\n  0x00\n    /* \"#utility.yul\":9219:9234   */\n  revert\n    /* \"#utility.yul\":9246:9656   */\ntag_10:\n    /* \"#utility.yul\":9286:9293   */\n  0x00\n    /* \"#utility.yul\":9309:9329   */\n  tag_160\n    /* \"#utility.yul\":9327:9328   */\n  dup3\n    /* \"#utility.yul\":9309:9329   */\n  tag_30\n  jump\t// in\ntag_160:\n    /* \"#utility.yul\":9304:9329   */\n  swap2\n  pop\n    /* \"#utility.yul\":9343:9363   */\n  tag_161\n    /* \"#utility.yul\":9361:9362   */\n  dup4\n    /* \"#utility.yul\":9343:9363   */\n  tag_30\n  jump\t// in\ntag_161:\n    /* \"#utility.yul\":9338:9363   */\n  swap3\n  pop\n    /* \"#utility.yul\":9398:9399   */\n  dup3\n    /* \"#utility.yul\":9395:9396   */\n  dup3\n    /* \"#utility.yul\":9391:9400   */\n  mul\n    /* \"#utility.yul\":9420:9450   */\n  tag_162\n    /* \"#utility.yul\":9438:9449   */\n  dup2\n    /* \"#utility.yul\":9420:9450   */\n  tag_30\n  jump\t// in\ntag_162:\n    /* \"#utility.yul\":9409:9450   */\n  swap2\n  pop\n    /* \"#utility.yul\":9599:9600   */\n  dup3\n    /* \"#utility.yul\":9590:9597   */\n  dup3\n    /* \"#utility.yul\":9586:9601   */\n  div\n    /* \"#utility.yul\":9583:9584   */\n  dup5\n    /* \"#utility.yul\":9580:9602   */\n  eq\n    /* \"#utility.yul\":9560:9561   */\n  dup4\n    /* \"#utility.yul\":9553:9562   */\n  iszero\n    /* \"#utility.yul\":9533:9616   */\n  or\n    /* \"#utility.yul\":9510:9649   */\n  tag_163\n  jumpi\n    /* \"#utility.yul\":9629:9647   */\n  tag_164\n  tag_51\n  jump\t// in\ntag_164:\n    /* \"#utility.yul\":9510:9649   */\ntag_163:\n    /* \"#utility.yul\":9294:9656   */\n  pop\n    /* \"#utility.yul\":9246:9656   */\n  swap3\n  swap2\n  pop\n  pop\n  jump\t// out\n    /* \"#utility.yul\":9662:9853   */\ntag_12:\n    /* \"#utility.yul\":9702:9705   */\n  0x00\n    /* \"#utility.yul\":9721:9741   */\n  tag_166\n    /* \"#utility.yul\":9739:9740   */\n  dup3\n    /* \"#utility.yul\":9721:9741   */\n  tag_30\n  jump\t// in\ntag_166:\n    /* \"#utility.yul\":9716:9741   */\n  swap2\n  pop\n    /* \"#utility.yul\":9755:9775   */\n  tag_167\n    /* \"#utility.yul\":9773:9774   */\n  dup4\n    /* \"#utility.yul\":9755:9775   */\n  tag_30\n  jump\t// in\ntag_167:\n    /* \"#utility.yul\":9750:9775   */\n  swap3\n  pop\n    /* \"#utility.yul\":9798:9799   */\n  dup3\n    /* \"#utility.yul\":9795:9796   */\n  dup3\n    /* \"#utility.yul\":9791:9800   */\n  add\n    /* \"#utility.yul\":9784:9800   */\n  swap1\n  pop\n    /* \"#utility.yul\":9819:9822   */\n  dup1\n    /* \"#utility.yul\":9816:9817   */\n  dup3\n    /* \"#utility.yul\":9813:9823   */\n  gt\n    /* \"#utility.yul\":9810:9846   */\n  iszero\n  tag_168\n  jumpi\n    /* \"#utility.yul\":9826:9844   */\n  tag_169\n  tag_51\n  jump\t// in\ntag_169:\n    /* \"#utility.yul\":9810:9846   */\ntag_168:\n    /* \"#utility.yul\":9662:9853   */\n  swap3\n  swap2\n  pop\n  pop\n  jump\t// out\n    /* \"#utility.yul\":9859:10039   */\ntag_15:\n    /* \"#utility.yul\":9907:9984   */\n  0x4e487b7100000000000000000000000000000000000000000000000000000000\n    /* \"#utility.yul\":9904:9905   */\n  0x00\n    /* \"#utility.yul\":9897:9985   */\n  mstore\n    /* \"#utility.yul\":10004:10008   */\n  0x21\n    /* \"#utility.yul\":10001:10002   */\n  0x04\n    /* \"#utility.yul\":9994:10009   */\n  mstore\n    /* \"#utility.yul\":10028:10032   */\n  0x24\n    /* \"#utility.yul\":10025:10026   */\n  0x00\n    /* \"#utility.yul\":10018:10033   */\n  revert\n    /* \"contracts/CrowdFunding.sol\":60:3618  contract CrowdFunding {... */\ntag_16:\n  dataSize(sub_0)\n  dup1\n  dataOffset(sub_0)\n  0x00\n  codecopy\n  0x00\n  return\nstop\n\nsub_0: assembly {\n        /* \"contracts/CrowdFunding.sol\":60:3618  contract CrowdFunding {... */\n      mstore(0x40, 0x80)\n      jumpi(tag_1, lt(calldatasize, 0x04))\n      shr(0xe0, calldataload(0x00))\n      dup1\n      0x7284e416\n      gt\n      tag_17\n      jumpi\n      dup1\n      0x8ece7b91\n      gt\n      tag_18\n      jumpi\n      dup1\n      0x8ece7b91\n      eq\n      tag_13\n      jumpi\n      dup1\n      0xb85dfb80\n      eq\n      tag_14\n      jumpi\n      dup1\n      0xc19d93fb\n      eq\n      tag_15\n      jumpi\n      dup1\n      0xca1d209d\n      eq\n      tag_16\n      jumpi\n      jump(tag_1)\n    tag_18:\n      dup1\n      0x7284e416\n      eq\n      tag_9\n      jumpi\n      dup1\n      0x7497211b\n      eq\n      tag_10\n      jumpi\n      dup1\n      0x7adba527\n      eq\n      tag_11\n      jumpi\n      dup1\n      0x8da5cb5b\n      eq\n      tag_12\n      jumpi\n      jump(tag_1)\n    tag_17:\n      dup1\n      0x3ccfd60b\n      gt\n      tag_19\n      jumpi\n      dup1\n      0x3ccfd60b\n      eq\n      tag_5\n      jumpi\n      dup1\n      0x40193883\n      eq\n      tag_6\n      jumpi\n      dup1\n      0x590e1ae3\n      eq\n      tag_7\n      jumpi\n      dup1\n      0x6f9fb98a\n      eq\n      tag_8\n      jumpi\n      jump(tag_1)\n    tag_19:\n      dup1\n      0x039af9eb\n      eq\n      tag_2\n      jumpi\n      dup1\n      0x06fdde03\n      eq\n      tag_3\n      jumpi\n      dup1\n      0x29dcb0cf\n      eq\n      tag_4\n      jumpi\n    tag_1:\n      revert(0x00, 0x00)\n        /* \"contracts/CrowdFunding.sol\":571:590  Tier[] public tiers */\n    tag_2:\n      callvalue\n      dup1\n      iszero\n      tag_20\n      jumpi\n      revert(0x00, 0x00)\n    tag_20:\n      pop\n      tag_21\n      0x04\n      dup1\n      calldatasize\n      sub\n      dup2\n      add\n      swap1\n      tag_22\n      swap2\n      swap1\n      tag_23\n      jump\t// in\n    tag_22:\n      tag_24\n      jump\t// in\n    tag_21:\n      mload(0x40)\n      tag_25\n      swap4\n      swap3\n      swap2\n      swap1\n      tag_26\n      jump\t// in\n    tag_25:\n      mload(0x40)\n      dup1\n      swap2\n      sub\n      swap1\n      return\n        /* \"contracts/CrowdFunding.sol\":89:107  string public name */\n    tag_3:\n      callvalue\n      dup1\n      iszero\n      tag_27\n      jumpi\n      revert(0x00, 0x00)\n    tag_27:\n      pop\n      tag_28\n      tag_29\n      jump\t// in\n    tag_28:\n      mload(0x40)\n      tag_30\n      swap2\n      swap1\n      tag_31\n      jump\t// in\n    tag_30:\n      mload(0x40)\n      dup1\n      swap2\n      sub\n      swap1\n      return\n        /* \"contracts/CrowdFunding.sol\":172:195  uint256 public deadline */\n    tag_4:\n      callvalue\n      dup1\n      iszero\n      tag_32\n      jumpi\n      revert(0x00, 0x00)\n    tag_32:\n      pop\n      tag_33\n      tag_34\n      jump\t// in\n    tag_33:\n      mload(0x40)\n      tag_35\n      swap2\n      swap1\n      tag_36\n      jump\t// in\n    tag_35:\n      mload(0x40)\n      dup1\n      swap2\n      sub\n      swap1\n      return\n        /* \"contracts/CrowdFunding.sol\":2577:2949  function withdraw() public onlyOwner {... */\n    tag_5:\n      callvalue\n      dup1\n      iszero\n      tag_37\n      jumpi\n      revert(0x00, 0x00)\n    tag_37:\n      pop\n      tag_38\n      tag_39\n      jump\t// in\n    tag_38:\n      stop\n        /* \"contracts/CrowdFunding.sol\":146:165  uint256 public goal */\n    tag_6:\n      callvalue\n      dup1\n      iszero\n      tag_40\n      jumpi\n      revert(0x00, 0x00)\n    tag_40:\n      pop\n      tag_41\n      tag_42\n      jump\t// in\n    tag_41:\n      mload(0x40)\n      tag_43\n      swap2\n      swap1\n      tag_36\n      jump\t// in\n    tag_43:\n      mload(0x40)\n      dup1\n      swap2\n      sub\n      swap1\n      return\n        /* \"contracts/CrowdFunding.sol\":3072:3451  function refund() public {... */\n    tag_7:\n      callvalue\n      dup1\n      iszero\n      tag_44\n      jumpi\n      revert(0x00, 0x00)\n    tag_44:\n      pop\n      tag_45\n      tag_46\n      jump\t// in\n    tag_45:\n      stop\n        /* \"contracts/CrowdFunding.sol\":2957:3064  function getContractBalance() public view returns (uint256) {... */\n    tag_8:\n      callvalue\n      dup1\n      iszero\n      tag_47\n      jumpi\n      revert(0x00, 0x00)\n    tag_47:\n      pop\n      tag_48\n      tag_49\n      jump\t// in\n    tag_48:\n      mload(0x40)\n      tag_50\n      swap2\n      swap1\n      tag_36\n      jump\t// in\n    tag_50:\n      mload(0x40)\n      dup1\n      swap2\n      sub\n      swap1\n      return\n        /* \"contracts/CrowdFunding.sol\":114:139  string public description */\n    tag_9:\n      callvalue\n      dup1\n      iszero\n      tag_51\n      jumpi\n      revert(0x00, 0x00)\n    tag_51:\n      pop\n      tag_52\n      tag_53\n      jump\t// in\n    tag_52:\n      mload(0x40)\n      tag_54\n      swap2\n      swap1\n      tag_31\n      jump\t// in\n    tag_54:\n      mload(0x40)\n      dup1\n      swap2\n      sub\n      swap1\n      return\n        /* \"contracts/CrowdFunding.sol\":2356:2569  function removeTier(... */\n    tag_10:\n      callvalue\n      dup1\n      iszero\n      tag_55\n      jumpi\n      revert(0x00, 0x00)\n    tag_55:\n      pop\n      tag_56\n      0x04\n      dup1\n      calldatasize\n      sub\n      dup2\n      add\n      swap1\n      tag_57\n      swap2\n      swap1\n      tag_23\n      jump\t// in\n    tag_57:\n      tag_58\n      jump\t// in\n    tag_56:\n      stop\n        /* \"contracts/CrowdFunding.sol\":3459:3613  function hasFundedTier(address _backer, uint256 _tierIndex) public view returns  (bool) {... */\n    tag_11:\n      callvalue\n      dup1\n      iszero\n      tag_59\n      jumpi\n      revert(0x00, 0x00)\n    tag_59:\n      pop\n      tag_60\n      0x04\n      dup1\n      calldatasize\n      sub\n      dup2\n      add\n      swap1\n      tag_61\n      swap2\n      swap1\n      tag_62\n      jump\t// in\n    tag_61:\n      tag_63\n      jump\t// in\n    tag_60:\n      mload(0x40)\n      tag_64\n      swap2\n      swap1\n      tag_65\n      jump\t// in\n    tag_64:\n      mload(0x40)\n      dup1\n      swap2\n      sub\n      swap1\n      return\n        /* \"contracts/CrowdFunding.sol\":202:222  address public owner */\n    tag_12:\n      callvalue\n      dup1\n      iszero\n      tag_66\n      jumpi\n      revert(0x00, 0x00)\n    tag_66:\n      pop\n      tag_67\n      tag_68\n      jump\t// in\n    tag_67:\n      mload(0x40)\n      tag_69\n      swap2\n      swap1\n      tag_70\n      jump\t// in\n    tag_69:\n      mload(0x40)\n      dup1\n      swap2\n      sub\n      swap1\n      return\n        /* \"contracts/CrowdFunding.sol\":2141:2348  function addTier(... */\n    tag_13:\n      callvalue\n      dup1\n      iszero\n      tag_71\n      jumpi\n      revert(0x00, 0x00)\n    tag_71:\n      pop\n      tag_72\n      0x04\n      dup1\n      calldatasize\n      sub\n      dup2\n      add\n      swap1\n      tag_73\n      swap2\n      swap1\n      tag_74\n      jump\t// in\n    tag_73:\n      tag_75\n      jump\t// in\n    tag_72:\n      stop\n        /* \"contracts/CrowdFunding.sol\":597:638  mapping(address => Backer) public backers */\n    tag_14:\n      callvalue\n      dup1\n      iszero\n      tag_76\n      jumpi\n      revert(0x00, 0x00)\n    tag_76:\n      pop\n      tag_77\n      0x04\n      dup1\n      calldatasize\n      sub\n      dup2\n      add\n      swap1\n      tag_78\n      swap2\n      swap1\n      tag_79\n      jump\t// in\n    tag_78:\n      tag_80\n      jump\t// in\n    tag_77:\n      mload(0x40)\n      tag_81\n      swap2\n      swap1\n      tag_36\n      jump\t// in\n    tag_81:\n      mload(0x40)\n      dup1\n      swap2\n      sub\n      swap1\n      return\n        /* \"contracts/CrowdFunding.sol\":286:312  CampaignState public state */\n    tag_15:\n      callvalue\n      dup1\n      iszero\n      tag_82\n      jumpi\n      revert(0x00, 0x00)\n    tag_82:\n      pop\n      tag_83\n      tag_84\n      jump\t// in\n    tag_83:\n      mload(0x40)\n      tag_85\n      swap2\n      swap1\n      tag_86\n      jump\t// in\n    tag_85:\n      mload(0x40)\n      dup1\n      swap2\n      sub\n      swap1\n      return\n        /* \"contracts/CrowdFunding.sol\":1720:2133  function fund(uint256 _tierIndex) public payable campaignOpen {... */\n    tag_16:\n      tag_87\n      0x04\n      dup1\n      calldatasize\n      sub\n      dup2\n      add\n      swap1\n      tag_88\n      swap2\n      swap1\n      tag_23\n      jump\t// in\n    tag_88:\n      tag_89\n      jump\t// in\n    tag_87:\n      stop\n        /* \"contracts/CrowdFunding.sol\":571:590  Tier[] public tiers */\n    tag_24:\n      0x05\n      dup2\n      dup2\n      sload\n      dup2\n      lt\n      tag_90\n      jumpi\n      0x00\n      dup1\n      revert\n    tag_90:\n      swap1\n      0x00\n      mstore\n      keccak256(0x00, 0x20)\n      swap1\n      0x03\n      mul\n      add\n      0x00\n      swap2\n      pop\n      swap1\n      pop\n      dup1\n      0x00\n      add\n      dup1\n      sload\n      tag_92\n      swap1\n      tag_93\n      jump\t// in\n    tag_92:\n      dup1\n      0x1f\n      add\n      0x20\n      dup1\n      swap2\n      div\n      mul\n      0x20\n      add\n      mload(0x40)\n      swap1\n      dup2\n      add\n      0x40\n      mstore\n      dup1\n      swap3\n      swap2\n      swap1\n      dup2\n      dup2\n      mstore\n      0x20\n      add\n      dup3\n      dup1\n      sload\n      tag_94\n      swap1\n      tag_93\n      jump\t// in\n    tag_94:\n      dup1\n      iszero\n      tag_95\n      jumpi\n      dup1\n      0x1f\n      lt\n      tag_96\n      jumpi\n      0x0100\n      dup1\n      dup4\n      sload\n      div\n      mul\n      dup4\n      mstore\n      swap2\n      0x20\n      add\n      swap2\n      jump(tag_95)\n    tag_96:\n      dup3\n      add\n      swap2\n      swap1\n      0x00\n      mstore\n      keccak256(0x00, 0x20)\n      swap1\n    tag_97:\n      dup2\n      sload\n      dup2\n      mstore\n      swap1\n      0x01\n      add\n      swap1\n      0x20\n      add\n      dup1\n      dup4\n      gt\n      tag_97\n      jumpi\n      dup3\n      swap1\n      sub\n      0x1f\n      and\n      dup3\n      add\n      swap2\n    tag_95:\n      pop\n      pop\n      pop\n      pop\n      pop\n      swap1\n      dup1\n      0x01\n      add\n      sload\n      swap1\n      dup1\n      0x02\n      add\n      sload\n      swap1\n      pop\n      dup4\n      jump\t// out\n        /* \"contracts/CrowdFunding.sol\":89:107  string public name */\n    tag_29:\n      0x00\n      dup1\n      sload\n      tag_98\n      swap1\n      tag_93\n      jump\t// in\n    tag_98:\n      dup1\n      0x1f\n      add\n      0x20\n      dup1\n      swap2\n      div\n      mul\n      0x20\n      add\n      mload(0x40)\n      swap1\n      dup2\n      add\n      0x40\n      mstore\n      dup1\n      swap3\n      swap2\n      swap1\n      dup2\n      dup2\n      mstore\n      0x20\n      add\n      dup3\n      dup1\n      sload\n      tag_99\n      swap1\n      tag_93\n      jump\t// in\n    tag_99:\n      dup1\n      iszero\n      tag_100\n      jumpi\n      dup1\n      0x1f\n      lt\n      tag_101\n      jumpi\n      0x0100\n      dup1\n      dup4\n      sload\n      div\n      mul\n      dup4\n      mstore\n      swap2\n      0x20\n      add\n      swap2\n      jump(tag_100)\n    tag_101:\n      dup3\n      add\n      swap2\n      swap1\n      0x00\n      mstore\n      keccak256(0x00, 0x20)\n      swap1\n    tag_102:\n      dup2\n      sload\n      dup2\n      mstore\n      swap1\n      0x01\n      add\n      swap1\n      0x20\n      add\n      dup1\n      dup4\n      gt\n      tag_102\n      jumpi\n      dup3\n      swap1\n      sub\n      0x1f\n      and\n      dup3\n      add\n      swap2\n    tag_100:\n      pop\n      pop\n      pop\n      pop\n      pop\n      dup2\n      jump\t// out\n        /* \"contracts/CrowdFunding.sol\":172:195  uint256 public deadline */\n    tag_34:\n      sload(0x03)\n      dup2\n      jump\t// out\n        /* \"contracts/CrowdFunding.sol\":2577:2949  function withdraw() public onlyOwner {... */\n    tag_39:\n        /* \"contracts/CrowdFunding.sol\":703:708  owner */\n      0x04\n      0x00\n      swap1\n      sload\n      swap1\n      0x0100\n      exp\n      swap1\n      div\n      0xffffffffffffffffffffffffffffffffffffffff\n      and\n        /* \"contracts/CrowdFunding.sol\":689:708  msg.sender == owner */\n      0xffffffffffffffffffffffffffffffffffffffff\n      and\n        /* \"contracts/CrowdFunding.sol\":689:699  msg.sender */\n      caller\n        /* \"contracts/CrowdFunding.sol\":689:708  msg.sender == owner */\n      0xffffffffffffffffffffffffffffffffffffffff\n      and\n      eq\n        /* \"contracts/CrowdFunding.sol\":681:745  require(msg.sender == owner, \"The contract is not owned by the\") */\n      tag_104\n      jumpi\n      mload(0x40)\n      0x08c379a000000000000000000000000000000000000000000000000000000000\n      dup2\n      mstore\n      0x04\n      add\n      tag_105\n      swap1\n      tag_106\n      jump\t// in\n    tag_105:\n      mload(0x40)\n      dup1\n      swap2\n      sub\n      swap1\n      revert\n    tag_104:\n        /* \"contracts/CrowdFunding.sol\":2625:2654  checkAndUpdateCampaignState() */\n      tag_108\n        /* \"contracts/CrowdFunding.sol\":2625:2652  checkAndUpdateCampaignState */\n      tag_109\n        /* \"contracts/CrowdFunding.sol\":2625:2654  checkAndUpdateCampaignState() */\n      jump\t// in\n    tag_108:\n        /* \"contracts/CrowdFunding.sol\":2682:2706  CampaignState.Successful */\n      0x01\n        /* \"contracts/CrowdFunding.sol\":2673:2706  state == CampaignState.Successful */\n      0x02\n      dup2\n      gt\n      iszero\n      tag_110\n      jumpi\n      tag_111\n      tag_112\n      jump\t// in\n    tag_111:\n    tag_110:\n        /* \"contracts/CrowdFunding.sol\":2673:2678  state */\n      0x04\n      0x14\n      swap1\n      sload\n      swap1\n      0x0100\n      exp\n      swap1\n      div\n      0xff\n      and\n        /* \"contracts/CrowdFunding.sol\":2673:2706  state == CampaignState.Successful */\n      0x02\n      dup2\n      gt\n      iszero\n      tag_113\n      jumpi\n      tag_114\n      tag_112\n      jump\t// in\n    tag_114:\n    tag_113:\n      eq\n        /* \"contracts/CrowdFunding.sol\":2665:2738  require(state == CampaignState.Successful, \"Campaign is not successful.\") */\n      tag_115\n      jumpi\n      mload(0x40)\n      0x08c379a000000000000000000000000000000000000000000000000000000000\n      dup2\n      mstore\n      0x04\n      add\n      tag_116\n      swap1\n      tag_117\n      jump\t// in\n    tag_116:\n      mload(0x40)\n      dup1\n      swap2\n      sub\n      swap1\n      revert\n    tag_115:\n        /* \"contracts/CrowdFunding.sol\":2751:2766  uint256 balance */\n      0x00\n        /* \"contracts/CrowdFunding.sol\":2769:2790  address(this).balance */\n      selfbalance\n        /* \"contracts/CrowdFunding.sol\":2751:2790  uint256 balance = address(this).balance */\n      swap1\n      pop\n        /* \"contracts/CrowdFunding.sol\":2819:2820  0 */\n      0x00\n        /* \"contracts/CrowdFunding.sol\":2809:2816  balance */\n      dup2\n        /* \"contracts/CrowdFunding.sol\":2809:2820  balance > 0 */\n      gt\n        /* \"contracts/CrowdFunding.sol\":2801:2847  require(balance > 0, \"No balance to withdraw\") */\n      tag_118\n      jumpi\n      mload(0x40)\n      0x08c379a000000000000000000000000000000000000000000000000000000000\n      dup2\n      mstore\n      0x04\n      add\n      tag_119\n      swap1\n      tag_120\n      jump\t// in\n    tag_119:\n      mload(0x40)\n      dup1\n      swap2\n      sub\n      swap1\n      revert\n    tag_118:\n        /* \"contracts/CrowdFunding.sol\":2917:2922  owner */\n      0x04\n      0x00\n      swap1\n      sload\n      swap1\n      0x0100\n      exp\n      swap1\n      div\n      0xffffffffffffffffffffffffffffffffffffffff\n      and\n        /* \"contracts/CrowdFunding.sol\":2909:2932  payable(owner).transfer */\n      0xffffffffffffffffffffffffffffffffffffffff\n      and\n        /* \"contracts/CrowdFunding.sol\":2909:2941  payable(owner).transfer(balance) */\n      0x08fc\n        /* \"contracts/CrowdFunding.sol\":2933:2940  balance */\n      dup3\n        /* \"contracts/CrowdFunding.sol\":2909:2941  payable(owner).transfer(balance) */\n      swap1\n      dup2\n      iszero\n      mul\n      swap1\n      mload(0x40)\n      0x00\n      mload(0x40)\n      dup1\n      dup4\n      sub\n      dup2\n      dup6\n      dup9\n      dup9\n      call\n      swap4\n      pop\n      pop\n      pop\n      pop\n      iszero\n      dup1\n      iszero\n      tag_122\n      jumpi\n      returndatacopy(0x00, 0x00, returndatasize)\n      revert(0x00, returndatasize)\n    tag_122:\n      pop\n        /* \"contracts/CrowdFunding.sol\":2614:2949  {... */\n      pop\n        /* \"contracts/CrowdFunding.sol\":2577:2949  function withdraw() public onlyOwner {... */\n      jump\t// out\n        /* \"contracts/CrowdFunding.sol\":146:165  uint256 public goal */\n    tag_42:\n      sload(0x02)\n      dup2\n      jump\t// out\n        /* \"contracts/CrowdFunding.sol\":3072:3451  function refund() public {... */\n    tag_46:\n        /* \"contracts/CrowdFunding.sol\":3108:3137  checkAndUpdateCampaignState() */\n      tag_124\n        /* \"contracts/CrowdFunding.sol\":3108:3135  checkAndUpdateCampaignState */\n      tag_109\n        /* \"contracts/CrowdFunding.sol\":3108:3137  checkAndUpdateCampaignState() */\n      jump\t// in\n    tag_124:\n        /* \"contracts/CrowdFunding.sol\":3228:3242  uint256 amount */\n      0x00\n        /* \"contracts/CrowdFunding.sol\":3245:3252  backers */\n      0x06\n        /* \"contracts/CrowdFunding.sol\":3245:3264  backers[msg.sender] */\n      0x00\n        /* \"contracts/CrowdFunding.sol\":3253:3263  msg.sender */\n      caller\n        /* \"contracts/CrowdFunding.sol\":3245:3264  backers[msg.sender] */\n      0xffffffffffffffffffffffffffffffffffffffff\n      and\n      0xffffffffffffffffffffffffffffffffffffffff\n      and\n      dup2\n      mstore\n      0x20\n      add\n      swap1\n      dup2\n      mstore\n      0x20\n      add\n      0x00\n      keccak256\n        /* \"contracts/CrowdFunding.sol\":3245:3282  backers[msg.sender].totalContribution */\n      0x00\n      add\n      sload\n        /* \"contracts/CrowdFunding.sol\":3228:3282  uint256 amount = backers[msg.sender].totalContribution */\n      swap1\n      pop\n        /* \"contracts/CrowdFunding.sol\":3311:3312  0 */\n      0x00\n        /* \"contracts/CrowdFunding.sol\":3301:3307  amount */\n      dup2\n        /* \"contracts/CrowdFunding.sol\":3301:3312  amount >= 0 */\n      lt\n      iszero\n        /* \"contracts/CrowdFunding.sol\":3293:3342  require(amount >= 0, \"No contribution to refund\") */\n      tag_125\n      jumpi\n      mload(0x40)\n      0x08c379a000000000000000000000000000000000000000000000000000000000\n      dup2\n      mstore\n      0x04\n      add\n      tag_126\n      swap1\n      tag_127\n      jump\t// in\n    tag_126:\n      mload(0x40)\n      dup1\n      swap2\n      sub\n      swap1\n      revert\n    tag_125:\n        /* \"contracts/CrowdFunding.sol\":3395:3396  0 */\n      0x00\n        /* \"contracts/CrowdFunding.sol\":3355:3362  backers */\n      0x06\n        /* \"contracts/CrowdFunding.sol\":3355:3374  backers[msg.sender] */\n      0x00\n        /* \"contracts/CrowdFunding.sol\":3363:3373  msg.sender */\n      caller\n        /* \"contracts/CrowdFunding.sol\":3355:3374  backers[msg.sender] */\n      0xffffffffffffffffffffffffffffffffffffffff\n      and\n      0xffffffffffffffffffffffffffffffffffffffff\n      and\n      dup2\n      mstore\n      0x20\n      add\n      swap1\n      dup2\n      mstore\n      0x20\n      add\n      0x00\n      keccak256\n        /* \"contracts/CrowdFunding.sol\":3355:3392  backers[msg.sender].totalContribution */\n      0x00\n      add\n        /* \"contracts/CrowdFunding.sol\":3355:3396  backers[msg.sender].totalContribution = 0 */\n      dup2\n      swap1\n      sstore\n      pop\n        /* \"contracts/CrowdFunding.sol\":3415:3425  msg.sender */\n      caller\n        /* \"contracts/CrowdFunding.sol\":3407:3435  payable(msg.sender).transfer */\n      0xffffffffffffffffffffffffffffffffffffffff\n      and\n        /* \"contracts/CrowdFunding.sol\":3407:3443  payable(msg.sender).transfer(amount) */\n      0x08fc\n        /* \"contracts/CrowdFunding.sol\":3436:3442  amount */\n      dup3\n        /* \"contracts/CrowdFunding.sol\":3407:3443  payable(msg.sender).transfer(amount) */\n      swap1\n      dup2\n      iszero\n      mul\n      swap1\n      mload(0x40)\n      0x00\n      mload(0x40)\n      dup1\n      dup4\n      sub\n      dup2\n      dup6\n      dup9\n      dup9\n      call\n      swap4\n      pop\n      pop\n      pop\n      pop\n      iszero\n      dup1\n      iszero\n      tag_129\n      jumpi\n      returndatacopy(0x00, 0x00, returndatasize)\n      revert(0x00, returndatasize)\n    tag_129:\n      pop\n        /* \"contracts/CrowdFunding.sol\":3097:3451  {... */\n      pop\n        /* \"contracts/CrowdFunding.sol\":3072:3451  function refund() public {... */\n      jump\t// out\n        /* \"contracts/CrowdFunding.sol\":2957:3064  function getContractBalance() public view returns (uint256) {... */\n    tag_49:\n        /* \"contracts/CrowdFunding.sol\":3008:3015  uint256 */\n      0x00\n        /* \"contracts/CrowdFunding.sol\":3035:3056  address(this).balance */\n      selfbalance\n        /* \"contracts/CrowdFunding.sol\":3028:3056  return address(this).balance */\n      swap1\n      pop\n        /* \"contracts/CrowdFunding.sol\":2957:3064  function getContractBalance() public view returns (uint256) {... */\n      swap1\n      jump\t// out\n        /* \"contracts/CrowdFunding.sol\":114:139  string public description */\n    tag_53:\n      0x01\n      dup1\n      sload\n      tag_131\n      swap1\n      tag_93\n      jump\t// in\n    tag_131:\n      dup1\n      0x1f\n      add\n      0x20\n      dup1\n      swap2\n      div\n      mul\n      0x20\n      add\n      mload(0x40)\n      swap1\n      dup2\n      add\n      0x40\n      mstore\n      dup1\n      swap3\n      swap2\n      swap1\n      dup2\n      dup2\n      mstore\n      0x20\n      add\n      dup3\n      dup1\n      sload\n      tag_132\n      swap1\n      tag_93\n      jump\t// in\n    tag_132:\n      dup1\n      iszero\n      tag_133\n      jumpi\n      dup1\n      0x1f\n      lt\n      tag_134\n      jumpi\n      0x0100\n      dup1\n      dup4\n      sload\n      div\n      mul\n      dup4\n      mstore\n      swap2\n      0x20\n      add\n      swap2\n      jump(tag_133)\n    tag_134:\n      dup3\n      add\n      swap2\n      swap1\n      0x00\n      mstore\n      keccak256(0x00, 0x20)\n      swap1\n    tag_135:\n      dup2\n      sload\n      dup2\n      mstore\n      swap1\n      0x01\n      add\n      swap1\n      0x20\n      add\n      dup1\n      dup4\n      gt\n      tag_135\n      jumpi\n      dup3\n      swap1\n      sub\n      0x1f\n      and\n      dup3\n      add\n      swap2\n    tag_133:\n      pop\n      pop\n      pop\n      pop\n      pop\n      dup2\n      jump\t// out\n        /* \"contracts/CrowdFunding.sol\":2356:2569  function removeTier(... */\n    tag_58:\n        /* \"contracts/CrowdFunding.sol\":703:708  owner */\n      0x04\n      0x00\n      swap1\n      sload\n      swap1\n      0x0100\n      exp\n      swap1\n      div\n      0xffffffffffffffffffffffffffffffffffffffff\n      and\n        /* \"contracts/CrowdFunding.sol\":689:708  msg.sender == owner */\n      0xffffffffffffffffffffffffffffffffffffffff\n      and\n        /* \"contracts/CrowdFunding.sol\":689:699  msg.sender */\n      caller\n        /* \"contracts/CrowdFunding.sol\":689:708  msg.sender == owner */\n      0xffffffffffffffffffffffffffffffffffffffff\n      and\n      eq\n        /* \"contracts/CrowdFunding.sol\":681:745  require(msg.sender == owner, \"The contract is not owned by the\") */\n      tag_137\n      jumpi\n      mload(0x40)\n      0x08c379a000000000000000000000000000000000000000000000000000000000\n      dup2\n      mstore\n      0x04\n      add\n      tag_138\n      swap1\n      tag_106\n      jump\t// in\n    tag_138:\n      mload(0x40)\n      dup1\n      swap2\n      sub\n      swap1\n      revert\n    tag_137:\n        /* \"contracts/CrowdFunding.sol\":2453:2458  tiers */\n      0x05\n        /* \"contracts/CrowdFunding.sol\":2453:2465  tiers.length */\n      dup1\n      sload\n      swap1\n      pop\n        /* \"contracts/CrowdFunding.sol\":2444:2450  _index */\n      dup2\n        /* \"contracts/CrowdFunding.sol\":2444:2465  _index < tiers.length */\n      lt\n        /* \"contracts/CrowdFunding.sol\":2436:2489  require(_index < tiers.length, \"Tier does not exist\") */\n      tag_140\n      jumpi\n      mload(0x40)\n      0x08c379a000000000000000000000000000000000000000000000000000000000\n      dup2\n      mstore\n      0x04\n      add\n      tag_141\n      swap1\n      tag_142\n      jump\t// in\n    tag_141:\n      mload(0x40)\n      dup1\n      swap2\n      sub\n      swap1\n      revert\n    tag_140:\n        /* \"contracts/CrowdFunding.sol\":2516:2521  tiers */\n      0x05\n        /* \"contracts/CrowdFunding.sol\":2537:2538  1 */\n      0x01\n        /* \"contracts/CrowdFunding.sol\":2522:2527  tiers */\n      0x05\n        /* \"contracts/CrowdFunding.sol\":2522:2534  tiers.length */\n      dup1\n      sload\n      swap1\n      pop\n        /* \"contracts/CrowdFunding.sol\":2522:2538  tiers.length - 1 */\n      tag_143\n      swap2\n      swap1\n      tag_144\n      jump\t// in\n    tag_143:\n        /* \"contracts/CrowdFunding.sol\":2516:2539  tiers[tiers.length - 1] */\n      dup2\n      sload\n      dup2\n      lt\n      tag_145\n      jumpi\n      tag_146\n      tag_147\n      jump\t// in\n    tag_146:\n    tag_145:\n      swap1\n      0x00\n      mstore\n      keccak256(0x00, 0x20)\n      swap1\n      0x03\n      mul\n      add\n        /* \"contracts/CrowdFunding.sol\":2500:2505  tiers */\n      0x05\n        /* \"contracts/CrowdFunding.sol\":2506:2512  _index */\n      dup3\n        /* \"contracts/CrowdFunding.sol\":2500:2513  tiers[_index] */\n      dup2\n      sload\n      dup2\n      lt\n      tag_149\n      jumpi\n      tag_150\n      tag_147\n      jump\t// in\n    tag_150:\n    tag_149:\n      swap1\n      0x00\n      mstore\n      keccak256(0x00, 0x20)\n      swap1\n      0x03\n      mul\n      add\n        /* \"contracts/CrowdFunding.sol\":2500:2539  tiers[_index] = tiers[tiers.length - 1] */\n      0x00\n      dup3\n      add\n      dup2\n      0x00\n      add\n      swap1\n      dup2\n      tag_152\n      swap2\n      swap1\n      tag_153\n      jump\t// in\n    tag_152:\n      pop\n      0x01\n      dup3\n      add\n      sload\n      dup2\n      0x01\n      add\n      sstore\n      0x02\n      dup3\n      add\n      sload\n      dup2\n      0x02\n      add\n      sstore\n      swap1\n      pop\n      pop\n        /* \"contracts/CrowdFunding.sol\":2550:2555  tiers */\n      0x05\n        /* \"contracts/CrowdFunding.sol\":2550:2561  tiers.pop() */\n      dup1\n      sload\n      dup1\n      tag_154\n      jumpi\n      tag_155\n      tag_156\n      jump\t// in\n    tag_155:\n    tag_154:\n      0x01\n      swap1\n      sub\n      dup2\n      dup2\n      swap1\n      0x00\n      mstore\n      keccak256(0x00, 0x20)\n      swap1\n      0x03\n      mul\n      add\n      0x00\n      0x00\n      dup3\n      add\n      0x00\n      tag_158\n      swap2\n      swap1\n      tag_159\n      jump\t// in\n    tag_158:\n      0x01\n      dup3\n      add\n      0x00\n      swap1\n      sstore\n      0x02\n      dup3\n      add\n      0x00\n      swap1\n      sstore\n      pop\n      pop\n      swap1\n      sstore\n        /* \"contracts/CrowdFunding.sol\":2356:2569  function removeTier(... */\n      pop\n      jump\t// out\n        /* \"contracts/CrowdFunding.sol\":3459:3613  function hasFundedTier(address _backer, uint256 _tierIndex) public view returns  (bool) {... */\n    tag_63:\n        /* \"contracts/CrowdFunding.sol\":3541:3545  bool */\n      0x00\n        /* \"contracts/CrowdFunding.sol\":3565:3572  backers */\n      0x06\n        /* \"contracts/CrowdFunding.sol\":3565:3581  backers[_backer] */\n      0x00\n        /* \"contracts/CrowdFunding.sol\":3573:3580  _backer */\n      dup5\n        /* \"contracts/CrowdFunding.sol\":3565:3581  backers[_backer] */\n      0xffffffffffffffffffffffffffffffffffffffff\n      and\n      0xffffffffffffffffffffffffffffffffffffffff\n      and\n      dup2\n      mstore\n      0x20\n      add\n      swap1\n      dup2\n      mstore\n      0x20\n      add\n      0x00\n      keccak256\n        /* \"contracts/CrowdFunding.sol\":3565:3593  backers[_backer].fundedTiers */\n      0x01\n      add\n        /* \"contracts/CrowdFunding.sol\":3565:3605  backers[_backer].fundedTiers[_tierIndex] */\n      0x00\n        /* \"contracts/CrowdFunding.sol\":3594:3604  _tierIndex */\n      dup4\n        /* \"contracts/CrowdFunding.sol\":3565:3605  backers[_backer].fundedTiers[_tierIndex] */\n      dup2\n      mstore\n      0x20\n      add\n      swap1\n      dup2\n      mstore\n      0x20\n      add\n      0x00\n      keccak256\n      0x00\n      swap1\n      sload\n      swap1\n      0x0100\n      exp\n      swap1\n      div\n      0xff\n      and\n        /* \"contracts/CrowdFunding.sol\":3558:3605  return backers[_backer].fundedTiers[_tierIndex] */\n      swap1\n      pop\n        /* \"contracts/CrowdFunding.sol\":3459:3613  function hasFundedTier(address _backer, uint256 _tierIndex) public view returns  (bool) {... */\n      swap3\n      swap2\n      pop\n      pop\n      jump\t// out\n        /* \"contracts/CrowdFunding.sol\":202:222  address public owner */\n    tag_68:\n      0x04\n      0x00\n      swap1\n      sload\n      swap1\n      0x0100\n      exp\n      swap1\n      div\n      0xffffffffffffffffffffffffffffffffffffffff\n      and\n      dup2\n      jump\t// out\n        /* \"contracts/CrowdFunding.sol\":2141:2348  function addTier(... */\n    tag_75:\n        /* \"contracts/CrowdFunding.sol\":703:708  owner */\n      0x04\n      0x00\n      swap1\n      sload\n      swap1\n      0x0100\n      exp\n      swap1\n      div\n      0xffffffffffffffffffffffffffffffffffffffff\n      and\n        /* \"contracts/CrowdFunding.sol\":689:708  msg.sender == owner */\n      0xffffffffffffffffffffffffffffffffffffffff\n      and\n        /* \"contracts/CrowdFunding.sol\":689:699  msg.sender */\n      caller\n        /* \"contracts/CrowdFunding.sol\":689:708  msg.sender == owner */\n      0xffffffffffffffffffffffffffffffffffffffff\n      and\n      eq\n        /* \"contracts/CrowdFunding.sol\":681:745  require(msg.sender == owner, \"The contract is not owned by the\") */\n      tag_162\n      jumpi\n      mload(0x40)\n      0x08c379a000000000000000000000000000000000000000000000000000000000\n      dup2\n      mstore\n      0x04\n      add\n      tag_163\n      swap1\n      tag_106\n      jump\t// in\n    tag_163:\n      mload(0x40)\n      dup1\n      swap2\n      sub\n      swap1\n      revert\n    tag_162:\n        /* \"contracts/CrowdFunding.sol\":2267:2268  0 */\n      0x00\n        /* \"contracts/CrowdFunding.sol\":2257:2264  _amount */\n      dup2\n        /* \"contracts/CrowdFunding.sol\":2257:2268  _amount > 0 */\n      gt\n        /* \"contracts/CrowdFunding.sol\":2249:2294  require(_amount > 0, \"Amount cannot under 0\") */\n      tag_165\n      jumpi\n      mload(0x40)\n      0x08c379a000000000000000000000000000000000000000000000000000000000\n      dup2\n      mstore\n      0x04\n      add\n      tag_166\n      swap1\n      tag_167\n      jump\t// in\n    tag_166:\n      mload(0x40)\n      dup1\n      swap2\n      sub\n      swap1\n      revert\n    tag_165:\n        /* \"contracts/CrowdFunding.sol\":2305:2310  tiers */\n      0x05\n        /* \"contracts/CrowdFunding.sol\":2316:2339  Tier(_name, _amount, 0) */\n      mload(0x40)\n      dup1\n      0x60\n      add\n      0x40\n      mstore\n      dup1\n        /* \"contracts/CrowdFunding.sol\":2321:2326  _name */\n      dup5\n        /* \"contracts/CrowdFunding.sol\":2316:2339  Tier(_name, _amount, 0) */\n      dup2\n      mstore\n      0x20\n      add\n        /* \"contracts/CrowdFunding.sol\":2328:2335  _amount */\n      dup4\n        /* \"contracts/CrowdFunding.sol\":2316:2339  Tier(_name, _amount, 0) */\n      dup2\n      mstore\n      0x20\n      add\n        /* \"contracts/CrowdFunding.sol\":2337:2338  0 */\n      0x00\n        /* \"contracts/CrowdFunding.sol\":2316:2339  Tier(_name, _amount, 0) */\n      dup2\n      mstore\n      pop\n        /* \"contracts/CrowdFunding.sol\":2305:2340  tiers.push(Tier(_name, _amount, 0)) */\n      swap1\n      dup1\n      0x01\n      dup2\n      sload\n      add\n      dup1\n      dup3\n      sstore\n      dup1\n      swap2\n      pop\n      pop\n      0x01\n      swap1\n      sub\n      swap1\n      0x00\n      mstore\n      keccak256(0x00, 0x20)\n      swap1\n      0x03\n      mul\n      add\n      0x00\n      swap1\n      swap2\n      swap1\n      swap2\n      swap1\n      swap2\n      pop\n      0x00\n      dup3\n      add\n      mload\n      dup2\n      0x00\n      add\n      swap1\n      dup2\n      tag_169\n      swap2\n      swap1\n      tag_170\n      jump\t// in\n    tag_169:\n      pop\n      0x20\n      dup3\n      add\n      mload\n      dup2\n      0x01\n      add\n      sstore\n      0x40\n      dup3\n      add\n      mload\n      dup2\n      0x02\n      add\n      sstore\n      pop\n      pop\n        /* \"contracts/CrowdFunding.sol\":2141:2348  function addTier(... */\n      pop\n      pop\n      jump\t// out\n        /* \"contracts/CrowdFunding.sol\":597:638  mapping(address => Backer) public backers */\n    tag_80:\n      mstore(0x20, 0x06)\n      dup1\n      0x00\n      mstore\n      keccak256(0x00, 0x40)\n      0x00\n      swap2\n      pop\n      swap1\n      pop\n      dup1\n      0x00\n      add\n      sload\n      swap1\n      pop\n      dup2\n      jump\t// out\n        /* \"contracts/CrowdFunding.sol\":286:312  CampaignState public state */\n    tag_84:\n      0x04\n      0x14\n      swap1\n      sload\n      swap1\n      0x0100\n      exp\n      swap1\n      div\n      0xff\n      and\n      dup2\n      jump\t// out\n        /* \"contracts/CrowdFunding.sol\":1720:2133  function fund(uint256 _tierIndex) public payable campaignOpen {... */\n    tag_89:\n        /* \"contracts/CrowdFunding.sol\":825:845  CampaignState.Active */\n      0x00\n        /* \"contracts/CrowdFunding.sol\":816:845  state == CampaignState.Active */\n      0x02\n      dup2\n      gt\n      iszero\n      tag_172\n      jumpi\n      tag_173\n      tag_112\n      jump\t// in\n    tag_173:\n    tag_172:\n        /* \"contracts/CrowdFunding.sol\":816:821  state */\n      0x04\n      0x14\n      swap1\n      sload\n      swap1\n      0x0100\n      exp\n      swap1\n      div\n      0xff\n      and\n        /* \"contracts/CrowdFunding.sol\":816:845  state == CampaignState.Active */\n      0x02\n      dup2\n      gt\n      iszero\n      tag_174\n      jumpi\n      tag_175\n      tag_112\n      jump\t// in\n    tag_175:\n    tag_174:\n      eq\n        /* \"contracts/CrowdFunding.sol\":808:874  require(state == CampaignState.Active, \"The campaign is not open\") */\n      tag_176\n      jumpi\n      mload(0x40)\n      0x08c379a000000000000000000000000000000000000000000000000000000000\n      dup2\n      mstore\n      0x04\n      add\n      tag_177\n      swap1\n      tag_178\n      jump\t// in\n    tag_177:\n      mload(0x40)\n      dup1\n      swap2\n      sub\n      swap1\n      revert\n    tag_176:\n        /* \"contracts/CrowdFunding.sol\":1814:1819  tiers */\n      0x05\n        /* \"contracts/CrowdFunding.sol\":1814:1826  tiers.length */\n      dup1\n      sload\n      swap1\n      pop\n        /* \"contracts/CrowdFunding.sol\":1801:1811  _tierIndex */\n      dup2\n        /* \"contracts/CrowdFunding.sol\":1801:1826  _tierIndex < tiers.length */\n      lt\n        /* \"contracts/CrowdFunding.sol\":1793:1844  require(_tierIndex < tiers.length, \"Invalid tier.\") */\n      tag_180\n      jumpi\n      mload(0x40)\n      0x08c379a000000000000000000000000000000000000000000000000000000000\n      dup2\n      mstore\n      0x04\n      add\n      tag_181\n      swap1\n      tag_182\n      jump\t// in\n    tag_181:\n      mload(0x40)\n      dup1\n      swap2\n      sub\n      swap1\n      revert\n    tag_180:\n        /* \"contracts/CrowdFunding.sol\":1876:1881  tiers */\n      0x05\n        /* \"contracts/CrowdFunding.sol\":1882:1892  _tierIndex */\n      dup2\n        /* \"contracts/CrowdFunding.sol\":1876:1893  tiers[_tierIndex] */\n      dup2\n      sload\n      dup2\n      lt\n      tag_183\n      jumpi\n      tag_184\n      tag_147\n      jump\t// in\n    tag_184:\n    tag_183:\n      swap1\n      0x00\n      mstore\n      keccak256(0x00, 0x20)\n      swap1\n      0x03\n      mul\n      add\n        /* \"contracts/CrowdFunding.sol\":1876:1900  tiers[_tierIndex].amount */\n      0x01\n      add\n      sload\n        /* \"contracts/CrowdFunding.sol\":1863:1872  msg.value */\n      callvalue\n        /* \"contracts/CrowdFunding.sol\":1863:1900  msg.value == tiers[_tierIndex].amount */\n      eq\n        /* \"contracts/CrowdFunding.sol\":1855:1921  require(msg.value == tiers[_tierIndex].amount, \"Incorrect amount\") */\n      tag_186\n      jumpi\n      mload(0x40)\n      0x08c379a000000000000000000000000000000000000000000000000000000000\n      dup2\n      mstore\n      0x04\n      add\n      tag_187\n      swap1\n      tag_188\n      jump\t// in\n    tag_187:\n      mload(0x40)\n      dup1\n      swap2\n      sub\n      swap1\n      revert\n    tag_186:\n        /* \"contracts/CrowdFunding.sol\":1934:1939  tiers */\n      0x05\n        /* \"contracts/CrowdFunding.sol\":1940:1950  _tierIndex */\n      dup2\n        /* \"contracts/CrowdFunding.sol\":1934:1951  tiers[_tierIndex] */\n      dup2\n      sload\n      dup2\n      lt\n      tag_189\n      jumpi\n      tag_190\n      tag_147\n      jump\t// in\n    tag_190:\n    tag_189:\n      swap1\n      0x00\n      mstore\n      keccak256(0x00, 0x20)\n      swap1\n      0x03\n      mul\n      add\n        /* \"contracts/CrowdFunding.sol\":1934:1959  tiers[_tierIndex].backers */\n      0x02\n      add\n      0x00\n        /* \"contracts/CrowdFunding.sol\":1934:1961  tiers[_tierIndex].backers++ */\n      dup2\n      sload\n      dup1\n      swap3\n      swap2\n      swap1\n      tag_192\n      swap1\n      tag_193\n      jump\t// in\n    tag_192:\n      swap2\n      swap1\n      pop\n      sstore\n      pop\n        /* \"contracts/CrowdFunding.sol\":2013:2022  msg.value */\n      callvalue\n        /* \"contracts/CrowdFunding.sol\":1972:1979  backers */\n      0x06\n        /* \"contracts/CrowdFunding.sol\":1972:1991  backers[msg.sender] */\n      0x00\n        /* \"contracts/CrowdFunding.sol\":1980:1990  msg.sender */\n      caller\n        /* \"contracts/CrowdFunding.sol\":1972:1991  backers[msg.sender] */\n      0xffffffffffffffffffffffffffffffffffffffff\n      and\n      0xffffffffffffffffffffffffffffffffffffffff\n      and\n      dup2\n      mstore\n      0x20\n      add\n      swap1\n      dup2\n      mstore\n      0x20\n      add\n      0x00\n      keccak256\n        /* \"contracts/CrowdFunding.sol\":1972:2009  backers[msg.sender].totalContribution */\n      0x00\n      add\n      0x00\n        /* \"contracts/CrowdFunding.sol\":1972:2022  backers[msg.sender].totalContribution += msg.value */\n      dup3\n      dup3\n      sload\n      tag_194\n      swap2\n      swap1\n      tag_195\n      jump\t// in\n    tag_194:\n      swap3\n      pop\n      pop\n      dup2\n      swap1\n      sstore\n      pop\n        /* \"contracts/CrowdFunding.sol\":2079:2083  true */\n      0x01\n        /* \"contracts/CrowdFunding.sol\":2033:2040  backers */\n      0x06\n        /* \"contracts/CrowdFunding.sol\":2033:2052  backers[msg.sender] */\n      0x00\n        /* \"contracts/CrowdFunding.sol\":2041:2051  msg.sender */\n      caller\n        /* \"contracts/CrowdFunding.sol\":2033:2052  backers[msg.sender] */\n      0xffffffffffffffffffffffffffffffffffffffff\n      and\n      0xffffffffffffffffffffffffffffffffffffffff\n      and\n      dup2\n      mstore\n      0x20\n      add\n      swap1\n      dup2\n      mstore\n      0x20\n      add\n      0x00\n      keccak256\n        /* \"contracts/CrowdFunding.sol\":2033:2064  backers[msg.sender].fundedTiers */\n      0x01\n      add\n        /* \"contracts/CrowdFunding.sol\":2033:2076  backers[msg.sender].fundedTiers[_tierIndex] */\n      0x00\n        /* \"contracts/CrowdFunding.sol\":2065:2075  _tierIndex */\n      dup4\n        /* \"contracts/CrowdFunding.sol\":2033:2076  backers[msg.sender].fundedTiers[_tierIndex] */\n      dup2\n      mstore\n      0x20\n      add\n      swap1\n      dup2\n      mstore\n      0x20\n      add\n      0x00\n      keccak256\n      0x00\n        /* \"contracts/CrowdFunding.sol\":2033:2083  backers[msg.sender].fundedTiers[_tierIndex] = true */\n      0x0100\n      exp\n      dup2\n      sload\n      dup2\n      0xff\n      mul\n      not\n      and\n      swap1\n      dup4\n      iszero\n      iszero\n      mul\n      or\n      swap1\n      sstore\n      pop\n        /* \"contracts/CrowdFunding.sol\":2096:2125  checkAndUpdateCampaignState() */\n      tag_196\n        /* \"contracts/CrowdFunding.sol\":2096:2123  checkAndUpdateCampaignState */\n      tag_109\n        /* \"contracts/CrowdFunding.sol\":2096:2125  checkAndUpdateCampaignState() */\n      jump\t// in\n    tag_196:\n        /* \"contracts/CrowdFunding.sol\":1720:2133  function fund(uint256 _tierIndex) public payable campaignOpen {... */\n      pop\n      jump\t// out\n        /* \"contracts/CrowdFunding.sol\":1304:1712  function checkAndUpdateCampaignState() internal {... */\n    tag_109:\n        /* \"contracts/CrowdFunding.sol\":1375:1395  CampaignState.Active */\n      0x00\n        /* \"contracts/CrowdFunding.sol\":1366:1395  state == CampaignState.Active */\n      0x02\n      dup2\n      gt\n      iszero\n      tag_198\n      jumpi\n      tag_199\n      tag_112\n      jump\t// in\n    tag_199:\n    tag_198:\n        /* \"contracts/CrowdFunding.sol\":1366:1371  state */\n      0x04\n      0x14\n      swap1\n      sload\n      swap1\n      0x0100\n      exp\n      swap1\n      div\n      0xff\n      and\n        /* \"contracts/CrowdFunding.sol\":1366:1395  state == CampaignState.Active */\n      0x02\n      dup2\n      gt\n      iszero\n      tag_200\n      jumpi\n      tag_201\n      tag_112\n      jump\t// in\n    tag_201:\n    tag_200:\n      sub\n        /* \"contracts/CrowdFunding.sol\":1363:1705  if(state == CampaignState.Active) {... */\n      tag_202\n      jumpi\n        /* \"contracts/CrowdFunding.sol\":1434:1442  deadline */\n      sload(0x03)\n        /* \"contracts/CrowdFunding.sol\":1415:1430  block.timestamp */\n      timestamp\n        /* \"contracts/CrowdFunding.sol\":1415:1442  block.timestamp >= deadline */\n      lt\n        /* \"contracts/CrowdFunding.sol\":1412:1694  if(block.timestamp >= deadline) {... */\n      tag_203\n      jumpi\n        /* \"contracts/CrowdFunding.sol\":1496:1500  goal */\n      sload(0x02)\n        /* \"contracts/CrowdFunding.sol\":1471:1492  address(this).balance */\n      selfbalance\n        /* \"contracts/CrowdFunding.sol\":1471:1500  address(this).balance >= goal */\n      lt\n      iszero\n        /* \"contracts/CrowdFunding.sol\":1471:1550  address(this).balance >= goal ? CampaignState.Successful : CampaignState.Failed */\n      tag_204\n      jumpi\n        /* \"contracts/CrowdFunding.sol\":1530:1550  CampaignState.Failed */\n      0x02\n        /* \"contracts/CrowdFunding.sol\":1471:1550  address(this).balance >= goal ? CampaignState.Successful : CampaignState.Failed */\n      jump(tag_205)\n    tag_204:\n        /* \"contracts/CrowdFunding.sol\":1503:1527  CampaignState.Successful */\n      0x01\n        /* \"contracts/CrowdFunding.sol\":1471:1550  address(this).balance >= goal ? CampaignState.Successful : CampaignState.Failed */\n    tag_205:\n        /* \"contracts/CrowdFunding.sol\":1463:1468  state */\n      0x04\n      0x14\n        /* \"contracts/CrowdFunding.sol\":1463:1550  state = address(this).balance >= goal ? CampaignState.Successful : CampaignState.Failed */\n      0x0100\n      exp\n      dup2\n      sload\n      dup2\n      0xff\n      mul\n      not\n      and\n      swap1\n      dup4\n      0x02\n      dup2\n      gt\n      iszero\n      tag_206\n      jumpi\n      tag_207\n      tag_112\n      jump\t// in\n    tag_207:\n    tag_206:\n      mul\n      or\n      swap1\n      sstore\n      pop\n        /* \"contracts/CrowdFunding.sol\":1412:1694  if(block.timestamp >= deadline) {... */\n      jump(tag_208)\n    tag_203:\n        /* \"contracts/CrowdFunding.sol\":1624:1628  goal */\n      sload(0x02)\n        /* \"contracts/CrowdFunding.sol\":1599:1620  address(this).balance */\n      selfbalance\n        /* \"contracts/CrowdFunding.sol\":1599:1628  address(this).balance >= goal */\n      lt\n      iszero\n        /* \"contracts/CrowdFunding.sol\":1599:1678  address(this).balance >= goal ? CampaignState.Successful : CampaignState.Active */\n      tag_209\n      jumpi\n        /* \"contracts/CrowdFunding.sol\":1658:1678  CampaignState.Active */\n      0x00\n        /* \"contracts/CrowdFunding.sol\":1599:1678  address(this).balance >= goal ? CampaignState.Successful : CampaignState.Active */\n      jump(tag_210)\n    tag_209:\n        /* \"contracts/CrowdFunding.sol\":1631:1655  CampaignState.Successful */\n      0x01\n        /* \"contracts/CrowdFunding.sol\":1599:1678  address(this).balance >= goal ? CampaignState.Successful : CampaignState.Active */\n    tag_210:\n        /* \"contracts/CrowdFunding.sol\":1591:1596  state */\n      0x04\n      0x14\n        /* \"contracts/CrowdFunding.sol\":1591:1678  state = address(this).balance >= goal ? CampaignState.Successful : CampaignState.Active */\n      0x0100\n      exp\n      dup2\n      sload\n      dup2\n      0xff\n      mul\n      not\n      and\n      swap1\n      dup4\n      0x02\n      dup2\n      gt\n      iszero\n      tag_211\n      jumpi\n      tag_212\n      tag_112\n      jump\t// in\n    tag_212:\n    tag_211:\n      mul\n      or\n      swap1\n      sstore\n      pop\n        /* \"contracts/CrowdFunding.sol\":1412:1694  if(block.timestamp >= deadline) {... */\n    tag_208:\n        /* \"contracts/CrowdFunding.sol\":1363:1705  if(state == CampaignState.Active) {... */\n    tag_202:\n        /* \"contracts/CrowdFunding.sol\":1304:1712  function checkAndUpdateCampaignState() internal {... */\n      jump\t// out\n    tag_159:\n      pop\n      dup1\n      sload\n      tag_213\n      swap1\n      tag_93\n      jump\t// in\n    tag_213:\n      0x00\n      dup3\n      sstore\n      dup1\n      0x1f\n      lt\n      tag_215\n      jumpi\n      pop\n      jump(tag_214)\n    tag_215:\n      0x1f\n      add\n      0x20\n      swap1\n      div\n      swap1\n      0x00\n      mstore\n      keccak256(0x00, 0x20)\n      swap1\n      dup2\n      add\n      swap1\n      tag_216\n      swap2\n      swap1\n      tag_217\n      jump\t// in\n    tag_216:\n    tag_214:\n      pop\n      jump\t// out\n    tag_217:\n    tag_218:\n      dup1\n      dup3\n      gt\n      iszero\n      tag_219\n      jumpi\n      0x00\n      dup2\n      0x00\n      swap1\n      sstore\n      pop\n      0x01\n      add\n      jump(tag_218)\n    tag_219:\n      pop\n      swap1\n      jump\t// out\n        /* \"#utility.yul\":7:82   */\n    tag_220:\n        /* \"#utility.yul\":40:46   */\n      0x00\n        /* \"#utility.yul\":73:75   */\n      0x40\n        /* \"#utility.yul\":67:76   */\n      mload\n        /* \"#utility.yul\":57:76   */\n      swap1\n      pop\n        /* \"#utility.yul\":7:82   */\n      swap1\n      jump\t// out\n        /* \"#utility.yul\":88:205   */\n    tag_221:\n        /* \"#utility.yul\":197:198   */\n      0x00\n        /* \"#utility.yul\":194:195   */\n      0x00\n        /* \"#utility.yul\":187:199   */\n      revert\n        /* \"#utility.yul\":211:328   */\n    tag_222:\n        /* \"#utility.yul\":320:321   */\n      0x00\n        /* \"#utility.yul\":317:318   */\n      0x00\n        /* \"#utility.yul\":310:322   */\n      revert\n        /* \"#utility.yul\":334:411   */\n    tag_223:\n        /* \"#utility.yul\":371:378   */\n      0x00\n        /* \"#utility.yul\":400:405   */\n      dup2\n        /* \"#utility.yul\":389:405   */\n      swap1\n      pop\n        /* \"#utility.yul\":334:411   */\n      swap2\n      swap1\n      pop\n      jump\t// out\n        /* \"#utility.yul\":417:539   */\n    tag_224:\n        /* \"#utility.yul\":490:514   */\n      tag_294\n        /* \"#utility.yul\":508:513   */\n      dup2\n        /* \"#utility.yul\":490:514   */\n      tag_223\n      jump\t// in\n    tag_294:\n        /* \"#utility.yul\":483:488   */\n      dup2\n        /* \"#utility.yul\":480:515   */\n      eq\n        /* \"#utility.yul\":470:533   */\n      tag_295\n      jumpi\n        /* \"#utility.yul\":529:530   */\n      0x00\n        /* \"#utility.yul\":526:527   */\n      0x00\n        /* \"#utility.yul\":519:531   */\n      revert\n        /* \"#utility.yul\":470:533   */\n    tag_295:\n        /* \"#utility.yul\":417:539   */\n      pop\n      jump\t// out\n        /* \"#utility.yul\":545:684   */\n    tag_225:\n        /* \"#utility.yul\":591:596   */\n      0x00\n        /* \"#utility.yul\":629:635   */\n      dup2\n        /* \"#utility.yul\":616:636   */\n      calldataload\n        /* \"#utility.yul\":607:636   */\n      swap1\n      pop\n        /* \"#utility.yul\":645:678   */\n      tag_297\n        /* \"#utility.yul\":672:677   */\n      dup2\n        /* \"#utility.yul\":645:678   */\n      tag_224\n      jump\t// in\n    tag_297:\n        /* \"#utility.yul\":545:684   */\n      swap3\n      swap2\n      pop\n      pop\n      jump\t// out\n        /* \"#utility.yul\":690:1019   */\n    tag_23:\n        /* \"#utility.yul\":749:755   */\n      0x00\n        /* \"#utility.yul\":798:800   */\n      0x20\n        /* \"#utility.yul\":786:795   */\n      dup3\n        /* \"#utility.yul\":777:784   */\n      dup5\n        /* \"#utility.yul\":773:796   */\n      sub\n        /* \"#utility.yul\":769:801   */\n      slt\n        /* \"#utility.yul\":766:885   */\n      iszero\n      tag_299\n      jumpi\n        /* \"#utility.yul\":804:883   */\n      tag_300\n      tag_221\n      jump\t// in\n    tag_300:\n        /* \"#utility.yul\":766:885   */\n    tag_299:\n        /* \"#utility.yul\":924:925   */\n      0x00\n        /* \"#utility.yul\":949:1002   */\n      tag_301\n        /* \"#utility.yul\":994:1001   */\n      dup5\n        /* \"#utility.yul\":985:991   */\n      dup3\n        /* \"#utility.yul\":974:983   */\n      dup6\n        /* \"#utility.yul\":970:992   */\n      add\n        /* \"#utility.yul\":949:1002   */\n      tag_225\n      jump\t// in\n    tag_301:\n        /* \"#utility.yul\":939:1002   */\n      swap2\n      pop\n        /* \"#utility.yul\":895:1012   */\n      pop\n        /* \"#utility.yul\":690:1019   */\n      swap3\n      swap2\n      pop\n      pop\n      jump\t// out\n        /* \"#utility.yul\":1025:1124   */\n    tag_226:\n        /* \"#utility.yul\":1077:1083   */\n      0x00\n        /* \"#utility.yul\":1111:1116   */\n      dup2\n        /* \"#utility.yul\":1105:1117   */\n      mload\n        /* \"#utility.yul\":1095:1117   */\n      swap1\n      pop\n        /* \"#utility.yul\":1025:1124   */\n      swap2\n      swap1\n      pop\n      jump\t// out\n        /* \"#utility.yul\":1130:1299   */\n    tag_227:\n        /* \"#utility.yul\":1214:1225   */\n      0x00\n        /* \"#utility.yul\":1248:1254   */\n      dup3\n        /* \"#utility.yul\":1243:1246   */\n      dup3\n        /* \"#utility.yul\":1236:1255   */\n      mstore\n        /* \"#utility.yul\":1288:1292   */\n      0x20\n        /* \"#utility.yul\":1283:1286   */\n      dup3\n        /* \"#utility.yul\":1279:1293   */\n      add\n        /* \"#utility.yul\":1264:1293   */\n      swap1\n      pop\n        /* \"#utility.yul\":1130:1299   */\n      swap3\n      swap2\n      pop\n      pop\n      jump\t// out\n        /* \"#utility.yul\":1305:1444   */\n    tag_228:\n        /* \"#utility.yul\":1394:1400   */\n      dup3\n        /* \"#utility.yul\":1389:1392   */\n      dup2\n        /* \"#utility.yul\":1384:1387   */\n      dup4\n        /* \"#utility.yul\":1378:1401   */\n      mcopy\n        /* \"#utility.yul\":1435:1436   */\n      0x00\n        /* \"#utility.yul\":1426:1432   */\n      dup4\n        /* \"#utility.yul\":1421:1424   */\n      dup4\n        /* \"#utility.yul\":1417:1433   */\n      add\n        /* \"#utility.yul\":1410:1437   */\n      mstore\n        /* \"#utility.yul\":1305:1444   */\n      pop\n      pop\n      pop\n      jump\t// out\n        /* \"#utility.yul\":1450:1552   */\n    tag_229:\n        /* \"#utility.yul\":1491:1497   */\n      0x00\n        /* \"#utility.yul\":1542:1544   */\n      0x1f\n        /* \"#utility.yul\":1538:1545   */\n      not\n        /* \"#utility.yul\":1533:1535   */\n      0x1f\n        /* \"#utility.yul\":1526:1531   */\n      dup4\n        /* \"#utility.yul\":1522:1536   */\n      add\n        /* \"#utility.yul\":1518:1546   */\n      and\n        /* \"#utility.yul\":1508:1546   */\n      swap1\n      pop\n        /* \"#utility.yul\":1450:1552   */\n      swap2\n      swap1\n      pop\n      jump\t// out\n        /* \"#utility.yul\":1558:1935   */\n    tag_230:\n        /* \"#utility.yul\":1646:1649   */\n      0x00\n        /* \"#utility.yul\":1674:1713   */\n      tag_307\n        /* \"#utility.yul\":1707:1712   */\n      dup3\n        /* \"#utility.yul\":1674:1713   */\n      tag_226\n      jump\t// in\n    tag_307:\n        /* \"#utility.yul\":1729:1800   */\n      tag_308\n        /* \"#utility.yul\":1793:1799   */\n      dup2\n        /* \"#utility.yul\":1788:1791   */\n      dup6\n        /* \"#utility.yul\":1729:1800   */\n      tag_227\n      jump\t// in\n    tag_308:\n        /* \"#utility.yul\":1722:1800   */\n      swap4\n      pop\n        /* \"#utility.yul\":1809:1874   */\n      tag_309\n        /* \"#utility.yul\":1867:1873   */\n      dup2\n        /* \"#utility.yul\":1862:1865   */\n      dup6\n        /* \"#utility.yul\":1855:1859   */\n      0x20\n        /* \"#utility.yul\":1848:1853   */\n      dup7\n        /* \"#utility.yul\":1844:1860   */\n      add\n        /* \"#utility.yul\":1809:1874   */\n      tag_228\n      jump\t// in\n    tag_309:\n        /* \"#utility.yul\":1899:1928   */\n      tag_310\n        /* \"#utility.yul\":1921:1927   */\n      dup2\n        /* \"#utility.yul\":1899:1928   */\n      tag_229\n      jump\t// in\n    tag_310:\n        /* \"#utility.yul\":1894:1897   */\n      dup5\n        /* \"#utility.yul\":1890:1929   */\n      add\n        /* \"#utility.yul\":1883:1929   */\n      swap2\n      pop\n        /* \"#utility.yul\":1650:1935   */\n      pop\n        /* \"#utility.yul\":1558:1935   */\n      swap3\n      swap2\n      pop\n      pop\n      jump\t// out\n        /* \"#utility.yul\":1941:2059   */\n    tag_231:\n        /* \"#utility.yul\":2028:2052   */\n      tag_312\n        /* \"#utility.yul\":2046:2051   */\n      dup2\n        /* \"#utility.yul\":2028:2052   */\n      tag_223\n      jump\t// in\n    tag_312:\n        /* \"#utility.yul\":2023:2026   */\n      dup3\n        /* \"#utility.yul\":2016:2053   */\n      mstore\n        /* \"#utility.yul\":1941:2059   */\n      pop\n      pop\n      jump\t// out\n        /* \"#utility.yul\":2065:2598   */\n    tag_26:\n        /* \"#utility.yul\":2234:2238   */\n      0x00\n        /* \"#utility.yul\":2272:2274   */\n      0x60\n        /* \"#utility.yul\":2261:2270   */\n      dup3\n        /* \"#utility.yul\":2257:2275   */\n      add\n        /* \"#utility.yul\":2249:2275   */\n      swap1\n      pop\n        /* \"#utility.yul\":2321:2330   */\n      dup2\n        /* \"#utility.yul\":2315:2319   */\n      dup2\n        /* \"#utility.yul\":2311:2331   */\n      sub\n        /* \"#utility.yul\":2307:2308   */\n      0x00\n        /* \"#utility.yul\":2296:2305   */\n      dup4\n        /* \"#utility.yul\":2292:2309   */\n      add\n        /* \"#utility.yul\":2285:2332   */\n      mstore\n        /* \"#utility.yul\":2349:2427   */\n      tag_314\n        /* \"#utility.yul\":2422:2426   */\n      dup2\n        /* \"#utility.yul\":2413:2419   */\n      dup7\n        /* \"#utility.yul\":2349:2427   */\n      tag_230\n      jump\t// in\n    tag_314:\n        /* \"#utility.yul\":2341:2427   */\n      swap1\n      pop\n        /* \"#utility.yul\":2437:2509   */\n      tag_315\n        /* \"#utility.yul\":2505:2507   */\n      0x20\n        /* \"#utility.yul\":2494:2503   */\n      dup4\n        /* \"#utility.yul\":2490:2508   */\n      add\n        /* \"#utility.yul\":2481:2487   */\n      dup6\n        /* \"#utility.yul\":2437:2509   */\n      tag_231\n      jump\t// in\n    tag_315:\n        /* \"#utility.yul\":2519:2591   */\n      tag_316\n        /* \"#utility.yul\":2587:2589   */\n      0x40\n        /* \"#utility.yul\":2576:2585   */\n      dup4\n        /* \"#utility.yul\":2572:2590   */\n      add\n        /* \"#utility.yul\":2563:2569   */\n      dup5\n        /* \"#utility.yul\":2519:2591   */\n      tag_231\n      jump\t// in\n    tag_316:\n        /* \"#utility.yul\":2065:2598   */\n      swap5\n      swap4\n      pop\n      pop\n      pop\n      pop\n      jump\t// out\n        /* \"#utility.yul\":2604:2917   */\n    tag_31:\n        /* \"#utility.yul\":2717:2721   */\n      0x00\n        /* \"#utility.yul\":2755:2757   */\n      0x20\n        /* \"#utility.yul\":2744:2753   */\n      dup3\n        /* \"#utility.yul\":2740:2758   */\n      add\n        /* \"#utility.yul\":2732:2758   */\n      swap1\n      pop\n        /* \"#utility.yul\":2804:2813   */\n      dup2\n        /* \"#utility.yul\":2798:2802   */\n      dup2\n        /* \"#utility.yul\":2794:2814   */\n      sub\n        /* \"#utility.yul\":2790:2791   */\n      0x00\n        /* \"#utility.yul\":2779:2788   */\n      dup4\n        /* \"#utility.yul\":2775:2792   */\n      add\n        /* \"#utility.yul\":2768:2815   */\n      mstore\n        /* \"#utility.yul\":2832:2910   */\n      tag_318\n        /* \"#utility.yul\":2905:2909   */\n      dup2\n        /* \"#utility.yul\":2896:2902   */\n      dup5\n        /* \"#utility.yul\":2832:2910   */\n      tag_230\n      jump\t// in\n    tag_318:\n        /* \"#utility.yul\":2824:2910   */\n      swap1\n      pop\n        /* \"#utility.yul\":2604:2917   */\n      swap3\n      swap2\n      pop\n      pop\n      jump\t// out\n        /* \"#utility.yul\":2923:3145   */\n    tag_36:\n        /* \"#utility.yul\":3016:3020   */\n      0x00\n        /* \"#utility.yul\":3054:3056   */\n      0x20\n        /* \"#utility.yul\":3043:3052   */\n      dup3\n        /* \"#utility.yul\":3039:3057   */\n      add\n        /* \"#utility.yul\":3031:3057   */\n      swap1\n      pop\n        /* \"#utility.yul\":3067:3138   */\n      tag_320\n        /* \"#utility.yul\":3135:3136   */\n      0x00\n        /* \"#utility.yul\":3124:3133   */\n      dup4\n        /* \"#utility.yul\":3120:3137   */\n      add\n        /* \"#utility.yul\":3111:3117   */\n      dup5\n        /* \"#utility.yul\":3067:3138   */\n      tag_231\n      jump\t// in\n    tag_320:\n        /* \"#utility.yul\":2923:3145   */\n      swap3\n      swap2\n      pop\n      pop\n      jump\t// out\n        /* \"#utility.yul\":3151:3277   */\n    tag_232:\n        /* \"#utility.yul\":3188:3195   */\n      0x00\n        /* \"#utility.yul\":3228:3270   */\n      0xffffffffffffffffffffffffffffffffffffffff\n        /* \"#utility.yul\":3221:3226   */\n      dup3\n        /* \"#utility.yul\":3217:3271   */\n      and\n        /* \"#utility.yul\":3206:3271   */\n      swap1\n      pop\n        /* \"#utility.yul\":3151:3277   */\n      swap2\n      swap1\n      pop\n      jump\t// out\n        /* \"#utility.yul\":3283:3379   */\n    tag_233:\n        /* \"#utility.yul\":3320:3327   */\n      0x00\n        /* \"#utility.yul\":3349:3373   */\n      tag_323\n        /* \"#utility.yul\":3367:3372   */\n      dup3\n        /* \"#utility.yul\":3349:3373   */\n      tag_232\n      jump\t// in\n    tag_323:\n        /* \"#utility.yul\":3338:3373   */\n      swap1\n      pop\n        /* \"#utility.yul\":3283:3379   */\n      swap2\n      swap1\n      pop\n      jump\t// out\n        /* \"#utility.yul\":3385:3507   */\n    tag_234:\n        /* \"#utility.yul\":3458:3482   */\n      tag_325\n        /* \"#utility.yul\":3476:3481   */\n      dup2\n        /* \"#utility.yul\":3458:3482   */\n      tag_233\n      jump\t// in\n    tag_325:\n        /* \"#utility.yul\":3451:3456   */\n      dup2\n        /* \"#utility.yul\":3448:3483   */\n      eq\n        /* \"#utility.yul\":3438:3501   */\n      tag_326\n      jumpi\n        /* \"#utility.yul\":3497:3498   */\n      0x00\n        /* \"#utility.yul\":3494:3495   */\n      0x00\n        /* \"#utility.yul\":3487:3499   */\n      revert\n        /* \"#utility.yul\":3438:3501   */\n    tag_326:\n        /* \"#utility.yul\":3385:3507   */\n      pop\n      jump\t// out\n        /* \"#utility.yul\":3513:3652   */\n    tag_235:\n        /* \"#utility.yul\":3559:3564   */\n      0x00\n        /* \"#utility.yul\":3597:3603   */\n      dup2\n        /* \"#utility.yul\":3584:3604   */\n      calldataload\n        /* \"#utility.yul\":3575:3604   */\n      swap1\n      pop\n        /* \"#utility.yul\":3613:3646   */\n      tag_328\n        /* \"#utility.yul\":3640:3645   */\n      dup2\n        /* \"#utility.yul\":3613:3646   */\n      tag_234\n      jump\t// in\n    tag_328:\n        /* \"#utility.yul\":3513:3652   */\n      swap3\n      swap2\n      pop\n      pop\n      jump\t// out\n        /* \"#utility.yul\":3658:4132   */\n    tag_62:\n        /* \"#utility.yul\":3726:3732   */\n      0x00\n        /* \"#utility.yul\":3734:3740   */\n      0x00\n        /* \"#utility.yul\":3783:3785   */\n      0x40\n        /* \"#utility.yul\":3771:3780   */\n      dup4\n        /* \"#utility.yul\":3762:3769   */\n      dup6\n        /* \"#utility.yul\":3758:3781   */\n      sub\n        /* \"#utility.yul\":3754:3786   */\n      slt\n        /* \"#utility.yul\":3751:3870   */\n      iszero\n      tag_330\n      jumpi\n        /* \"#utility.yul\":3789:3868   */\n      tag_331\n      tag_221\n      jump\t// in\n    tag_331:\n        /* \"#utility.yul\":3751:3870   */\n    tag_330:\n        /* \"#utility.yul\":3909:3910   */\n      0x00\n        /* \"#utility.yul\":3934:3987   */\n      tag_332\n        /* \"#utility.yul\":3979:3986   */\n      dup6\n        /* \"#utility.yul\":3970:3976   */\n      dup3\n        /* \"#utility.yul\":3959:3968   */\n      dup7\n        /* \"#utility.yul\":3955:3977   */\n      add\n        /* \"#utility.yul\":3934:3987   */\n      tag_235\n      jump\t// in\n    tag_332:\n        /* \"#utility.yul\":3924:3987   */\n      swap3\n      pop\n        /* \"#utility.yul\":3880:3997   */\n      pop\n        /* \"#utility.yul\":4036:4038   */\n      0x20\n        /* \"#utility.yul\":4062:4115   */\n      tag_333\n        /* \"#utility.yul\":4107:4114   */\n      dup6\n        /* \"#utility.yul\":4098:4104   */\n      dup3\n        /* \"#utility.yul\":4087:4096   */\n      dup7\n        /* \"#utility.yul\":4083:4105   */\n      add\n        /* \"#utility.yul\":4062:4115   */\n      tag_225\n      jump\t// in\n    tag_333:\n        /* \"#utility.yul\":4052:4115   */\n      swap2\n      pop\n        /* \"#utility.yul\":4007:4125   */\n      pop\n        /* \"#utility.yul\":3658:4132   */\n      swap3\n      pop\n      swap3\n      swap1\n      pop\n      jump\t// out\n        /* \"#utility.yul\":4138:4228   */\n    tag_236:\n        /* \"#utility.yul\":4172:4179   */\n      0x00\n        /* \"#utility.yul\":4215:4220   */\n      dup2\n        /* \"#utility.yul\":4208:4221   */\n      iszero\n        /* \"#utility.yul\":4201:4222   */\n      iszero\n        /* \"#utility.yul\":4190:4222   */\n      swap1\n      pop\n        /* \"#utility.yul\":4138:4228   */\n      swap2\n      swap1\n      pop\n      jump\t// out\n        /* \"#utility.yul\":4234:4343   */\n    tag_237:\n        /* \"#utility.yul\":4315:4336   */\n      tag_336\n        /* \"#utility.yul\":4330:4335   */\n      dup2\n        /* \"#utility.yul\":4315:4336   */\n      tag_236\n      jump\t// in\n    tag_336:\n        /* \"#utility.yul\":4310:4313   */\n      dup3\n        /* \"#utility.yul\":4303:4337   */\n      mstore\n        /* \"#utility.yul\":4234:4343   */\n      pop\n      pop\n      jump\t// out\n        /* \"#utility.yul\":4349:4559   */\n    tag_65:\n        /* \"#utility.yul\":4436:4440   */\n      0x00\n        /* \"#utility.yul\":4474:4476   */\n      0x20\n        /* \"#utility.yul\":4463:4472   */\n      dup3\n        /* \"#utility.yul\":4459:4477   */\n      add\n        /* \"#utility.yul\":4451:4477   */\n      swap1\n      pop\n        /* \"#utility.yul\":4487:4552   */\n      tag_338\n        /* \"#utility.yul\":4549:4550   */\n      0x00\n        /* \"#utility.yul\":4538:4547   */\n      dup4\n        /* \"#utility.yul\":4534:4551   */\n      add\n        /* \"#utility.yul\":4525:4531   */\n      dup5\n        /* \"#utility.yul\":4487:4552   */\n      tag_237\n      jump\t// in\n    tag_338:\n        /* \"#utility.yul\":4349:4559   */\n      swap3\n      swap2\n      pop\n      pop\n      jump\t// out\n        /* \"#utility.yul\":4565:4683   */\n    tag_238:\n        /* \"#utility.yul\":4652:4676   */\n      tag_340\n        /* \"#utility.yul\":4670:4675   */\n      dup2\n        /* \"#utility.yul\":4652:4676   */\n      tag_233\n      jump\t// in\n    tag_340:\n        /* \"#utility.yul\":4647:4650   */\n      dup3\n        /* \"#utility.yul\":4640:4677   */\n      mstore\n        /* \"#utility.yul\":4565:4683   */\n      pop\n      pop\n      jump\t// out\n        /* \"#utility.yul\":4689:4911   */\n    tag_70:\n        /* \"#utility.yul\":4782:4786   */\n      0x00\n        /* \"#utility.yul\":4820:4822   */\n      0x20\n        /* \"#utility.yul\":4809:4818   */\n      dup3\n        /* \"#utility.yul\":4805:4823   */\n      add\n        /* \"#utility.yul\":4797:4823   */\n      swap1\n      pop\n        /* \"#utility.yul\":4833:4904   */\n      tag_342\n        /* \"#utility.yul\":4901:4902   */\n      0x00\n        /* \"#utility.yul\":4890:4899   */\n      dup4\n        /* \"#utility.yul\":4886:4903   */\n      add\n        /* \"#utility.yul\":4877:4883   */\n      dup5\n        /* \"#utility.yul\":4833:4904   */\n      tag_238\n      jump\t// in\n    tag_342:\n        /* \"#utility.yul\":4689:4911   */\n      swap3\n      swap2\n      pop\n      pop\n      jump\t// out\n        /* \"#utility.yul\":4917:5034   */\n    tag_239:\n        /* \"#utility.yul\":5026:5027   */\n      0x00\n        /* \"#utility.yul\":5023:5024   */\n      0x00\n        /* \"#utility.yul\":5016:5028   */\n      revert\n        /* \"#utility.yul\":5040:5157   */\n    tag_240:\n        /* \"#utility.yul\":5149:5150   */\n      0x00\n        /* \"#utility.yul\":5146:5147   */\n      0x00\n        /* \"#utility.yul\":5139:5151   */\n      revert\n        /* \"#utility.yul\":5163:5343   */\n    tag_241:\n        /* \"#utility.yul\":5211:5288   */\n      0x4e487b7100000000000000000000000000000000000000000000000000000000\n        /* \"#utility.yul\":5208:5209   */\n      0x00\n        /* \"#utility.yul\":5201:5289   */\n      mstore\n        /* \"#utility.yul\":5308:5312   */\n      0x41\n        /* \"#utility.yul\":5305:5306   */\n      0x04\n        /* \"#utility.yul\":5298:5313   */\n      mstore\n        /* \"#utility.yul\":5332:5336   */\n      0x24\n        /* \"#utility.yul\":5329:5330   */\n      0x00\n        /* \"#utility.yul\":5322:5337   */\n      revert\n        /* \"#utility.yul\":5349:5630   */\n    tag_242:\n        /* \"#utility.yul\":5432:5459   */\n      tag_347\n        /* \"#utility.yul\":5454:5458   */\n      dup3\n        /* \"#utility.yul\":5432:5459   */\n      tag_229\n      jump\t// in\n    tag_347:\n        /* \"#utility.yul\":5424:5430   */\n      dup2\n        /* \"#utility.yul\":5420:5460   */\n      add\n        /* \"#utility.yul\":5562:5568   */\n      dup2\n        /* \"#utility.yul\":5550:5560   */\n      dup2\n        /* \"#utility.yul\":5547:5569   */\n      lt\n        /* \"#utility.yul\":5526:5544   */\n      0xffffffffffffffff\n        /* \"#utility.yul\":5514:5524   */\n      dup3\n        /* \"#utility.yul\":5511:5545   */\n      gt\n        /* \"#utility.yul\":5508:5570   */\n      or\n        /* \"#utility.yul\":5505:5593   */\n      iszero\n      tag_348\n      jumpi\n        /* \"#utility.yul\":5573:5591   */\n      tag_349\n      tag_241\n      jump\t// in\n    tag_349:\n        /* \"#utility.yul\":5505:5593   */\n    tag_348:\n        /* \"#utility.yul\":5613:5623   */\n      dup1\n        /* \"#utility.yul\":5609:5611   */\n      0x40\n        /* \"#utility.yul\":5602:5624   */\n      mstore\n        /* \"#utility.yul\":5392:5630   */\n      pop\n        /* \"#utility.yul\":5349:5630   */\n      pop\n      pop\n      jump\t// out\n        /* \"#utility.yul\":5636:5765   */\n    tag_243:\n        /* \"#utility.yul\":5670:5676   */\n      0x00\n        /* \"#utility.yul\":5697:5717   */\n      tag_351\n      tag_220\n      jump\t// in\n    tag_351:\n        /* \"#utility.yul\":5687:5717   */\n      swap1\n      pop\n        /* \"#utility.yul\":5726:5759   */\n      tag_352\n        /* \"#utility.yul\":5754:5758   */\n      dup3\n        /* \"#utility.yul\":5746:5752   */\n      dup3\n        /* \"#utility.yul\":5726:5759   */\n      tag_242\n      jump\t// in\n    tag_352:\n        /* \"#utility.yul\":5636:5765   */\n      swap2\n      swap1\n      pop\n      jump\t// out\n        /* \"#utility.yul\":5771:6079   */\n    tag_244:\n        /* \"#utility.yul\":5833:5837   */\n      0x00\n        /* \"#utility.yul\":5923:5941   */\n      0xffffffffffffffff\n        /* \"#utility.yul\":5915:5921   */\n      dup3\n        /* \"#utility.yul\":5912:5942   */\n      gt\n        /* \"#utility.yul\":5909:5965   */\n      iszero\n      tag_354\n      jumpi\n        /* \"#utility.yul\":5945:5963   */\n      tag_355\n      tag_241\n      jump\t// in\n    tag_355:\n        /* \"#utility.yul\":5909:5965   */\n    tag_354:\n        /* \"#utility.yul\":5983:6012   */\n      tag_356\n        /* \"#utility.yul\":6005:6011   */\n      dup3\n        /* \"#utility.yul\":5983:6012   */\n      tag_229\n      jump\t// in\n    tag_356:\n        /* \"#utility.yul\":5975:6012   */\n      swap1\n      pop\n        /* \"#utility.yul\":6067:6071   */\n      0x20\n        /* \"#utility.yul\":6061:6065   */\n      dup2\n        /* \"#utility.yul\":6057:6072   */\n      add\n        /* \"#utility.yul\":6049:6072   */\n      swap1\n      pop\n        /* \"#utility.yul\":5771:6079   */\n      swap2\n      swap1\n      pop\n      jump\t// out\n        /* \"#utility.yul\":6085:6233   */\n    tag_245:\n        /* \"#utility.yul\":6183:6189   */\n      dup3\n        /* \"#utility.yul\":6178:6181   */\n      dup2\n        /* \"#utility.yul\":6173:6176   */\n      dup4\n        /* \"#utility.yul\":6160:6190   */\n      calldatacopy\n        /* \"#utility.yul\":6224:6225   */\n      0x00\n        /* \"#utility.yul\":6215:6221   */\n      dup4\n        /* \"#utility.yul\":6210:6213   */\n      dup4\n        /* \"#utility.yul\":6206:6222   */\n      add\n        /* \"#utility.yul\":6199:6226   */\n      mstore\n        /* \"#utility.yul\":6085:6233   */\n      pop\n      pop\n      pop\n      jump\t// out\n        /* \"#utility.yul\":6239:6664   */\n    tag_246:\n        /* \"#utility.yul\":6317:6322   */\n      0x00\n        /* \"#utility.yul\":6342:6408   */\n      tag_359\n        /* \"#utility.yul\":6358:6407   */\n      tag_360\n        /* \"#utility.yul\":6400:6406   */\n      dup5\n        /* \"#utility.yul\":6358:6407   */\n      tag_244\n      jump\t// in\n    tag_360:\n        /* \"#utility.yul\":6342:6408   */\n      tag_243\n      jump\t// in\n    tag_359:\n        /* \"#utility.yul\":6333:6408   */\n      swap1\n      pop\n        /* \"#utility.yul\":6431:6437   */\n      dup3\n        /* \"#utility.yul\":6424:6429   */\n      dup2\n        /* \"#utility.yul\":6417:6438   */\n      mstore\n        /* \"#utility.yul\":6469:6473   */\n      0x20\n        /* \"#utility.yul\":6462:6467   */\n      dup2\n        /* \"#utility.yul\":6458:6474   */\n      add\n        /* \"#utility.yul\":6507:6510   */\n      dup5\n        /* \"#utility.yul\":6498:6504   */\n      dup5\n        /* \"#utility.yul\":6493:6496   */\n      dup5\n        /* \"#utility.yul\":6489:6505   */\n      add\n        /* \"#utility.yul\":6486:6511   */\n      gt\n        /* \"#utility.yul\":6483:6595   */\n      iszero\n      tag_361\n      jumpi\n        /* \"#utility.yul\":6514:6593   */\n      tag_362\n      tag_240\n      jump\t// in\n    tag_362:\n        /* \"#utility.yul\":6483:6595   */\n    tag_361:\n        /* \"#utility.yul\":6604:6658   */\n      tag_363\n        /* \"#utility.yul\":6651:6657   */\n      dup5\n        /* \"#utility.yul\":6646:6649   */\n      dup3\n        /* \"#utility.yul\":6641:6644   */\n      dup6\n        /* \"#utility.yul\":6604:6658   */\n      tag_245\n      jump\t// in\n    tag_363:\n        /* \"#utility.yul\":6323:6664   */\n      pop\n        /* \"#utility.yul\":6239:6664   */\n      swap4\n      swap3\n      pop\n      pop\n      pop\n      jump\t// out\n        /* \"#utility.yul\":6684:7024   */\n    tag_247:\n        /* \"#utility.yul\":6740:6745   */\n      0x00\n        /* \"#utility.yul\":6789:6792   */\n      dup3\n        /* \"#utility.yul\":6782:6786   */\n      0x1f\n        /* \"#utility.yul\":6774:6780   */\n      dup4\n        /* \"#utility.yul\":6770:6787   */\n      add\n        /* \"#utility.yul\":6766:6793   */\n      slt\n        /* \"#utility.yul\":6756:6878   */\n      tag_365\n      jumpi\n        /* \"#utility.yul\":6797:6876   */\n      tag_366\n      tag_239\n      jump\t// in\n    tag_366:\n        /* \"#utility.yul\":6756:6878   */\n    tag_365:\n        /* \"#utility.yul\":6914:6920   */\n      dup2\n        /* \"#utility.yul\":6901:6921   */\n      calldataload\n        /* \"#utility.yul\":6939:7018   */\n      tag_367\n        /* \"#utility.yul\":7014:7017   */\n      dup5\n        /* \"#utility.yul\":7006:7012   */\n      dup3\n        /* \"#utility.yul\":6999:7003   */\n      0x20\n        /* \"#utility.yul\":6991:6997   */\n      dup7\n        /* \"#utility.yul\":6987:7004   */\n      add\n        /* \"#utility.yul\":6939:7018   */\n      tag_246\n      jump\t// in\n    tag_367:\n        /* \"#utility.yul\":6930:7018   */\n      swap2\n      pop\n        /* \"#utility.yul\":6746:7024   */\n      pop\n        /* \"#utility.yul\":6684:7024   */\n      swap3\n      swap2\n      pop\n      pop\n      jump\t// out\n        /* \"#utility.yul\":7030:7684   */\n    tag_74:\n        /* \"#utility.yul\":7108:7114   */\n      0x00\n        /* \"#utility.yul\":7116:7122   */\n      0x00\n        /* \"#utility.yul\":7165:7167   */\n      0x40\n        /* \"#utility.yul\":7153:7162   */\n      dup4\n        /* \"#utility.yul\":7144:7151   */\n      dup6\n        /* \"#utility.yul\":7140:7163   */\n      sub\n        /* \"#utility.yul\":7136:7168   */\n      slt\n        /* \"#utility.yul\":7133:7252   */\n      iszero\n      tag_369\n      jumpi\n        /* \"#utility.yul\":7171:7250   */\n      tag_370\n      tag_221\n      jump\t// in\n    tag_370:\n        /* \"#utility.yul\":7133:7252   */\n    tag_369:\n        /* \"#utility.yul\":7319:7320   */\n      0x00\n        /* \"#utility.yul\":7308:7317   */\n      dup4\n        /* \"#utility.yul\":7304:7321   */\n      add\n        /* \"#utility.yul\":7291:7322   */\n      calldataload\n        /* \"#utility.yul\":7349:7367   */\n      0xffffffffffffffff\n        /* \"#utility.yul\":7341:7347   */\n      dup2\n        /* \"#utility.yul\":7338:7368   */\n      gt\n        /* \"#utility.yul\":7335:7452   */\n      iszero\n      tag_371\n      jumpi\n        /* \"#utility.yul\":7371:7450   */\n      tag_372\n      tag_222\n      jump\t// in\n    tag_372:\n        /* \"#utility.yul\":7335:7452   */\n    tag_371:\n        /* \"#utility.yul\":7476:7539   */\n      tag_373\n        /* \"#utility.yul\":7531:7538   */\n      dup6\n        /* \"#utility.yul\":7522:7528   */\n      dup3\n        /* \"#utility.yul\":7511:7520   */\n      dup7\n        /* \"#utility.yul\":7507:7529   */\n      add\n        /* \"#utility.yul\":7476:7539   */\n      tag_247\n      jump\t// in\n    tag_373:\n        /* \"#utility.yul\":7466:7539   */\n      swap3\n      pop\n        /* \"#utility.yul\":7262:7549   */\n      pop\n        /* \"#utility.yul\":7588:7590   */\n      0x20\n        /* \"#utility.yul\":7614:7667   */\n      tag_374\n        /* \"#utility.yul\":7659:7666   */\n      dup6\n        /* \"#utility.yul\":7650:7656   */\n      dup3\n        /* \"#utility.yul\":7639:7648   */\n      dup7\n        /* \"#utility.yul\":7635:7657   */\n      add\n        /* \"#utility.yul\":7614:7667   */\n      tag_225\n      jump\t// in\n    tag_374:\n        /* \"#utility.yul\":7604:7667   */\n      swap2\n      pop\n        /* \"#utility.yul\":7559:7677   */\n      pop\n        /* \"#utility.yul\":7030:7684   */\n      swap3\n      pop\n      swap3\n      swap1\n      pop\n      jump\t// out\n        /* \"#utility.yul\":7690:8019   */\n    tag_79:\n        /* \"#utility.yul\":7749:7755   */\n      0x00\n        /* \"#utility.yul\":7798:7800   */\n      0x20\n        /* \"#utility.yul\":7786:7795   */\n      dup3\n        /* \"#utility.yul\":7777:7784   */\n      dup5\n        /* \"#utility.yul\":7773:7796   */\n      sub\n        /* \"#utility.yul\":7769:7801   */\n      slt\n        /* \"#utility.yul\":7766:7885   */\n      iszero\n      tag_376\n      jumpi\n        /* \"#utility.yul\":7804:7883   */\n      tag_377\n      tag_221\n      jump\t// in\n    tag_377:\n        /* \"#utility.yul\":7766:7885   */\n    tag_376:\n        /* \"#utility.yul\":7924:7925   */\n      0x00\n        /* \"#utility.yul\":7949:8002   */\n      tag_378\n        /* \"#utility.yul\":7994:8001   */\n      dup5\n        /* \"#utility.yul\":7985:7991   */\n      dup3\n        /* \"#utility.yul\":7974:7983   */\n      dup6\n        /* \"#utility.yul\":7970:7992   */\n      add\n        /* \"#utility.yul\":7949:8002   */\n      tag_235\n      jump\t// in\n    tag_378:\n        /* \"#utility.yul\":7939:8002   */\n      swap2\n      pop\n        /* \"#utility.yul\":7895:8012   */\n      pop\n        /* \"#utility.yul\":7690:8019   */\n      swap3\n      swap2\n      pop\n      pop\n      jump\t// out\n        /* \"#utility.yul\":8025:8205   */\n    tag_112:\n        /* \"#utility.yul\":8073:8150   */\n      0x4e487b7100000000000000000000000000000000000000000000000000000000\n        /* \"#utility.yul\":8070:8071   */\n      0x00\n        /* \"#utility.yul\":8063:8151   */\n      mstore\n        /* \"#utility.yul\":8170:8174   */\n      0x21\n        /* \"#utility.yul\":8167:8168   */\n      0x04\n        /* \"#utility.yul\":8160:8175   */\n      mstore\n        /* \"#utility.yul\":8194:8198   */\n      0x24\n        /* \"#utility.yul\":8191:8192   */\n      0x00\n        /* \"#utility.yul\":8184:8199   */\n      revert\n        /* \"#utility.yul\":8211:8332   */\n    tag_248:\n        /* \"#utility.yul\":8300:8301   */\n      0x03\n        /* \"#utility.yul\":8293:8298   */\n      dup2\n        /* \"#utility.yul\":8290:8302   */\n      lt\n        /* \"#utility.yul\":8280:8326   */\n      tag_381\n      jumpi\n        /* \"#utility.yul\":8306:8324   */\n      tag_382\n      tag_112\n      jump\t// in\n    tag_382:\n        /* \"#utility.yul\":8280:8326   */\n    tag_381:\n        /* \"#utility.yul\":8211:8332   */\n      pop\n      jump\t// out\n        /* \"#utility.yul\":8338:8481   */\n    tag_249:\n        /* \"#utility.yul\":8391:8398   */\n      0x00\n        /* \"#utility.yul\":8420:8425   */\n      dup2\n        /* \"#utility.yul\":8409:8425   */\n      swap1\n      pop\n        /* \"#utility.yul\":8426:8475   */\n      tag_384\n        /* \"#utility.yul\":8469:8474   */\n      dup3\n        /* \"#utility.yul\":8426:8475   */\n      tag_248\n      jump\t// in\n    tag_384:\n        /* \"#utility.yul\":8338:8481   */\n      swap2\n      swap1\n      pop\n      jump\t// out\n        /* \"#utility.yul\":8487:8630   */\n    tag_250:\n        /* \"#utility.yul\":8551:8560   */\n      0x00\n        /* \"#utility.yul\":8584:8624   */\n      tag_386\n        /* \"#utility.yul\":8618:8623   */\n      dup3\n        /* \"#utility.yul\":8584:8624   */\n      tag_249\n      jump\t// in\n    tag_386:\n        /* \"#utility.yul\":8571:8624   */\n      swap1\n      pop\n        /* \"#utility.yul\":8487:8630   */\n      swap2\n      swap1\n      pop\n      jump\t// out\n        /* \"#utility.yul\":8636:8795   */\n    tag_251:\n        /* \"#utility.yul\":8737:8788   */\n      tag_388\n        /* \"#utility.yul\":8782:8787   */\n      dup2\n        /* \"#utility.yul\":8737:8788   */\n      tag_250\n      jump\t// in\n    tag_388:\n        /* \"#utility.yul\":8732:8735   */\n      dup3\n        /* \"#utility.yul\":8725:8789   */\n      mstore\n        /* \"#utility.yul\":8636:8795   */\n      pop\n      pop\n      jump\t// out\n        /* \"#utility.yul\":8801:9051   */\n    tag_86:\n        /* \"#utility.yul\":8908:8912   */\n      0x00\n        /* \"#utility.yul\":8946:8948   */\n      0x20\n        /* \"#utility.yul\":8935:8944   */\n      dup3\n        /* \"#utility.yul\":8931:8949   */\n      add\n        /* \"#utility.yul\":8923:8949   */\n      swap1\n      pop\n        /* \"#utility.yul\":8959:9044   */\n      tag_390\n        /* \"#utility.yul\":9041:9042   */\n      0x00\n        /* \"#utility.yul\":9030:9039   */\n      dup4\n        /* \"#utility.yul\":9026:9043   */\n      add\n        /* \"#utility.yul\":9017:9023   */\n      dup5\n        /* \"#utility.yul\":8959:9044   */\n      tag_251\n      jump\t// in\n    tag_390:\n        /* \"#utility.yul\":8801:9051   */\n      swap3\n      swap2\n      pop\n      pop\n      jump\t// out\n        /* \"#utility.yul\":9057:9237   */\n    tag_252:\n        /* \"#utility.yul\":9105:9182   */\n      0x4e487b7100000000000000000000000000000000000000000000000000000000\n        /* \"#utility.yul\":9102:9103   */\n      0x00\n        /* \"#utility.yul\":9095:9183   */\n      mstore\n        /* \"#utility.yul\":9202:9206   */\n      0x22\n        /* \"#utility.yul\":9199:9200   */\n      0x04\n        /* \"#utility.yul\":9192:9207   */\n      mstore\n        /* \"#utility.yul\":9226:9230   */\n      0x24\n        /* \"#utility.yul\":9223:9224   */\n      0x00\n        /* \"#utility.yul\":9216:9231   */\n      revert\n        /* \"#utility.yul\":9243:9563   */\n    tag_93:\n        /* \"#utility.yul\":9287:9293   */\n      0x00\n        /* \"#utility.yul\":9324:9325   */\n      0x02\n        /* \"#utility.yul\":9318:9322   */\n      dup3\n        /* \"#utility.yul\":9314:9326   */\n      div\n        /* \"#utility.yul\":9304:9326   */\n      swap1\n      pop\n        /* \"#utility.yul\":9371:9372   */\n      0x01\n        /* \"#utility.yul\":9365:9369   */\n      dup3\n        /* \"#utility.yul\":9361:9373   */\n      and\n        /* \"#utility.yul\":9392:9410   */\n      dup1\n        /* \"#utility.yul\":9382:9463   */\n      tag_393\n      jumpi\n        /* \"#utility.yul\":9448:9452   */\n      0x7f\n        /* \"#utility.yul\":9440:9446   */\n      dup3\n        /* \"#utility.yul\":9436:9453   */\n      and\n        /* \"#utility.yul\":9426:9453   */\n      swap2\n      pop\n        /* \"#utility.yul\":9382:9463   */\n    tag_393:\n        /* \"#utility.yul\":9510:9512   */\n      0x20\n        /* \"#utility.yul\":9502:9508   */\n      dup3\n        /* \"#utility.yul\":9499:9513   */\n      lt\n        /* \"#utility.yul\":9479:9497   */\n      dup2\n        /* \"#utility.yul\":9476:9514   */\n      sub\n        /* \"#utility.yul\":9473:9557   */\n      tag_394\n      jumpi\n        /* \"#utility.yul\":9529:9547   */\n      tag_395\n      tag_252\n      jump\t// in\n    tag_395:\n        /* \"#utility.yul\":9473:9557   */\n    tag_394:\n        /* \"#utility.yul\":9294:9563   */\n      pop\n        /* \"#utility.yul\":9243:9563   */\n      swap2\n      swap1\n      pop\n      jump\t// out\n        /* \"#utility.yul\":9569:9751   */\n    tag_253:\n        /* \"#utility.yul\":9709:9743   */\n      0x54686520636f6e7472616374206973206e6f74206f776e656420627920746865\n        /* \"#utility.yul\":9705:9706   */\n      0x00\n        /* \"#utility.yul\":9697:9703   */\n      dup3\n        /* \"#utility.yul\":9693:9707   */\n      add\n        /* \"#utility.yul\":9686:9744   */\n      mstore\n        /* \"#utility.yul\":9569:9751   */\n      pop\n      jump\t// out\n        /* \"#utility.yul\":9757:10123   */\n    tag_254:\n        /* \"#utility.yul\":9899:9902   */\n      0x00\n        /* \"#utility.yul\":9920:9987   */\n      tag_398\n        /* \"#utility.yul\":9984:9986   */\n      0x20\n        /* \"#utility.yul\":9979:9982   */\n      dup4\n        /* \"#utility.yul\":9920:9987   */\n      tag_227\n      jump\t// in\n    tag_398:\n        /* \"#utility.yul\":9913:9987   */\n      swap2\n      pop\n        /* \"#utility.yul\":9996:10089   */\n      tag_399\n        /* \"#utility.yul\":10085:10088   */\n      dup3\n        /* \"#utility.yul\":9996:10089   */\n      tag_253\n      jump\t// in\n    tag_399:\n        /* \"#utility.yul\":10114:10116   */\n      0x20\n        /* \"#utility.yul\":10109:10112   */\n      dup3\n        /* \"#utility.yul\":10105:10117   */\n      add\n        /* \"#utility.yul\":10098:10117   */\n      swap1\n      pop\n        /* \"#utility.yul\":9757:10123   */\n      swap2\n      swap1\n      pop\n      jump\t// out\n        /* \"#utility.yul\":10129:10548   */\n    tag_106:\n        /* \"#utility.yul\":10295:10299   */\n      0x00\n        /* \"#utility.yul\":10333:10335   */\n      0x20\n        /* \"#utility.yul\":10322:10331   */\n      dup3\n        /* \"#utility.yul\":10318:10336   */\n      add\n        /* \"#utility.yul\":10310:10336   */\n      swap1\n      pop\n        /* \"#utility.yul\":10382:10391   */\n      dup2\n        /* \"#utility.yul\":10376:10380   */\n      dup2\n        /* \"#utility.yul\":10372:10392   */\n      sub\n        /* \"#utility.yul\":10368:10369   */\n      0x00\n        /* \"#utility.yul\":10357:10366   */\n      dup4\n        /* \"#utility.yul\":10353:10370   */\n      add\n        /* \"#utility.yul\":10346:10393   */\n      mstore\n        /* \"#utility.yul\":10410:10541   */\n      tag_401\n        /* \"#utility.yul\":10536:10540   */\n      dup2\n        /* \"#utility.yul\":10410:10541   */\n      tag_254\n      jump\t// in\n    tag_401:\n        /* \"#utility.yul\":10402:10541   */\n      swap1\n      pop\n        /* \"#utility.yul\":10129:10548   */\n      swap2\n      swap1\n      pop\n      jump\t// out\n        /* \"#utility.yul\":10554:10731   */\n    tag_255:\n        /* \"#utility.yul\":10694:10723   */\n      0x43616d706169676e206973206e6f74207375636365737366756c2e0000000000\n        /* \"#utility.yul\":10690:10691   */\n      0x00\n        /* \"#utility.yul\":10682:10688   */\n      dup3\n        /* \"#utility.yul\":10678:10692   */\n      add\n        /* \"#utility.yul\":10671:10724   */\n      mstore\n        /* \"#utility.yul\":10554:10731   */\n      pop\n      jump\t// out\n        /* \"#utility.yul\":10737:11103   */\n    tag_256:\n        /* \"#utility.yul\":10879:10882   */\n      0x00\n        /* \"#utility.yul\":10900:10967   */\n      tag_404\n        /* \"#utility.yul\":10964:10966   */\n      0x1b\n        /* \"#utility.yul\":10959:10962   */\n      dup4\n        /* \"#utility.yul\":10900:10967   */\n      tag_227\n      jump\t// in\n    tag_404:\n        /* \"#utility.yul\":10893:10967   */\n      swap2\n      pop\n        /* \"#utility.yul\":10976:11069   */\n      tag_405\n        /* \"#utility.yul\":11065:11068   */\n      dup3\n        /* \"#utility.yul\":10976:11069   */\n      tag_255\n      jump\t// in\n    tag_405:\n        /* \"#utility.yul\":11094:11096   */\n      0x20\n        /* \"#utility.yul\":11089:11092   */\n      dup3\n        /* \"#utility.yul\":11085:11097   */\n      add\n        /* \"#utility.yul\":11078:11097   */\n      swap1\n      pop\n        /* \"#utility.yul\":10737:11103   */\n      swap2\n      swap1\n      pop\n      jump\t// out\n        /* \"#utility.yul\":11109:11528   */\n    tag_117:\n        /* \"#utility.yul\":11275:11279   */\n      0x00\n        /* \"#utility.yul\":11313:11315   */\n      0x20\n        /* \"#utility.yul\":11302:11311   */\n      dup3\n        /* \"#utility.yul\":11298:11316   */\n      add\n        /* \"#utility.yul\":11290:11316   */\n      swap1\n      pop\n        /* \"#utility.yul\":11362:11371   */\n      dup2\n        /* \"#utility.yul\":11356:11360   */\n      dup2\n        /* \"#utility.yul\":11352:11372   */\n      sub\n        /* \"#utility.yul\":11348:11349   */\n      0x00\n        /* \"#utility.yul\":11337:11346   */\n      dup4\n        /* \"#utility.yul\":11333:11350   */\n      add\n        /* \"#utility.yul\":11326:11373   */\n      mstore\n        /* \"#utility.yul\":11390:11521   */\n      tag_407\n        /* \"#utility.yul\":11516:11520   */\n      dup2\n        /* \"#utility.yul\":11390:11521   */\n      tag_256\n      jump\t// in\n    tag_407:\n        /* \"#utility.yul\":11382:11521   */\n      swap1\n      pop\n        /* \"#utility.yul\":11109:11528   */\n      swap2\n      swap1\n      pop\n      jump\t// out\n        /* \"#utility.yul\":11534:11706   */\n    tag_257:\n        /* \"#utility.yul\":11674:11698   */\n      0x4e6f2062616c616e636520746f20776974686472617700000000000000000000\n        /* \"#utility.yul\":11670:11671   */\n      0x00\n        /* \"#utility.yul\":11662:11668   */\n      dup3\n        /* \"#utility.yul\":11658:11672   */\n      add\n        /* \"#utility.yul\":11651:11699   */\n      mstore\n        /* \"#utility.yul\":11534:11706   */\n      pop\n      jump\t// out\n        /* \"#utility.yul\":11712:12078   */\n    tag_258:\n        /* \"#utility.yul\":11854:11857   */\n      0x00\n        /* \"#utility.yul\":11875:11942   */\n      tag_410\n        /* \"#utility.yul\":11939:11941   */\n      0x16\n        /* \"#utility.yul\":11934:11937   */\n      dup4\n        /* \"#utility.yul\":11875:11942   */\n      tag_227\n      jump\t// in\n    tag_410:\n        /* \"#utility.yul\":11868:11942   */\n      swap2\n      pop\n        /* \"#utility.yul\":11951:12044   */\n      tag_411\n        /* \"#utility.yul\":12040:12043   */\n      dup3\n        /* \"#utility.yul\":11951:12044   */\n      tag_257\n      jump\t// in\n    tag_411:\n        /* \"#utility.yul\":12069:12071   */\n      0x20\n        /* \"#utility.yul\":12064:12067   */\n      dup3\n        /* \"#utility.yul\":12060:12072   */\n      add\n        /* \"#utility.yul\":12053:12072   */\n      swap1\n      pop\n        /* \"#utility.yul\":11712:12078   */\n      swap2\n      swap1\n      pop\n      jump\t// out\n        /* \"#utility.yul\":12084:12503   */\n    tag_120:\n        /* \"#utility.yul\":12250:12254   */\n      0x00\n        /* \"#utility.yul\":12288:12290   */\n      0x20\n        /* \"#utility.yul\":12277:12286   */\n      dup3\n        /* \"#utility.yul\":12273:12291   */\n      add\n        /* \"#utility.yul\":12265:12291   */\n      swap1\n      pop\n        /* \"#utility.yul\":12337:12346   */\n      dup2\n        /* \"#utility.yul\":12331:12335   */\n      dup2\n        /* \"#utility.yul\":12327:12347   */\n      sub\n        /* \"#utility.yul\":12323:12324   */\n      0x00\n        /* \"#utility.yul\":12312:12321   */\n      dup4\n        /* \"#utility.yul\":12308:12325   */\n      add\n        /* \"#utility.yul\":12301:12348   */\n      mstore\n        /* \"#utility.yul\":12365:12496   */\n      tag_413\n        /* \"#utility.yul\":12491:12495   */\n      dup2\n        /* \"#utility.yul\":12365:12496   */\n      tag_258\n      jump\t// in\n    tag_413:\n        /* \"#utility.yul\":12357:12496   */\n      swap1\n      pop\n        /* \"#utility.yul\":12084:12503   */\n      swap2\n      swap1\n      pop\n      jump\t// out\n        /* \"#utility.yul\":12509:12684   */\n    tag_259:\n        /* \"#utility.yul\":12649:12676   */\n      0x4e6f20636f6e747269627574696f6e20746f20726566756e6400000000000000\n        /* \"#utility.yul\":12645:12646   */\n      0x00\n        /* \"#utility.yul\":12637:12643   */\n      dup3\n        /* \"#utility.yul\":12633:12647   */\n      add\n        /* \"#utility.yul\":12626:12677   */\n      mstore\n        /* \"#utility.yul\":12509:12684   */\n      pop\n      jump\t// out\n        /* \"#utility.yul\":12690:13056   */\n    tag_260:\n        /* \"#utility.yul\":12832:12835   */\n      0x00\n        /* \"#utility.yul\":12853:12920   */\n      tag_416\n        /* \"#utility.yul\":12917:12919   */\n      0x19\n        /* \"#utility.yul\":12912:12915   */\n      dup4\n        /* \"#utility.yul\":12853:12920   */\n      tag_227\n      jump\t// in\n    tag_416:\n        /* \"#utility.yul\":12846:12920   */\n      swap2\n      pop\n        /* \"#utility.yul\":12929:13022   */\n      tag_417\n        /* \"#utility.yul\":13018:13021   */\n      dup3\n        /* \"#utility.yul\":12929:13022   */\n      tag_259\n      jump\t// in\n    tag_417:\n        /* \"#utility.yul\":13047:13049   */\n      0x20\n        /* \"#utility.yul\":13042:13045   */\n      dup3\n        /* \"#utility.yul\":13038:13050   */\n      add\n        /* \"#utility.yul\":13031:13050   */\n      swap1\n      pop\n        /* \"#utility.yul\":12690:13056   */\n      swap2\n      swap1\n      pop\n      jump\t// out\n        /* \"#utility.yul\":13062:13481   */\n    tag_127:\n        /* \"#utility.yul\":13228:13232   */\n      0x00\n        /* \"#utility.yul\":13266:13268   */\n      0x20\n        /* \"#utility.yul\":13255:13264   */\n      dup3\n        /* \"#utility.yul\":13251:13269   */\n      add\n        /* \"#utility.yul\":13243:13269   */\n      swap1\n      pop\n        /* \"#utility.yul\":13315:13324   */\n      dup2\n        /* \"#utility.yul\":13309:13313   */\n      dup2\n        /* \"#utility.yul\":13305:13325   */\n      sub\n        /* \"#utility.yul\":13301:13302   */\n      0x00\n        /* \"#utility.yul\":13290:13299   */\n      dup4\n        /* \"#utility.yul\":13286:13303   */\n      add\n        /* \"#utility.yul\":13279:13326   */\n      mstore\n        /* \"#utility.yul\":13343:13474   */\n      tag_419\n        /* \"#utility.yul\":13469:13473   */\n      dup2\n        /* \"#utility.yul\":13343:13474   */\n      tag_260\n      jump\t// in\n    tag_419:\n        /* \"#utility.yul\":13335:13474   */\n      swap1\n      pop\n        /* \"#utility.yul\":13062:13481   */\n      swap2\n      swap1\n      pop\n      jump\t// out\n        /* \"#utility.yul\":13487:13656   */\n    tag_261:\n        /* \"#utility.yul\":13627:13648   */\n      0x5469657220646f6573206e6f7420657869737400000000000000000000000000\n        /* \"#utility.yul\":13623:13624   */\n      0x00\n        /* \"#utility.yul\":13615:13621   */\n      dup3\n        /* \"#utility.yul\":13611:13625   */\n      add\n        /* \"#utility.yul\":13604:13649   */\n      mstore\n        /* \"#utility.yul\":13487:13656   */\n      pop\n      jump\t// out\n        /* \"#utility.yul\":13662:14028   */\n    tag_262:\n        /* \"#utility.yul\":13804:13807   */\n      0x00\n        /* \"#utility.yul\":13825:13892   */\n      tag_422\n        /* \"#utility.yul\":13889:13891   */\n      0x13\n        /* \"#utility.yul\":13884:13887   */\n      dup4\n        /* \"#utility.yul\":13825:13892   */\n      tag_227\n      jump\t// in\n    tag_422:\n        /* \"#utility.yul\":13818:13892   */\n      swap2\n      pop\n        /* \"#utility.yul\":13901:13994   */\n      tag_423\n        /* \"#utility.yul\":13990:13993   */\n      dup3\n        /* \"#utility.yul\":13901:13994   */\n      tag_261\n      jump\t// in\n    tag_423:\n        /* \"#utility.yul\":14019:14021   */\n      0x20\n        /* \"#utility.yul\":14014:14017   */\n      dup3\n        /* \"#utility.yul\":14010:14022   */\n      add\n        /* \"#utility.yul\":14003:14022   */\n      swap1\n      pop\n        /* \"#utility.yul\":13662:14028   */\n      swap2\n      swap1\n      pop\n      jump\t// out\n        /* \"#utility.yul\":14034:14453   */\n    tag_142:\n        /* \"#utility.yul\":14200:14204   */\n      0x00\n        /* \"#utility.yul\":14238:14240   */\n      0x20\n        /* \"#utility.yul\":14227:14236   */\n      dup3\n        /* \"#utility.yul\":14223:14241   */\n      add\n        /* \"#utility.yul\":14215:14241   */\n      swap1\n      pop\n        /* \"#utility.yul\":14287:14296   */\n      dup2\n        /* \"#utility.yul\":14281:14285   */\n      dup2\n        /* \"#utility.yul\":14277:14297   */\n      sub\n        /* \"#utility.yul\":14273:14274   */\n      0x00\n        /* \"#utility.yul\":14262:14271   */\n      dup4\n        /* \"#utility.yul\":14258:14275   */\n      add\n        /* \"#utility.yul\":14251:14298   */\n      mstore\n        /* \"#utility.yul\":14315:14446   */\n      tag_425\n        /* \"#utility.yul\":14441:14445   */\n      dup2\n        /* \"#utility.yul\":14315:14446   */\n      tag_262\n      jump\t// in\n    tag_425:\n        /* \"#utility.yul\":14307:14446   */\n      swap1\n      pop\n        /* \"#utility.yul\":14034:14453   */\n      swap2\n      swap1\n      pop\n      jump\t// out\n        /* \"#utility.yul\":14459:14639   */\n    tag_263:\n        /* \"#utility.yul\":14507:14584   */\n      0x4e487b7100000000000000000000000000000000000000000000000000000000\n        /* \"#utility.yul\":14504:14505   */\n      0x00\n        /* \"#utility.yul\":14497:14585   */\n      mstore\n        /* \"#utility.yul\":14604:14608   */\n      0x11\n        /* \"#utility.yul\":14601:14602   */\n      0x04\n        /* \"#utility.yul\":14594:14609   */\n      mstore\n        /* \"#utility.yul\":14628:14632   */\n      0x24\n        /* \"#utility.yul\":14625:14626   */\n      0x00\n        /* \"#utility.yul\":14618:14633   */\n      revert\n        /* \"#utility.yul\":14645:14839   */\n    tag_144:\n        /* \"#utility.yul\":14685:14689   */\n      0x00\n        /* \"#utility.yul\":14705:14725   */\n      tag_428\n        /* \"#utility.yul\":14723:14724   */\n      dup3\n        /* \"#utility.yul\":14705:14725   */\n      tag_223\n      jump\t// in\n    tag_428:\n        /* \"#utility.yul\":14700:14725   */\n      swap2\n      pop\n        /* \"#utility.yul\":14739:14759   */\n      tag_429\n        /* \"#utility.yul\":14757:14758   */\n      dup4\n        /* \"#utility.yul\":14739:14759   */\n      tag_223\n      jump\t// in\n    tag_429:\n        /* \"#utility.yul\":14734:14759   */\n      swap3\n      pop\n        /* \"#utility.yul\":14783:14784   */\n      dup3\n        /* \"#utility.yul\":14780:14781   */\n      dup3\n        /* \"#utility.yul\":14776:14785   */\n      sub\n        /* \"#utility.yul\":14768:14785   */\n      swap1\n      pop\n        /* \"#utility.yul\":14807:14808   */\n      dup2\n        /* \"#utility.yul\":14801:14805   */\n      dup2\n        /* \"#utility.yul\":14798:14809   */\n      gt\n        /* \"#utility.yul\":14795:14832   */\n      iszero\n      tag_430\n      jumpi\n        /* \"#utility.yul\":14812:14830   */\n      tag_431\n      tag_263\n      jump\t// in\n    tag_431:\n        /* \"#utility.yul\":14795:14832   */\n    tag_430:\n        /* \"#utility.yul\":14645:14839   */\n      swap3\n      swap2\n      pop\n      pop\n      jump\t// out\n        /* \"#utility.yul\":14845:15025   */\n    tag_147:\n        /* \"#utility.yul\":14893:14970   */\n      0x4e487b7100000000000000000000000000000000000000000000000000000000\n        /* \"#utility.yul\":14890:14891   */\n      0x00\n        /* \"#utility.yul\":14883:14971   */\n      mstore\n        /* \"#utility.yul\":14990:14994   */\n      0x32\n        /* \"#utility.yul\":14987:14988   */\n      0x04\n        /* \"#utility.yul\":14980:14995   */\n      mstore\n        /* \"#utility.yul\":15014:15018   */\n      0x24\n        /* \"#utility.yul\":15011:15012   */\n      0x00\n        /* \"#utility.yul\":15004:15019   */\n      revert\n        /* \"#utility.yul\":15031:15180   */\n    tag_264:\n        /* \"#utility.yul\":15080:15086   */\n      0x00\n        /* \"#utility.yul\":15114:15119   */\n      dup2\n        /* \"#utility.yul\":15108:15120   */\n      sload\n        /* \"#utility.yul\":15098:15120   */\n      swap1\n      pop\n        /* \"#utility.yul\":15140:15173   */\n      tag_434\n        /* \"#utility.yul\":15166:15172   */\n      dup2\n        /* \"#utility.yul\":15140:15173   */\n      tag_93\n      jump\t// in\n    tag_434:\n        /* \"#utility.yul\":15130:15173   */\n      swap1\n      pop\n        /* \"#utility.yul\":15031:15180   */\n      swap2\n      swap1\n      pop\n      jump\t// out\n        /* \"#utility.yul\":15186:15327   */\n    tag_265:\n        /* \"#utility.yul\":15235:15239   */\n      0x00\n        /* \"#utility.yul\":15258:15261   */\n      dup2\n        /* \"#utility.yul\":15250:15261   */\n      swap1\n      pop\n        /* \"#utility.yul\":15281:15284   */\n      dup2\n        /* \"#utility.yul\":15278:15279   */\n      0x00\n        /* \"#utility.yul\":15271:15285   */\n      mstore\n        /* \"#utility.yul\":15315:15319   */\n      0x20\n        /* \"#utility.yul\":15312:15313   */\n      0x00\n        /* \"#utility.yul\":15302:15320   */\n      keccak256\n        /* \"#utility.yul\":15294:15320   */\n      swap1\n      pop\n        /* \"#utility.yul\":15186:15327   */\n      swap2\n      swap1\n      pop\n      jump\t// out\n        /* \"#utility.yul\":15333:15426   */\n    tag_266:\n        /* \"#utility.yul\":15370:15376   */\n      0x00\n        /* \"#utility.yul\":15417:15419   */\n      0x20\n        /* \"#utility.yul\":15412:15414   */\n      0x1f\n        /* \"#utility.yul\":15405:15410   */\n      dup4\n        /* \"#utility.yul\":15401:15415   */\n      add\n        /* \"#utility.yul\":15397:15420   */\n      div\n        /* \"#utility.yul\":15387:15420   */\n      swap1\n      pop\n        /* \"#utility.yul\":15333:15426   */\n      swap2\n      swap1\n      pop\n      jump\t// out\n        /* \"#utility.yul\":15432:15539   */\n    tag_267:\n        /* \"#utility.yul\":15476:15484   */\n      0x00\n        /* \"#utility.yul\":15526:15531   */\n      dup3\n        /* \"#utility.yul\":15520:15524   */\n      dup3\n        /* \"#utility.yul\":15516:15532   */\n      shl\n        /* \"#utility.yul\":15495:15532   */\n      swap1\n      pop\n        /* \"#utility.yul\":15432:15539   */\n      swap3\n      swap2\n      pop\n      pop\n      jump\t// out\n        /* \"#utility.yul\":15545:15938   */\n    tag_268:\n        /* \"#utility.yul\":15614:15620   */\n      0x00\n        /* \"#utility.yul\":15664:15665   */\n      0x08\n        /* \"#utility.yul\":15652:15662   */\n      dup4\n        /* \"#utility.yul\":15648:15666   */\n      mul\n        /* \"#utility.yul\":15687:15784   */\n      tag_439\n        /* \"#utility.yul\":15717:15783   */\n      0xffffffffffffffffffffffffffffffffffffffffffffffffffffffffffffffff\n        /* \"#utility.yul\":15706:15715   */\n      dup3\n        /* \"#utility.yul\":15687:15784   */\n      tag_267\n      jump\t// in\n    tag_439:\n        /* \"#utility.yul\":15805:15844   */\n      tag_440\n        /* \"#utility.yul\":15835:15843   */\n      dup7\n        /* \"#utility.yul\":15824:15833   */\n      dup4\n        /* \"#utility.yul\":15805:15844   */\n      tag_267\n      jump\t// in\n    tag_440:\n        /* \"#utility.yul\":15793:15844   */\n      swap6\n      pop\n        /* \"#utility.yul\":15877:15881   */\n      dup1\n        /* \"#utility.yul\":15873:15882   */\n      not\n        /* \"#utility.yul\":15866:15871   */\n      dup5\n        /* \"#utility.yul\":15862:15883   */\n      and\n        /* \"#utility.yul\":15853:15883   */\n      swap4\n      pop\n        /* \"#utility.yul\":15926:15930   */\n      dup1\n        /* \"#utility.yul\":15916:15924   */\n      dup7\n        /* \"#utility.yul\":15912:15931   */\n      and\n        /* \"#utility.yul\":15905:15910   */\n      dup5\n        /* \"#utility.yul\":15902:15932   */\n      or\n        /* \"#utility.yul\":15892:15932   */\n      swap3\n      pop\n        /* \"#utility.yul\":15621:15938   */\n      pop\n      pop\n        /* \"#utility.yul\":15545:15938   */\n      swap4\n      swap3\n      pop\n      pop\n      pop\n      jump\t// out\n        /* \"#utility.yul\":15944:16004   */\n    tag_269:\n        /* \"#utility.yul\":15972:15975   */\n      0x00\n        /* \"#utility.yul\":15993:15998   */\n      dup2\n        /* \"#utility.yul\":15986:15998   */\n      swap1\n      pop\n        /* \"#utility.yul\":15944:16004   */\n      swap2\n      swap1\n      pop\n      jump\t// out\n        /* \"#utility.yul\":16010:16152   */\n    tag_270:\n        /* \"#utility.yul\":16060:16069   */\n      0x00\n        /* \"#utility.yul\":16093:16146   */\n      tag_443\n        /* \"#utility.yul\":16111:16145   */\n      tag_444\n        /* \"#utility.yul\":16120:16144   */\n      tag_445\n        /* \"#utility.yul\":16138:16143   */\n      dup5\n        /* \"#utility.yul\":16120:16144   */\n      tag_223\n      jump\t// in\n    tag_445:\n        /* \"#utility.yul\":16111:16145   */\n      tag_269\n      jump\t// in\n    tag_444:\n        /* \"#utility.yul\":16093:16146   */\n      tag_223\n      jump\t// in\n    tag_443:\n        /* \"#utility.yul\":16080:16146   */\n      swap1\n      pop\n        /* \"#utility.yul\":16010:16152   */\n      swap2\n      swap1\n      pop\n      jump\t// out\n        /* \"#utility.yul\":16158:16233   */\n    tag_271:\n        /* \"#utility.yul\":16201:16204   */\n      0x00\n        /* \"#utility.yul\":16222:16227   */\n      dup2\n        /* \"#utility.yul\":16215:16227   */\n      swap1\n      pop\n        /* \"#utility.yul\":16158:16233   */\n      swap2\n      swap1\n      pop\n      jump\t// out\n        /* \"#utility.yul\":16239:16508   */\n    tag_272:\n        /* \"#utility.yul\":16349:16388   */\n      tag_448\n        /* \"#utility.yul\":16380:16387   */\n      dup4\n        /* \"#utility.yul\":16349:16388   */\n      tag_270\n      jump\t// in\n    tag_448:\n        /* \"#utility.yul\":16410:16501   */\n      tag_449\n        /* \"#utility.yul\":16459:16500   */\n      tag_450\n        /* \"#utility.yul\":16483:16499   */\n      dup3\n        /* \"#utility.yul\":16459:16500   */\n      tag_271\n      jump\t// in\n    tag_450:\n        /* \"#utility.yul\":16451:16457   */\n      dup5\n        /* \"#utility.yul\":16444:16448   */\n      dup5\n        /* \"#utility.yul\":16438:16449   */\n      sload\n        /* \"#utility.yul\":16410:16501   */\n      tag_268\n      jump\t// in\n    tag_449:\n        /* \"#utility.yul\":16404:16408   */\n      dup3\n        /* \"#utility.yul\":16397:16502   */\n      sstore\n        /* \"#utility.yul\":16315:16508   */\n      pop\n        /* \"#utility.yul\":16239:16508   */\n      pop\n      pop\n      pop\n      jump\t// out\n        /* \"#utility.yul\":16514:16587   */\n    tag_273:\n        /* \"#utility.yul\":16559:16562   */\n      0x00\n        /* \"#utility.yul\":16580:16581   */\n      0x00\n        /* \"#utility.yul\":16573:16581   */\n      swap1\n      pop\n        /* \"#utility.yul\":16514:16587   */\n      swap1\n      jump\t// out\n        /* \"#utility.yul\":16593:16782   */\n    tag_274:\n        /* \"#utility.yul\":16670:16702   */\n      tag_453\n      tag_273\n      jump\t// in\n    tag_453:\n        /* \"#utility.yul\":16711:16776   */\n      tag_454\n        /* \"#utility.yul\":16769:16775   */\n      dup2\n        /* \"#utility.yul\":16761:16767   */\n      dup5\n        /* \"#utility.yul\":16755:16759   */\n      dup5\n        /* \"#utility.yul\":16711:16776   */\n      tag_272\n      jump\t// in\n    tag_454:\n        /* \"#utility.yul\":16646:16782   */\n      pop\n        /* \"#utility.yul\":16593:16782   */\n      pop\n      pop\n      jump\t// out\n        /* \"#utility.yul\":16788:16974   */\n    tag_275:\n        /* \"#utility.yul\":16848:16968   */\n    tag_456:\n        /* \"#utility.yul\":16865:16868   */\n      dup2\n        /* \"#utility.yul\":16858:16863   */\n      dup2\n        /* \"#utility.yul\":16855:16869   */\n      lt\n        /* \"#utility.yul\":16848:16968   */\n      iszero\n      tag_458\n      jumpi\n        /* \"#utility.yul\":16919:16958   */\n      tag_459\n        /* \"#utility.yul\":16956:16957   */\n      0x00\n        /* \"#utility.yul\":16949:16954   */\n      dup3\n        /* \"#utility.yul\":16919:16958   */\n      tag_274\n      jump\t// in\n    tag_459:\n        /* \"#utility.yul\":16892:16893   */\n      0x01\n        /* \"#utility.yul\":16885:16890   */\n      dup2\n        /* \"#utility.yul\":16881:16894   */\n      add\n        /* \"#utility.yul\":16872:16894   */\n      swap1\n      pop\n        /* \"#utility.yul\":16848:16968   */\n      jump(tag_456)\n    tag_458:\n        /* \"#utility.yul\":16788:16974   */\n      pop\n      pop\n      jump\t// out\n        /* \"#utility.yul\":16980:17523   */\n    tag_276:\n        /* \"#utility.yul\":17081:17083   */\n      0x1f\n        /* \"#utility.yul\":17076:17079   */\n      dup3\n        /* \"#utility.yul\":17073:17084   */\n      gt\n        /* \"#utility.yul\":17070:17516   */\n      iszero\n      tag_461\n      jumpi\n        /* \"#utility.yul\":17115:17153   */\n      tag_462\n        /* \"#utility.yul\":17147:17152   */\n      dup2\n        /* \"#utility.yul\":17115:17153   */\n      tag_265\n      jump\t// in\n    tag_462:\n        /* \"#utility.yul\":17199:17228   */\n      tag_463\n        /* \"#utility.yul\":17217:17227   */\n      dup5\n        /* \"#utility.yul\":17199:17228   */\n      tag_266\n      jump\t// in\n    tag_463:\n        /* \"#utility.yul\":17189:17197   */\n      dup2\n        /* \"#utility.yul\":17185:17229   */\n      add\n        /* \"#utility.yul\":17382:17384   */\n      0x20\n        /* \"#utility.yul\":17370:17380   */\n      dup6\n        /* \"#utility.yul\":17367:17385   */\n      lt\n        /* \"#utility.yul\":17364:17413   */\n      iszero\n      tag_464\n      jumpi\n        /* \"#utility.yul\":17403:17411   */\n      dup2\n        /* \"#utility.yul\":17388:17411   */\n      swap1\n      pop\n        /* \"#utility.yul\":17364:17413   */\n    tag_464:\n        /* \"#utility.yul\":17426:17506   */\n      tag_465\n        /* \"#utility.yul\":17482:17504   */\n      tag_466\n        /* \"#utility.yul\":17500:17503   */\n      dup6\n        /* \"#utility.yul\":17482:17504   */\n      tag_266\n      jump\t// in\n    tag_466:\n        /* \"#utility.yul\":17472:17480   */\n      dup4\n        /* \"#utility.yul\":17468:17505   */\n      add\n        /* \"#utility.yul\":17455:17466   */\n      dup3\n        /* \"#utility.yul\":17426:17506   */\n      tag_275\n      jump\t// in\n    tag_465:\n        /* \"#utility.yul\":17085:17516   */\n      pop\n      pop\n        /* \"#utility.yul\":17070:17516   */\n    tag_461:\n        /* \"#utility.yul\":16980:17523   */\n      pop\n      pop\n      pop\n      jump\t// out\n        /* \"#utility.yul\":17529:17646   */\n    tag_277:\n        /* \"#utility.yul\":17583:17591   */\n      0x00\n        /* \"#utility.yul\":17633:17638   */\n      dup3\n        /* \"#utility.yul\":17627:17631   */\n      dup3\n        /* \"#utility.yul\":17623:17639   */\n      shr\n        /* \"#utility.yul\":17602:17639   */\n      swap1\n      pop\n        /* \"#utility.yul\":17529:17646   */\n      swap3\n      swap2\n      pop\n      pop\n      jump\t// out\n        /* \"#utility.yul\":17652:17821   */\n    tag_278:\n        /* \"#utility.yul\":17696:17702   */\n      0x00\n        /* \"#utility.yul\":17729:17780   */\n      tag_469\n        /* \"#utility.yul\":17777:17778   */\n      0x00\n        /* \"#utility.yul\":17773:17779   */\n      not\n        /* \"#utility.yul\":17765:17770   */\n      dup5\n        /* \"#utility.yul\":17762:17763   */\n      0x08\n        /* \"#utility.yul\":17758:17771   */\n      mul\n        /* \"#utility.yul\":17729:17780   */\n      tag_277\n      jump\t// in\n    tag_469:\n        /* \"#utility.yul\":17725:17781   */\n      not\n        /* \"#utility.yul\":17810:17814   */\n      dup1\n        /* \"#utility.yul\":17804:17808   */\n      dup4\n        /* \"#utility.yul\":17800:17815   */\n      and\n        /* \"#utility.yul\":17790:17815   */\n      swap2\n      pop\n        /* \"#utility.yul\":17703:17821   */\n      pop\n        /* \"#utility.yul\":17652:17821   */\n      swap3\n      swap2\n      pop\n      pop\n      jump\t// out\n        /* \"#utility.yul\":17826:18121   */\n    tag_279:\n        /* \"#utility.yul\":17902:17906   */\n      0x00\n        /* \"#utility.yul\":18048:18077   */\n      tag_471\n        /* \"#utility.yul\":18073:18076   */\n      dup4\n        /* \"#utility.yul\":18067:18071   */\n      dup4\n        /* \"#utility.yul\":18048:18077   */\n      tag_278\n      jump\t// in\n    tag_471:\n        /* \"#utility.yul\":18040:18077   */\n      swap2\n      pop\n        /* \"#utility.yul\":18110:18113   */\n      dup3\n        /* \"#utility.yul\":18107:18108   */\n      0x02\n        /* \"#utility.yul\":18103:18114   */\n      mul\n        /* \"#utility.yul\":18097:18101   */\n      dup3\n        /* \"#utility.yul\":18094:18115   */\n      or\n        /* \"#utility.yul\":18086:18115   */\n      swap1\n      pop\n        /* \"#utility.yul\":17826:18121   */\n      swap3\n      swap2\n      pop\n      pop\n      jump\t// out\n        /* \"#utility.yul\":18126:19577   */\n    tag_153:\n        /* \"#utility.yul\":18237:18240   */\n      dup2\n        /* \"#utility.yul\":18231:18235   */\n      dup2\n        /* \"#utility.yul\":18228:18241   */\n      sub\n        /* \"#utility.yul\":18225:18251   */\n      tag_473\n      jumpi\n        /* \"#utility.yul\":18244:18249   */\n      pop\n      pop\n      jump(tag_472)\n        /* \"#utility.yul\":18225:18251   */\n    tag_473:\n        /* \"#utility.yul\":18275:18309   */\n      tag_474\n        /* \"#utility.yul\":18305:18308   */\n      dup3\n        /* \"#utility.yul\":18275:18309   */\n      tag_264\n      jump\t// in\n    tag_474:\n        /* \"#utility.yul\":18374:18392   */\n      0xffffffffffffffff\n        /* \"#utility.yul\":18366:18372   */\n      dup2\n        /* \"#utility.yul\":18363:18393   */\n      gt\n        /* \"#utility.yul\":18360:18416   */\n      iszero\n      tag_475\n      jumpi\n        /* \"#utility.yul\":18396:18414   */\n      tag_476\n      tag_241\n      jump\t// in\n    tag_476:\n        /* \"#utility.yul\":18360:18416   */\n    tag_475:\n        /* \"#utility.yul\":18440:18478   */\n      tag_477\n        /* \"#utility.yul\":18472:18476   */\n      dup3\n        /* \"#utility.yul\":18466:18477   */\n      sload\n        /* \"#utility.yul\":18440:18478   */\n      tag_93\n      jump\t// in\n    tag_477:\n        /* \"#utility.yul\":18525:18592   */\n      tag_478\n        /* \"#utility.yul\":18585:18591   */\n      dup3\n        /* \"#utility.yul\":18577:18583   */\n      dup3\n        /* \"#utility.yul\":18571:18575   */\n      dup6\n        /* \"#utility.yul\":18525:18592   */\n      tag_276\n      jump\t// in\n    tag_478:\n        /* \"#utility.yul\":18619:18620   */\n      0x00\n        /* \"#utility.yul\":18648:18650   */\n      0x1f\n        /* \"#utility.yul\":18640:18646   */\n      dup4\n        /* \"#utility.yul\":18637:18651   */\n      gt\n        /* \"#utility.yul\":18665:18666   */\n      0x01\n        /* \"#utility.yul\":18660:19332   */\n      dup2\n      eq\n      tag_480\n      jumpi\n        /* \"#utility.yul\":19376:19377   */\n      0x00\n        /* \"#utility.yul\":19393:19399   */\n      dup5\n        /* \"#utility.yul\":19390:19467   */\n      iszero\n      tag_481\n      jumpi\n        /* \"#utility.yul\":19442:19451   */\n      dup3\n        /* \"#utility.yul\":19437:19440   */\n      dup8\n        /* \"#utility.yul\":19433:19452   */\n      add\n        /* \"#utility.yul\":19427:19453   */\n      sload\n        /* \"#utility.yul\":19418:19453   */\n      swap1\n      pop\n        /* \"#utility.yul\":19390:19467   */\n    tag_481:\n        /* \"#utility.yul\":19493:19560   */\n      tag_482\n        /* \"#utility.yul\":19553:19559   */\n      dup6\n        /* \"#utility.yul\":19546:19551   */\n      dup3\n        /* \"#utility.yul\":19493:19560   */\n      tag_279\n      jump\t// in\n    tag_482:\n        /* \"#utility.yul\":19487:19491   */\n      dup7\n        /* \"#utility.yul\":19480:19561   */\n      sstore\n        /* \"#utility.yul\":19349:19571   */\n      pop\n        /* \"#utility.yul\":18630:19571   */\n      jump(tag_479)\n        /* \"#utility.yul\":18660:19332   */\n    tag_480:\n        /* \"#utility.yul\":18712:18716   */\n      0x1f\n        /* \"#utility.yul\":18708:18717   */\n      not\n        /* \"#utility.yul\":18700:18706   */\n      dup5\n        /* \"#utility.yul\":18696:18718   */\n      and\n        /* \"#utility.yul\":18738:18774   */\n      tag_483\n        /* \"#utility.yul\":18770:18773   */\n      dup8\n        /* \"#utility.yul\":18738:18774   */\n      tag_265\n      jump\t// in\n    tag_483:\n        /* \"#utility.yul\":18731:18774   */\n      swap7\n      pop\n        /* \"#utility.yul\":18801:18838   */\n      tag_484\n        /* \"#utility.yul\":18833:18837   */\n      dup7\n        /* \"#utility.yul\":18801:18838   */\n      tag_265\n      jump\t// in\n    tag_484:\n        /* \"#utility.yul\":18860:18861   */\n      0x00\n        /* \"#utility.yul\":18874:19081   */\n    tag_485:\n        /* \"#utility.yul\":18888:18895   */\n      dup3\n        /* \"#utility.yul\":18885:18886   */\n      dup2\n        /* \"#utility.yul\":18882:18896   */\n      lt\n        /* \"#utility.yul\":18874:19081   */\n      iszero\n      tag_487\n      jumpi\n        /* \"#utility.yul\":18967:18976   */\n      dup5\n        /* \"#utility.yul\":18962:18965   */\n      dup10\n        /* \"#utility.yul\":18958:18977   */\n      add\n        /* \"#utility.yul\":18952:18978   */\n      sload\n        /* \"#utility.yul\":18944:18950   */\n      dup3\n        /* \"#utility.yul\":18937:18979   */\n      sstore\n        /* \"#utility.yul\":19018:19019   */\n      0x01\n        /* \"#utility.yul\":19010:19016   */\n      dup3\n        /* \"#utility.yul\":19006:19020   */\n      add\n        /* \"#utility.yul\":18996:19020   */\n      swap2\n      pop\n        /* \"#utility.yul\":19065:19066   */\n      0x01\n        /* \"#utility.yul\":19054:19063   */\n      dup6\n        /* \"#utility.yul\":19050:19067   */\n      add\n        /* \"#utility.yul\":19037:19067   */\n      swap5\n      pop\n        /* \"#utility.yul\":18911:18915   */\n      0x20\n        /* \"#utility.yul\":18908:18909   */\n      dup2\n        /* \"#utility.yul\":18904:18916   */\n      add\n        /* \"#utility.yul\":18899:18916   */\n      swap1\n      pop\n        /* \"#utility.yul\":18874:19081   */\n      jump(tag_485)\n    tag_487:\n        /* \"#utility.yul\":19109:19115   */\n      dup7\n        /* \"#utility.yul\":19100:19107   */\n      dup4\n        /* \"#utility.yul\":19097:19116   */\n      lt\n        /* \"#utility.yul\":19094:19273   */\n      iszero\n      tag_488\n      jumpi\n        /* \"#utility.yul\":19167:19176   */\n      dup5\n        /* \"#utility.yul\":19162:19165   */\n      dup10\n        /* \"#utility.yul\":19158:19177   */\n      add\n        /* \"#utility.yul\":19152:19178   */\n      sload\n        /* \"#utility.yul\":19210:19258   */\n      tag_489\n        /* \"#utility.yul\":19252:19256   */\n      0x1f\n        /* \"#utility.yul\":19244:19250   */\n      dup10\n        /* \"#utility.yul\":19240:19257   */\n      and\n        /* \"#utility.yul\":19229:19238   */\n      dup3\n        /* \"#utility.yul\":19210:19258   */\n      tag_278\n      jump\t// in\n    tag_489:\n        /* \"#utility.yul\":19202:19208   */\n      dup4\n        /* \"#utility.yul\":19195:19259   */\n      sstore\n        /* \"#utility.yul\":19117:19273   */\n      pop\n        /* \"#utility.yul\":19094:19273   */\n    tag_488:\n        /* \"#utility.yul\":19319:19320   */\n      0x01\n        /* \"#utility.yul\":19315:19316   */\n      0x02\n        /* \"#utility.yul\":19307:19313   */\n      dup9\n        /* \"#utility.yul\":19303:19317   */\n      mul\n        /* \"#utility.yul\":19299:19321   */\n      add\n        /* \"#utility.yul\":19293:19297   */\n      dup9\n        /* \"#utility.yul\":19286:19322   */\n      sstore\n        /* \"#utility.yul\":18667:19332   */\n      pop\n      pop\n      pop\n        /* \"#utility.yul\":18630:19571   */\n    tag_479:\n      pop\n        /* \"#utility.yul\":18215:19577   */\n      pop\n      pop\n      pop\n        /* \"#utility.yul\":18126:19577   */\n      pop\n      pop\n    tag_472:\n      jump\t// out\n        /* \"#utility.yul\":19583:19763   */\n    tag_156:\n        /* \"#utility.yul\":19631:19708   */\n      0x4e487b7100000000000000000000000000000000000000000000000000000000\n        /* \"#utility.yul\":19628:19629   */\n      0x00\n        /* \"#utility.yul\":19621:19709   */\n      mstore\n        /* \"#utility.yul\":19728:19732   */\n      0x31\n        /* \"#utility.yul\":19725:19726   */\n      0x04\n        /* \"#utility.yul\":19718:19733   */\n      mstore\n        /* \"#utility.yul\":19752:19756   */\n      0x24\n        /* \"#utility.yul\":19749:19750   */\n      0x00\n        /* \"#utility.yul\":19742:19757   */\n      revert\n        /* \"#utility.yul\":19769:19940   */\n    tag_280:\n        /* \"#utility.yul\":19909:19932   */\n      0x416d6f756e742063616e6e6f7420756e64657220300000000000000000000000\n        /* \"#utility.yul\":19905:19906   */\n      0x00\n        /* \"#utility.yul\":19897:19903   */\n      dup3\n        /* \"#utility.yul\":19893:19907   */\n      add\n        /* \"#utility.yul\":19886:19933   */\n      mstore\n        /* \"#utility.yul\":19769:19940   */\n      pop\n      jump\t// out\n        /* \"#utility.yul\":19946:20312   */\n    tag_281:\n        /* \"#utility.yul\":20088:20091   */\n      0x00\n        /* \"#utility.yul\":20109:20176   */\n      tag_493\n        /* \"#utility.yul\":20173:20175   */\n      0x15\n        /* \"#utility.yul\":20168:20171   */\n      dup4\n        /* \"#utility.yul\":20109:20176   */\n      tag_227\n      jump\t// in\n    tag_493:\n        /* \"#utility.yul\":20102:20176   */\n      swap2\n      pop\n        /* \"#utility.yul\":20185:20278   */\n      tag_494\n        /* \"#utility.yul\":20274:20277   */\n      dup3\n        /* \"#utility.yul\":20185:20278   */\n      tag_280\n      jump\t// in\n    tag_494:\n        /* \"#utility.yul\":20303:20305   */\n      0x20\n        /* \"#utility.yul\":20298:20301   */\n      dup3\n        /* \"#utility.yul\":20294:20306   */\n      add\n        /* \"#utility.yul\":20287:20306   */\n      swap1\n      pop\n        /* \"#utility.yul\":19946:20312   */\n      swap2\n      swap1\n      pop\n      jump\t// out\n        /* \"#utility.yul\":20318:20737   */\n    tag_167:\n        /* \"#utility.yul\":20484:20488   */\n      0x00\n        /* \"#utility.yul\":20522:20524   */\n      0x20\n        /* \"#utility.yul\":20511:20520   */\n      dup3\n        /* \"#utility.yul\":20507:20525   */\n      add\n        /* \"#utility.yul\":20499:20525   */\n      swap1\n      pop\n        /* \"#utility.yul\":20571:20580   */\n      dup2\n        /* \"#utility.yul\":20565:20569   */\n      dup2\n        /* \"#utility.yul\":20561:20581   */\n      sub\n        /* \"#utility.yul\":20557:20558   */\n      0x00\n        /* \"#utility.yul\":20546:20555   */\n      dup4\n        /* \"#utility.yul\":20542:20559   */\n      add\n        /* \"#utility.yul\":20535:20582   */\n      mstore\n        /* \"#utility.yul\":20599:20730   */\n      tag_496\n        /* \"#utility.yul\":20725:20729   */\n      dup2\n        /* \"#utility.yul\":20599:20730   */\n      tag_281\n      jump\t// in\n    tag_496:\n        /* \"#utility.yul\":20591:20730   */\n      swap1\n      pop\n        /* \"#utility.yul\":20318:20737   */\n      swap2\n      swap1\n      pop\n      jump\t// out\n        /* \"#utility.yul\":20743:22138   */\n    tag_170:\n        /* \"#utility.yul\":20860:20897   */\n      tag_498\n        /* \"#utility.yul\":20893:20896   */\n      dup3\n        /* \"#utility.yul\":20860:20897   */\n      tag_226\n      jump\t// in\n    tag_498:\n        /* \"#utility.yul\":20962:20980   */\n      0xffffffffffffffff\n        /* \"#utility.yul\":20954:20960   */\n      dup2\n        /* \"#utility.yul\":20951:20981   */\n      gt\n        /* \"#utility.yul\":20948:21004   */\n      iszero\n      tag_499\n      jumpi\n        /* \"#utility.yul\":20984:21002   */\n      tag_500\n      tag_241\n      jump\t// in\n    tag_500:\n        /* \"#utility.yul\":20948:21004   */\n    tag_499:\n        /* \"#utility.yul\":21028:21066   */\n      tag_501\n        /* \"#utility.yul\":21060:21064   */\n      dup3\n        /* \"#utility.yul\":21054:21065   */\n      sload\n        /* \"#utility.yul\":21028:21066   */\n      tag_93\n      jump\t// in\n    tag_501:\n        /* \"#utility.yul\":21113:21180   */\n      tag_502\n        /* \"#utility.yul\":21173:21179   */\n      dup3\n        /* \"#utility.yul\":21165:21171   */\n      dup3\n        /* \"#utility.yul\":21159:21163   */\n      dup6\n        /* \"#utility.yul\":21113:21180   */\n      tag_276\n      jump\t// in\n    tag_502:\n        /* \"#utility.yul\":21207:21208   */\n      0x00\n        /* \"#utility.yul\":21231:21235   */\n      0x20\n        /* \"#utility.yul\":21218:21235   */\n      swap1\n      pop\n        /* \"#utility.yul\":21263:21265   */\n      0x1f\n        /* \"#utility.yul\":21255:21261   */\n      dup4\n        /* \"#utility.yul\":21252:21266   */\n      gt\n        /* \"#utility.yul\":21280:21281   */\n      0x01\n        /* \"#utility.yul\":21275:21893   */\n      dup2\n      eq\n      tag_504\n      jumpi\n        /* \"#utility.yul\":21937:21938   */\n      0x00\n        /* \"#utility.yul\":21954:21960   */\n      dup5\n        /* \"#utility.yul\":21951:22028   */\n      iszero\n      tag_505\n      jumpi\n        /* \"#utility.yul\":22003:22012   */\n      dup3\n        /* \"#utility.yul\":21998:22001   */\n      dup8\n        /* \"#utility.yul\":21994:22013   */\n      add\n        /* \"#utility.yul\":21988:22014   */\n      mload\n        /* \"#utility.yul\":21979:22014   */\n      swap1\n      pop\n        /* \"#utility.yul\":21951:22028   */\n    tag_505:\n        /* \"#utility.yul\":22054:22121   */\n      tag_506\n        /* \"#utility.yul\":22114:22120   */\n      dup6\n        /* \"#utility.yul\":22107:22112   */\n      dup3\n        /* \"#utility.yul\":22054:22121   */\n      tag_279\n      jump\t// in\n    tag_506:\n        /* \"#utility.yul\":22048:22052   */\n      dup7\n        /* \"#utility.yul\":22041:22122   */\n      sstore\n        /* \"#utility.yul\":21910:22132   */\n      pop\n        /* \"#utility.yul\":21245:22132   */\n      jump(tag_503)\n        /* \"#utility.yul\":21275:21893   */\n    tag_504:\n        /* \"#utility.yul\":21327:21331   */\n      0x1f\n        /* \"#utility.yul\":21323:21332   */\n      not\n        /* \"#utility.yul\":21315:21321   */\n      dup5\n        /* \"#utility.yul\":21311:21333   */\n      and\n        /* \"#utility.yul\":21361:21398   */\n      tag_507\n        /* \"#utility.yul\":21393:21397   */\n      dup7\n        /* \"#utility.yul\":21361:21398   */\n      tag_265\n      jump\t// in\n    tag_507:\n        /* \"#utility.yul\":21420:21421   */\n      0x00\n        /* \"#utility.yul\":21434:21642   */\n    tag_508:\n        /* \"#utility.yul\":21448:21455   */\n      dup3\n        /* \"#utility.yul\":21445:21446   */\n      dup2\n        /* \"#utility.yul\":21442:21456   */\n      lt\n        /* \"#utility.yul\":21434:21642   */\n      iszero\n      tag_510\n      jumpi\n        /* \"#utility.yul\":21527:21536   */\n      dup5\n        /* \"#utility.yul\":21522:21525   */\n      dup10\n        /* \"#utility.yul\":21518:21537   */\n      add\n        /* \"#utility.yul\":21512:21538   */\n      mload\n        /* \"#utility.yul\":21504:21510   */\n      dup3\n        /* \"#utility.yul\":21497:21539   */\n      sstore\n        /* \"#utility.yul\":21578:21579   */\n      0x01\n        /* \"#utility.yul\":21570:21576   */\n      dup3\n        /* \"#utility.yul\":21566:21580   */\n      add\n        /* \"#utility.yul\":21556:21580   */\n      swap2\n      pop\n        /* \"#utility.yul\":21625:21627   */\n      0x20\n        /* \"#utility.yul\":21614:21623   */\n      dup6\n        /* \"#utility.yul\":21610:21628   */\n      add\n        /* \"#utility.yul\":21597:21628   */\n      swap5\n      pop\n        /* \"#utility.yul\":21471:21475   */\n      0x20\n        /* \"#utility.yul\":21468:21469   */\n      dup2\n        /* \"#utility.yul\":21464:21476   */\n      add\n        /* \"#utility.yul\":21459:21476   */\n      swap1\n      pop\n        /* \"#utility.yul\":21434:21642   */\n      jump(tag_508)\n    tag_510:\n        /* \"#utility.yul\":21670:21676   */\n      dup7\n        /* \"#utility.yul\":21661:21668   */\n      dup4\n        /* \"#utility.yul\":21658:21677   */\n      lt\n        /* \"#utility.yul\":21655:21834   */\n      iszero\n      tag_511\n      jumpi\n        /* \"#utility.yul\":21728:21737   */\n      dup5\n        /* \"#utility.yul\":21723:21726   */\n      dup10\n        /* \"#utility.yul\":21719:21738   */\n      add\n        /* \"#utility.yul\":21713:21739   */\n      mload\n        /* \"#utility.yul\":21771:21819   */\n      tag_512\n        /* \"#utility.yul\":21813:21817   */\n      0x1f\n        /* \"#utility.yul\":21805:21811   */\n      dup10\n        /* \"#utility.yul\":21801:21818   */\n      and\n        /* \"#utility.yul\":21790:21799   */\n      dup3\n        /* \"#utility.yul\":21771:21819   */\n      tag_278\n      jump\t// in\n    tag_512:\n        /* \"#utility.yul\":21763:21769   */\n      dup4\n        /* \"#utility.yul\":21756:21820   */\n      sstore\n        /* \"#utility.yul\":21678:21834   */\n      pop\n        /* \"#utility.yul\":21655:21834   */\n    tag_511:\n        /* \"#utility.yul\":21880:21881   */\n      0x01\n        /* \"#utility.yul\":21876:21877   */\n      0x02\n        /* \"#utility.yul\":21868:21874   */\n      dup9\n        /* \"#utility.yul\":21864:21878   */\n      mul\n        /* \"#utility.yul\":21860:21882   */\n      add\n        /* \"#utility.yul\":21854:21858   */\n      dup9\n        /* \"#utility.yul\":21847:21883   */\n      sstore\n        /* \"#utility.yul\":21282:21893   */\n      pop\n      pop\n      pop\n        /* \"#utility.yul\":21245:22132   */\n    tag_503:\n      pop\n        /* \"#utility.yul\":20835:22138   */\n      pop\n      pop\n      pop\n        /* \"#utility.yul\":20743:22138   */\n      pop\n      pop\n      jump\t// out\n        /* \"#utility.yul\":22144:22318   */\n    tag_282:\n        /* \"#utility.yul\":22284:22310   */\n      0x5468652063616d706169676e206973206e6f74206f70656e0000000000000000\n        /* \"#utility.yul\":22280:22281   */\n      0x00\n        /* \"#utility.yul\":22272:22278   */\n      dup3\n        /* \"#utility.yul\":22268:22282   */\n      add\n        /* \"#utility.yul\":22261:22311   */\n      mstore\n        /* \"#utility.yul\":22144:22318   */\n      pop\n      jump\t// out\n        /* \"#utility.yul\":22324:22690   */\n    tag_283:\n        /* \"#utility.yul\":22466:22469   */\n      0x00\n        /* \"#utility.yul\":22487:22554   */\n      tag_515\n        /* \"#utility.yul\":22551:22553   */\n      0x18\n        /* \"#utility.yul\":22546:22549   */\n      dup4\n        /* \"#utility.yul\":22487:22554   */\n      tag_227\n      jump\t// in\n    tag_515:\n        /* \"#utility.yul\":22480:22554   */\n      swap2\n      pop\n        /* \"#utility.yul\":22563:22656   */\n      tag_516\n        /* \"#utility.yul\":22652:22655   */\n      dup3\n        /* \"#utility.yul\":22563:22656   */\n      tag_282\n      jump\t// in\n    tag_516:\n        /* \"#utility.yul\":22681:22683   */\n      0x20\n        /* \"#utility.yul\":22676:22679   */\n      dup3\n        /* \"#utility.yul\":22672:22684   */\n      add\n        /* \"#utility.yul\":22665:22684   */\n      swap1\n      pop\n        /* \"#utility.yul\":22324:22690   */\n      swap2\n      swap1\n      pop\n      jump\t// out\n        /* \"#utility.yul\":22696:23115   */\n    tag_178:\n        /* \"#utility.yul\":22862:22866   */\n      0x00\n        /* \"#utility.yul\":22900:22902   */\n      0x20\n        /* \"#utility.yul\":22889:22898   */\n      dup3\n        /* \"#utility.yul\":22885:22903   */\n      add\n        /* \"#utility.yul\":22877:22903   */\n      swap1\n      pop\n        /* \"#utility.yul\":22949:22958   */\n      dup2\n        /* \"#utility.yul\":22943:22947   */\n      dup2\n        /* \"#utility.yul\":22939:22959   */\n      sub\n        /* \"#utility.yul\":22935:22936   */\n      0x00\n        /* \"#utility.yul\":22924:22933   */\n      dup4\n        /* \"#utility.yul\":22920:22937   */\n      add\n        /* \"#utility.yul\":22913:22960   */\n      mstore\n        /* \"#utility.yul\":22977:23108   */\n      tag_518\n        /* \"#utility.yul\":23103:23107   */\n      dup2\n        /* \"#utility.yul\":22977:23108   */\n      tag_283\n      jump\t// in\n    tag_518:\n        /* \"#utility.yul\":22969:23108   */\n      swap1\n      pop\n        /* \"#utility.yul\":22696:23115   */\n      swap2\n      swap1\n      pop\n      jump\t// out\n        /* \"#utility.yul\":23121:23284   */\n    tag_284:\n        /* \"#utility.yul\":23261:23276   */\n      0x496e76616c696420746965722e00000000000000000000000000000000000000\n        /* \"#utility.yul\":23257:23258   */\n      0x00\n        /* \"#utility.yul\":23249:23255   */\n      dup3\n        /* \"#utility.yul\":23245:23259   */\n      add\n        /* \"#utility.yul\":23238:23277   */\n      mstore\n        /* \"#utility.yul\":23121:23284   */\n      pop\n      jump\t// out\n        /* \"#utility.yul\":23290:23656   */\n    tag_285:\n        /* \"#utility.yul\":23432:23435   */\n      0x00\n        /* \"#utility.yul\":23453:23520   */\n      tag_521\n        /* \"#utility.yul\":23517:23519   */\n      0x0d\n        /* \"#utility.yul\":23512:23515   */\n      dup4\n        /* \"#utility.yul\":23453:23520   */\n      tag_227\n      jump\t// in\n    tag_521:\n        /* \"#utility.yul\":23446:23520   */\n      swap2\n      pop\n        /* \"#utility.yul\":23529:23622   */\n      tag_522\n        /* \"#utility.yul\":23618:23621   */\n      dup3\n        /* \"#utility.yul\":23529:23622   */\n      tag_284\n      jump\t// in\n    tag_522:\n        /* \"#utility.yul\":23647:23649   */\n      0x20\n        /* \"#utility.yul\":23642:23645   */\n      dup3\n        /* \"#utility.yul\":23638:23650   */\n      add\n        /* \"#utility.yul\":23631:23650   */\n      swap1\n      pop\n        /* \"#utility.yul\":23290:23656   */\n      swap2\n      swap1\n      pop\n      jump\t// out\n        /* \"#utility.yul\":23662:24081   */\n    tag_182:\n        /* \"#utility.yul\":23828:23832   */\n      0x00\n        /* \"#utility.yul\":23866:23868   */\n      0x20\n        /* \"#utility.yul\":23855:23864   */\n      dup3\n        /* \"#utility.yul\":23851:23869   */\n      add\n        /* \"#utility.yul\":23843:23869   */\n      swap1\n      pop\n        /* \"#utility.yul\":23915:23924   */\n      dup2\n        /* \"#utility.yul\":23909:23913   */\n      dup2\n        /* \"#utility.yul\":23905:23925   */\n      sub\n        /* \"#utility.yul\":23901:23902   */\n      0x00\n        /* \"#utility.yul\":23890:23899   */\n      dup4\n        /* \"#utility.yul\":23886:23903   */\n      add\n        /* \"#utility.yul\":23879:23926   */\n      mstore\n        /* \"#utility.yul\":23943:24074   */\n      tag_524\n        /* \"#utility.yul\":24069:24073   */\n      dup2\n        /* \"#utility.yul\":23943:24074   */\n      tag_285\n      jump\t// in\n    tag_524:\n        /* \"#utility.yul\":23935:24074   */\n      swap1\n      pop\n        /* \"#utility.yul\":23662:24081   */\n      swap2\n      swap1\n      pop\n      jump\t// out\n        /* \"#utility.yul\":24087:24253   */\n    tag_286:\n        /* \"#utility.yul\":24227:24245   */\n      0x496e636f727265637420616d6f756e7400000000000000000000000000000000\n        /* \"#utility.yul\":24223:24224   */\n      0x00\n        /* \"#utility.yul\":24215:24221   */\n      dup3\n        /* \"#utility.yul\":24211:24225   */\n      add\n        /* \"#utility.yul\":24204:24246   */\n      mstore\n        /* \"#utility.yul\":24087:24253   */\n      pop\n      jump\t// out\n        /* \"#utility.yul\":24259:24625   */\n    tag_287:\n        /* \"#utility.yul\":24401:24404   */\n      0x00\n        /* \"#utility.yul\":24422:24489   */\n      tag_527\n        /* \"#utility.yul\":24486:24488   */\n      0x10\n        /* \"#utility.yul\":24481:24484   */\n      dup4\n        /* \"#utility.yul\":24422:24489   */\n      tag_227\n      jump\t// in\n    tag_527:\n        /* \"#utility.yul\":24415:24489   */\n      swap2\n      pop\n        /* \"#utility.yul\":24498:24591   */\n      tag_528\n        /* \"#utility.yul\":24587:24590   */\n      dup3\n        /* \"#utility.yul\":24498:24591   */\n      tag_286\n      jump\t// in\n    tag_528:\n        /* \"#utility.yul\":24616:24618   */\n      0x20\n        /* \"#utility.yul\":24611:24614   */\n      dup3\n        /* \"#utility.yul\":24607:24619   */\n      add\n        /* \"#utility.yul\":24600:24619   */\n      swap1\n      pop\n        /* \"#utility.yul\":24259:24625   */\n      swap2\n      swap1\n      pop\n      jump\t// out\n        /* \"#utility.yul\":24631:25050   */\n    tag_188:\n        /* \"#utility.yul\":24797:24801   */\n      0x00\n        /* \"#utility.yul\":24835:24837   */\n      0x20\n        /* \"#utility.yul\":24824:24833   */\n      dup3\n        /* \"#utility.yul\":24820:24838   */\n      add\n        /* \"#utility.yul\":24812:24838   */\n      swap1\n      pop\n        /* \"#utility.yul\":24884:24893   */\n      dup2\n        /* \"#utility.yul\":24878:24882   */\n      dup2\n        /* \"#utility.yul\":24874:24894   */\n      sub\n        /* \"#utility.yul\":24870:24871   */\n      0x00\n        /* \"#utility.yul\":24859:24868   */\n      dup4\n        /* \"#utility.yul\":24855:24872   */\n      add\n        /* \"#utility.yul\":24848:24895   */\n      mstore\n        /* \"#utility.yul\":24912:25043   */\n      tag_530\n        /* \"#utility.yul\":25038:25042   */\n      dup2\n        /* \"#utility.yul\":24912:25043   */\n      tag_287\n      jump\t// in\n    tag_530:\n        /* \"#utility.yul\":24904:25043   */\n      swap1\n      pop\n        /* \"#utility.yul\":24631:25050   */\n      swap2\n      swap1\n      pop\n      jump\t// out\n        /* \"#utility.yul\":25056:25289   */\n    tag_193:\n        /* \"#utility.yul\":25095:25098   */\n      0x00\n        /* \"#utility.yul\":25118:25142   */\n      tag_532\n        /* \"#utility.yul\":25136:25141   */\n      dup3\n        /* \"#utility.yul\":25118:25142   */\n      tag_223\n      jump\t// in\n    tag_532:\n        /* \"#utility.yul\":25109:25142   */\n      swap2\n      pop\n        /* \"#utility.yul\":25164:25230   */\n      0xffffffffffffffffffffffffffffffffffffffffffffffffffffffffffffffff\n        /* \"#utility.yul\":25157:25162   */\n      dup3\n        /* \"#utility.yul\":25154:25231   */\n      sub\n        /* \"#utility.yul\":25151:25254   */\n      tag_533\n      jumpi\n        /* \"#utility.yul\":25234:25252   */\n      tag_534\n      tag_263\n      jump\t// in\n    tag_534:\n        /* \"#utility.yul\":25151:25254   */\n    tag_533:\n        /* \"#utility.yul\":25281:25282   */\n      0x01\n        /* \"#utility.yul\":25274:25279   */\n      dup3\n        /* \"#utility.yul\":25270:25283   */\n      add\n        /* \"#utility.yul\":25263:25283   */\n      swap1\n      pop\n        /* \"#utility.yul\":25056:25289   */\n      swap2\n      swap1\n      pop\n      jump\t// out\n        /* \"#utility.yul\":25295:25486   */\n    tag_195:\n        /* \"#utility.yul\":25335:25338   */\n      0x00\n        /* \"#utility.yul\":25354:25374   */\n      tag_536\n        /* \"#utility.yul\":25372:25373   */\n      dup3\n        /* \"#utility.yul\":25354:25374   */\n      tag_223\n      jump\t// in\n    tag_536:\n        /* \"#utility.yul\":25349:25374   */\n      swap2\n      pop\n        /* \"#utility.yul\":25388:25408   */\n      tag_537\n        /* \"#utility.yul\":25406:25407   */\n      dup4\n        /* \"#utility.yul\":25388:25408   */\n      tag_223\n      jump\t// in\n    tag_537:\n        /* \"#utility.yul\":25383:25408   */\n      swap3\n      pop\n        /* \"#utility.yul\":25431:25432   */\n      dup3\n        /* \"#utility.yul\":25428:25429   */\n      dup3\n        /* \"#utility.yul\":25424:25433   */\n      add\n        /* \"#utility.yul\":25417:25433   */\n      swap1\n      pop\n        /* \"#utility.yul\":25452:25455   */\n      dup1\n        /* \"#utility.yul\":25449:25450   */\n      dup3\n        /* \"#utility.yul\":25446:25456   */\n      gt\n        /* \"#utility.yul\":25443:25479   */\n      iszero\n      tag_538\n      jumpi\n        /* \"#utility.yul\":25459:25477   */\n      tag_539\n      tag_263\n      jump\t// in\n    tag_539:\n        /* \"#utility.yul\":25443:25479   */\n    tag_538:\n        /* \"#utility.yul\":25295:25486   */\n      swap3\n      swap2\n      pop\n      pop\n      jump\t// out\n\n    auxdata: 0xa26469706673582212205c441a5efc3cbe7c6868bd066a429f54472336ada38c3c5146dc16b94f83904664736f6c634300081e0033\n}\n",
				"bytecode": {
					"linkReferences": {},
					"object": "608060405234801561000f575f5ffd5b506040516123093803806123098339818101604052810190610031919061026a565b835f908161003f919061050d565b50826001908161004f919061050d565b508160028190555062015180816100669190610609565b42610071919061064a565b6003819055503360045f6101000a81548173ffffffffffffffffffffffffffffffffffffffff021916908373ffffffffffffffffffffffffffffffffffffffff1602179055505f600460146101000a81548160ff021916908360028111156100dc576100db61067d565b5b0217905550505050506106aa565b5f604051905090565b5f5ffd5b5f5ffd5b5f5ffd5b5f5ffd5b5f601f19601f8301169050919050565b7f4e487b71000000000000000000000000000000000000000000000000000000005f52604160045260245ffd5b61014982610103565b810181811067ffffffffffffffff8211171561016857610167610113565b5b80604052505050565b5f61017a6100ea565b90506101868282610140565b919050565b5f67ffffffffffffffff8211156101a5576101a4610113565b5b6101ae82610103565b9050602081019050919050565b8281835e5f83830152505050565b5f6101db6101d68461018b565b610171565b9050828152602081018484840111156101f7576101f66100ff565b5b6102028482856101bb565b509392505050565b5f82601f83011261021e5761021d6100fb565b5b815161022e8482602086016101c9565b91505092915050565b5f819050919050565b61024981610237565b8114610253575f5ffd5b50565b5f8151905061026481610240565b92915050565b5f5f5f5f60808587031215610282576102816100f3565b5b5f85015167ffffffffffffffff81111561029f5761029e6100f7565b5b6102ab8782880161020a565b945050602085015167ffffffffffffffff8111156102cc576102cb6100f7565b5b6102d88782880161020a565b93505060406102e987828801610256565b92505060606102fa87828801610256565b91505092959194509250565b5f81519050919050565b7f4e487b71000000000000000000000000000000000000000000000000000000005f52602260045260245ffd5b5f600282049050600182168061035457607f821691505b60208210810361036757610366610310565b5b50919050565b5f819050815f5260205f209050919050565b5f6020601f8301049050919050565b5f82821b905092915050565b5f600883026103c97fffffffffffffffffffffffffffffffffffffffffffffffffffffffffffffffff8261038e565b6103d3868361038e565b95508019841693508086168417925050509392505050565b5f819050919050565b5f61040e61040961040484610237565b6103eb565b610237565b9050919050565b5f819050919050565b610427836103f4565b61043b61043382610415565b84845461039a565b825550505050565b5f5f905090565b610452610443565b61045d81848461041e565b505050565b5b81811015610480576104755f8261044a565b600181019050610463565b5050565b601f8211156104c5576104968161036d565b61049f8461037f565b810160208510156104ae578190505b6104c26104ba8561037f565b830182610462565b50505b505050565b5f82821c905092915050565b5f6104e55f19846008026104ca565b1980831691505092915050565b5f6104fd83836104d6565b9150826002028217905092915050565b61051682610306565b67ffffffffffffffff81111561052f5761052e610113565b5b610539825461033d565b610544828285610484565b5f60209050601f831160018114610575575f8415610563578287015190505b61056d85826104f2565b8655506105d4565b601f1984166105838661036d565b5f5b828110156105aa57848901518255600182019150602085019450602081019050610585565b868310156105c757848901516105c3601f8916826104d6565b8355505b6001600288020188555050505b505050505050565b7f4e487b71000000000000000000000000000000000000000000000000000000005f52601160045260245ffd5b5f61061382610237565b915061061e83610237565b925082820261062c81610237565b91508282048414831517610643576106426105dc565b5b5092915050565b5f61065482610237565b915061065f83610237565b9250828201905080821115610677576106766105dc565b5b92915050565b7f4e487b71000000000000000000000000000000000000000000000000000000005f52602160045260245ffd5b611c52806106b75f395ff3fe6080604052600436106100e7575f3560e01c80637284e416116100895780638ece7b91116100585780638ece7b91146102b5578063b85dfb80146102dd578063c19d93fb14610319578063ca1d209d14610343576100e7565b80637284e416146101fd5780637497211b146102275780637adba5271461024f5780638da5cb5b1461028b576100e7565b80633ccfd60b116100c55780633ccfd60b1461017d5780634019388314610193578063590e1ae3146101bd5780636f9fb98a146101d3576100e7565b8063039af9eb146100eb57806306fdde031461012957806329dcb0cf14610153575b5f5ffd5b3480156100f6575f5ffd5b50610111600480360381019061010c9190610f2b565b61035f565b60405161012093929190610fd5565b60405180910390f35b348015610134575f5ffd5b5061013d61041a565b60405161014a9190611011565b60405180910390f35b34801561015e575f5ffd5b506101676104a5565b6040516101749190611031565b60405180910390f35b348015610188575f5ffd5b506101916104ab565b005b34801561019e575f5ffd5b506101a7610666565b6040516101b49190611031565b60405180910390f35b3480156101c8575f5ffd5b506101d161066c565b005b3480156101de575f5ffd5b506101e7610785565b6040516101f49190611031565b60405180910390f35b348015610208575f5ffd5b5061021161078c565b60405161021e9190611011565b60405180910390f35b348015610232575f5ffd5b5061024d60048036038101906102489190610f2b565b610818565b005b34801561025a575f5ffd5b50610275600480360381019061027091906110a4565b6109b1565b60405161028291906110fc565b60405180910390f35b348015610296575f5ffd5b5061029f610a16565b6040516102ac9190611124565b60405180910390f35b3480156102c0575f5ffd5b506102db60048036038101906102d69190611269565b610a3b565b005b3480156102e8575f5ffd5b5061030360048036038101906102fe91906112c3565b610b7d565b6040516103109190611031565b60405180910390f35b348015610324575f5ffd5b5061032d610b97565b60405161033a9190611361565b60405180910390f35b61035d60048036038101906103589190610f2b565b610baa565b005b6005818154811061036e575f80fd5b905f5260205f2090600302015f91509050805f01805461038d906113a7565b80601f01602080910402602001604051908101604052809291908181526020018280546103b9906113a7565b80156104045780601f106103db57610100808354040283529160200191610404565b820191905f5260205f20905b8154815290600101906020018083116103e757829003601f168201915b5050505050908060010154908060020154905083565b5f8054610426906113a7565b80601f0160208091040260200160405190810160405280929190818152602001828054610452906113a7565b801561049d5780601f106104745761010080835404028352916020019161049d565b820191905f5260205f20905b81548152906001019060200180831161048057829003601f168201915b505050505081565b60035481565b60045f9054906101000a900473ffffffffffffffffffffffffffffffffffffffff1673ffffffffffffffffffffffffffffffffffffffff163373ffffffffffffffffffffffffffffffffffffffff161461053a576040517f08c379a000000000000000000000000000000000000000000000000000000000815260040161053190611421565b60405180910390fd5b610542610dca565b60016002811115610556576105556112ee565b5b600460149054906101000a900460ff166002811115610578576105776112ee565b5b146105b8576040517f08c379a00000000000000000000000000000000000000000000000000000000081526004016105af90611489565b60405180910390fd5b5f4790505f81116105fe576040517f08c379a00000000000000000000000000000000000000000000000000000000081526004016105f5906114f1565b60405180910390fd5b60045f9054906101000a900473ffffffffffffffffffffffffffffffffffffffff1673ffffffffffffffffffffffffffffffffffffffff166108fc8290811502906040515f60405180830381858888f19350505050158015610662573d5f5f3e3d5ffd5b5050565b60025481565b610674610dca565b5f60065f3373ffffffffffffffffffffffffffffffffffffffff1673ffffffffffffffffffffffffffffffffffffffff1681526020019081526020015f205f015490505f8110156106fa576040517f08c379a00000000000000000000000000000000000000000000000000000000081526004016106f190611559565b60405180910390fd5b5f60065f3373ffffffffffffffffffffffffffffffffffffffff1673ffffffffffffffffffffffffffffffffffffffff1681526020019081526020015f205f01819055503373ffffffffffffffffffffffffffffffffffffffff166108fc8290811502906040515f60405180830381858888f19350505050158015610781573d5f5f3e3d5ffd5b5050565b5f47905090565b60018054610799906113a7565b80601f01602080910402602001604051908101604052809291908181526020018280546107c5906113a7565b80156108105780601f106107e757610100808354040283529160200191610810565b820191905f5260205f20905b8154815290600101906020018083116107f357829003601f168201915b505050505081565b60045f9054906101000a900473ffffffffffffffffffffffffffffffffffffffff1673ffffffffffffffffffffffffffffffffffffffff163373ffffffffffffffffffffffffffffffffffffffff16146108a7576040517f08c379a000000000000000000000000000000000000000000000000000000000815260040161089e90611421565b60405180910390fd5b60058054905081106108ee576040517f08c379a00000000000000000000000000000000000000000000000000000000081526004016108e5906115c1565b60405180910390fd5b60056001600580549050610902919061160c565b815481106109135761091261163f565b5b905f5260205f209060030201600582815481106109335761093261163f565b5b905f5260205f2090600302015f8201815f0190816109519190611821565b506001820154816001015560028201548160020155905050600580548061097b5761097a611906565b5b600190038181905f5260205f2090600302015f5f82015f61099c9190610e8f565b600182015f9055600282015f90555050905550565b5f60065f8473ffffffffffffffffffffffffffffffffffffffff1673ffffffffffffffffffffffffffffffffffffffff1681526020019081526020015f206001015f8381526020019081526020015f205f9054906101000a900460ff16905092915050565b60045f9054906101000a900473ffffffffffffffffffffffffffffffffffffffff1681565b60045f9054906101000a900473ffffffffffffffffffffffffffffffffffffffff1673ffffffffffffffffffffffffffffffffffffffff163373ffffffffffffffffffffffffffffffffffffffff1614610aca576040517f08c379a0000000000000000000000000000000000000000000000000000000008152600401610ac190611421565b60405180910390fd5b5f8111610b0c576040517f08c379a0000000000000000000000000000000000000000000000000000000008152600401610b039061197d565b60405180910390fd5b600560405180606001604052808481526020018381526020015f815250908060018154018082558091505060019003905f5260205f2090600302015f909190919091505f820151815f019081610b62919061199b565b50602082015181600101556040820151816002015550505050565b6006602052805f5260405f205f91509050805f0154905081565b600460149054906101000a900460ff1681565b5f6002811115610bbd57610bbc6112ee565b5b600460149054906101000a900460ff166002811115610bdf57610bde6112ee565b5b14610c1f576040517f08c379a0000000000000000000000000000000000000000000000000000000008152600401610c1690611ab4565b60405180910390fd5b6005805490508110610c66576040517f08c379a0000000000000000000000000000000000000000000000000000000008152600401610c5d90611b1c565b60405180910390fd5b60058181548110610c7a57610c7961163f565b5b905f5260205f209060030201600101543414610ccb576040517f08c379a0000000000000000000000000000000000000000000000000000000008152600401610cc290611b84565b60405180910390fd5b60058181548110610cdf57610cde61163f565b5b905f5260205f2090600302016002015f815480929190610cfe90611ba2565b91905055503460065f3373ffffffffffffffffffffffffffffffffffffffff1673ffffffffffffffffffffffffffffffffffffffff1681526020019081526020015f205f015f828254610d519190611be9565b92505081905550600160065f3373ffffffffffffffffffffffffffffffffffffffff1673ffffffffffffffffffffffffffffffffffffffff1681526020019081526020015f206001015f8381526020019081526020015f205f6101000a81548160ff021916908315150217905550610dc7610dca565b50565b5f6002811115610ddd57610ddc6112ee565b5b600460149054906101000a900460ff166002811115610dff57610dfe6112ee565b5b03610e8d576003544210610e4f57600254471015610e1e576002610e21565b60015b600460146101000a81548160ff02191690836002811115610e4557610e446112ee565b5b0217905550610e8c565b600254471015610e5f575f610e62565b60015b600460146101000a81548160ff02191690836002811115610e8657610e856112ee565b5b02179055505b5b565b508054610e9b906113a7565b5f825580601f10610eac5750610ec9565b601f0160209004905f5260205f2090810190610ec89190610ecc565b5b50565b5b80821115610ee3575f815f905550600101610ecd565b5090565b5f604051905090565b5f5ffd5b5f5ffd5b5f819050919050565b610f0a81610ef8565b8114610f14575f5ffd5b50565b5f81359050610f2581610f01565b92915050565b5f60208284031215610f4057610f3f610ef0565b5b5f610f4d84828501610f17565b91505092915050565b5f81519050919050565b5f82825260208201905092915050565b8281835e5f83830152505050565b5f601f19601f8301169050919050565b5f610f9882610f56565b610fa28185610f60565b9350610fb2818560208601610f70565b610fbb81610f7e565b840191505092915050565b610fcf81610ef8565b82525050565b5f6060820190508181035f830152610fed8186610f8e565b9050610ffc6020830185610fc6565b6110096040830184610fc6565b949350505050565b5f6020820190508181035f8301526110298184610f8e565b905092915050565b5f6020820190506110445f830184610fc6565b92915050565b5f73ffffffffffffffffffffffffffffffffffffffff82169050919050565b5f6110738261104a565b9050919050565b61108381611069565b811461108d575f5ffd5b50565b5f8135905061109e8161107a565b92915050565b5f5f604083850312156110ba576110b9610ef0565b5b5f6110c785828601611090565b92505060206110d885828601610f17565b9150509250929050565b5f8115159050919050565b6110f6816110e2565b82525050565b5f60208201905061110f5f8301846110ed565b92915050565b61111e81611069565b82525050565b5f6020820190506111375f830184611115565b92915050565b5f5ffd5b5f5ffd5b7f4e487b71000000000000000000000000000000000000000000000000000000005f52604160045260245ffd5b61117b82610f7e565b810181811067ffffffffffffffff8211171561119a57611199611145565b5b80604052505050565b5f6111ac610ee7565b90506111b88282611172565b919050565b5f67ffffffffffffffff8211156111d7576111d6611145565b5b6111e082610f7e565b9050602081019050919050565b828183375f83830152505050565b5f61120d611208846111bd565b6111a3565b90508281526020810184848401111561122957611228611141565b5b6112348482856111ed565b509392505050565b5f82601f8301126112505761124f61113d565b5b81356112608482602086016111fb565b91505092915050565b5f5f6040838503121561127f5761127e610ef0565b5b5f83013567ffffffffffffffff81111561129c5761129b610ef4565b5b6112a88582860161123c565b92505060206112b985828601610f17565b9150509250929050565b5f602082840312156112d8576112d7610ef0565b5b5f6112e584828501611090565b91505092915050565b7f4e487b71000000000000000000000000000000000000000000000000000000005f52602160045260245ffd5b6003811061132c5761132b6112ee565b5b50565b5f81905061133c8261131b565b919050565b5f61134b8261132f565b9050919050565b61135b81611341565b82525050565b5f6020820190506113745f830184611352565b92915050565b7f4e487b71000000000000000000000000000000000000000000000000000000005f52602260045260245ffd5b5f60028204905060018216806113be57607f821691505b6020821081036113d1576113d061137a565b5b50919050565b7f54686520636f6e7472616374206973206e6f74206f776e6564206279207468655f82015250565b5f61140b602083610f60565b9150611416826113d7565b602082019050919050565b5f6020820190508181035f830152611438816113ff565b9050919050565b7f43616d706169676e206973206e6f74207375636365737366756c2e00000000005f82015250565b5f611473601b83610f60565b915061147e8261143f565b602082019050919050565b5f6020820190508181035f8301526114a081611467565b9050919050565b7f4e6f2062616c616e636520746f207769746864726177000000000000000000005f82015250565b5f6114db601683610f60565b91506114e6826114a7565b602082019050919050565b5f6020820190508181035f830152611508816114cf565b9050919050565b7f4e6f20636f6e747269627574696f6e20746f20726566756e64000000000000005f82015250565b5f611543601983610f60565b915061154e8261150f565b602082019050919050565b5f6020820190508181035f83015261157081611537565b9050919050565b7f5469657220646f6573206e6f74206578697374000000000000000000000000005f82015250565b5f6115ab601383610f60565b91506115b682611577565b602082019050919050565b5f6020820190508181035f8301526115d88161159f565b9050919050565b7f4e487b71000000000000000000000000000000000000000000000000000000005f52601160045260245ffd5b5f61161682610ef8565b915061162183610ef8565b9250828203905081811115611639576116386115df565b5b92915050565b7f4e487b71000000000000000000000000000000000000000000000000000000005f52603260045260245ffd5b5f8154905061167a816113a7565b9050919050565b5f819050815f5260205f209050919050565b5f6020601f8301049050919050565b5f82821b905092915050565b5f600883026116dd7fffffffffffffffffffffffffffffffffffffffffffffffffffffffffffffffff826116a2565b6116e786836116a2565b95508019841693508086168417925050509392505050565b5f819050919050565b5f61172261171d61171884610ef8565b6116ff565b610ef8565b9050919050565b5f819050919050565b61173b83611708565b61174f61174782611729565b8484546116ae565b825550505050565b5f5f905090565b611766611757565b611771818484611732565b505050565b5b81811015611794576117895f8261175e565b600181019050611777565b5050565b601f8211156117d9576117aa81611681565b6117b384611693565b810160208510156117c2578190505b6117d66117ce85611693565b830182611776565b50505b505050565b5f82821c905092915050565b5f6117f95f19846008026117de565b1980831691505092915050565b5f61181183836117ea565b9150826002028217905092915050565b81810361182f575050611904565b6118388261166c565b67ffffffffffffffff81111561185157611850611145565b5b61185b82546113a7565b611866828285611798565b5f601f831160018114611893575f8415611881578287015490505b61188b8582611806565b8655506118fd565b601f1984166118a187611681565b96506118ac86611681565b5f5b828110156118d3578489015482556001820191506001850194506020810190506118ae565b868310156118f057848901546118ec601f8916826117ea565b8355505b6001600288020188555050505b5050505050505b565b7f4e487b71000000000000000000000000000000000000000000000000000000005f52603160045260245ffd5b7f416d6f756e742063616e6e6f7420756e646572203000000000000000000000005f82015250565b5f611967601583610f60565b915061197282611933565b602082019050919050565b5f6020820190508181035f8301526119948161195b565b9050919050565b6119a482610f56565b67ffffffffffffffff8111156119bd576119bc611145565b5b6119c782546113a7565b6119d2828285611798565b5f60209050601f831160018114611a03575f84156119f1578287015190505b6119fb8582611806565b865550611a62565b601f198416611a1186611681565b5f5b82811015611a3857848901518255600182019150602085019450602081019050611a13565b86831015611a555784890151611a51601f8916826117ea565b8355505b6001600288020188555050505b505050505050565b7f5468652063616d706169676e206973206e6f74206f70656e00000000000000005f82015250565b5f611a9e601883610f60565b9150611aa982611a6a565b602082019050919050565b5f6020820190508181035f830152611acb81611a92565b9050919050565b7f496e76616c696420746965722e000000000000000000000000000000000000005f82015250565b5f611b06600d83610f60565b9150611b1182611ad2565b602082019050919050565b5f6020820190508181035f830152611b3381611afa565b9050919050565b7f496e636f727265637420616d6f756e74000000000000000000000000000000005f82015250565b5f611b6e601083610f60565b9150611b7982611b3a565b602082019050919050565b5f6020820190508181035f830152611b9b81611b62565b9050919050565b5f611bac82610ef8565b91507fffffffffffffffffffffffffffffffffffffffffffffffffffffffffffffffff8203611bde57611bdd6115df565b5b600182019050919050565b5f611bf382610ef8565b9150611bfe83610ef8565b9250828201905080821115611c1657611c156115df565b5b9291505056fea26469706673582212205c441a5efc3cbe7c6868bd066a429f54472336ada38c3c5146dc16b94f83904664736f6c634300081e0033",
					"opcodes": "PUSH1 0x80 PUSH1 0x40 MSTORE CALLVALUE DUP1 ISZERO PUSH2 0xF JUMPI PUSH0 PUSH0 REVERT JUMPDEST POP PUSH1 0x40 MLOAD PUSH2 0x2309 CODESIZE SUB DUP1 PUSH2 0x2309 DUP4 CODECOPY DUP2 DUP2 ADD PUSH1 0x40 MSTORE DUP2 ADD SWAP1 PUSH2 0x31 SWAP2 SWAP1 PUSH2 0x26A JUMP JUMPDEST DUP4 PUSH0 SWAP1 DUP2 PUSH2 0x3F SWAP2 SWAP1 PUSH2 0x50D JUMP JUMPDEST POP DUP3 PUSH1 0x1 SWAP1 DUP2 PUSH2 0x4F SWAP2 SWAP1 PUSH2 0x50D JUMP JUMPDEST POP DUP2 PUSH1 0x2 DUP2 SWAP1 SSTORE POP PUSH3 0x15180 DUP2 PUSH2 0x66 SWAP2 SWAP1 PUSH2 0x609 JUMP JUMPDEST TIMESTAMP PUSH2 0x71 SWAP2 SWAP1 PUSH2 0x64A JUMP JUMPDEST PUSH1 0x3 DUP2 SWAP1 SSTORE POP CALLER PUSH1 0x4 PUSH0 PUSH2 0x100 EXP DUP2 SLOAD DUP2 PUSH20 0xFFFFFFFFFFFFFFFFFFFFFFFFFFFFFFFFFFFFFFFF MUL NOT AND SWAP1 DUP4 PUSH20 0xFFFFFFFFFFFFFFFFFFFFFFFFFFFFFFFFFFFFFFFF AND MUL OR SWAP1 SSTORE POP PUSH0 PUSH1 0x4 PUSH1 0x14 PUSH2 0x100 EXP DUP2 SLOAD DUP2 PUSH1 0xFF MUL NOT AND SWAP1 DUP4 PUSH1 0x2 DUP2 GT ISZERO PUSH2 0xDC JUMPI PUSH2 0xDB PUSH2 0x67D JUMP JUMPDEST JUMPDEST MUL OR SWAP1 SSTORE POP POP POP POP POP PUSH2 0x6AA JUMP JUMPDEST PUSH0 PUSH1 0x40 MLOAD SWAP1 POP SWAP1 JUMP JUMPDEST PUSH0 PUSH0 REVERT JUMPDEST PUSH0 PUSH0 REVERT JUMPDEST PUSH0 PUSH0 REVERT JUMPDEST PUSH0 PUSH0 REVERT JUMPDEST PUSH0 PUSH1 0x1F NOT PUSH1 0x1F DUP4 ADD AND SWAP1 POP SWAP2 SWAP1 POP JUMP JUMPDEST PUSH32 0x4E487B7100000000000000000000000000000000000000000000000000000000 PUSH0 MSTORE PUSH1 0x41 PUSH1 0x4 MSTORE PUSH1 0x24 PUSH0 REVERT JUMPDEST PUSH2 0x149 DUP3 PUSH2 0x103 JUMP JUMPDEST DUP2 ADD DUP2 DUP2 LT PUSH8 0xFFFFFFFFFFFFFFFF DUP3 GT OR ISZERO PUSH2 0x168 JUMPI PUSH2 0x167 PUSH2 0x113 JUMP JUMPDEST JUMPDEST DUP1 PUSH1 0x40 MSTORE POP POP POP JUMP JUMPDEST PUSH0 PUSH2 0x17A PUSH2 0xEA JUMP JUMPDEST SWAP1 POP PUSH2 0x186 DUP3 DUP3 PUSH2 0x140 JUMP JUMPDEST SWAP2 SWAP1 POP JUMP JUMPDEST PUSH0 PUSH8 0xFFFFFFFFFFFFFFFF DUP3 GT ISZERO PUSH2 0x1A5 JUMPI PUSH2 0x1A4 PUSH2 0x113 JUMP JUMPDEST JUMPDEST PUSH2 0x1AE DUP3 PUSH2 0x103 JUMP JUMPDEST SWAP1 POP PUSH1 0x20 DUP2 ADD SWAP1 POP SWAP2 SWAP1 POP JUMP JUMPDEST DUP3 DUP2 DUP4 MCOPY PUSH0 DUP4 DUP4 ADD MSTORE POP POP POP JUMP JUMPDEST PUSH0 PUSH2 0x1DB PUSH2 0x1D6 DUP5 PUSH2 0x18B JUMP JUMPDEST PUSH2 0x171 JUMP JUMPDEST SWAP1 POP DUP3 DUP2 MSTORE PUSH1 0x20 DUP2 ADD DUP5 DUP5 DUP5 ADD GT ISZERO PUSH2 0x1F7 JUMPI PUSH2 0x1F6 PUSH2 0xFF JUMP JUMPDEST JUMPDEST PUSH2 0x202 DUP5 DUP3 DUP6 PUSH2 0x1BB JUMP JUMPDEST POP SWAP4 SWAP3 POP POP POP JUMP JUMPDEST PUSH0 DUP3 PUSH1 0x1F DUP4 ADD SLT PUSH2 0x21E JUMPI PUSH2 0x21D PUSH2 0xFB JUMP JUMPDEST JUMPDEST DUP2 MLOAD PUSH2 0x22E DUP5 DUP3 PUSH1 0x20 DUP7 ADD PUSH2 0x1C9 JUMP JUMPDEST SWAP2 POP POP SWAP3 SWAP2 POP POP JUMP JUMPDEST PUSH0 DUP2 SWAP1 POP SWAP2 SWAP1 POP JUMP JUMPDEST PUSH2 0x249 DUP2 PUSH2 0x237 JUMP JUMPDEST DUP2 EQ PUSH2 0x253 JUMPI PUSH0 PUSH0 REVERT JUMPDEST POP JUMP JUMPDEST PUSH0 DUP2 MLOAD SWAP1 POP PUSH2 0x264 DUP2 PUSH2 0x240 JUMP JUMPDEST SWAP3 SWAP2 POP POP JUMP JUMPDEST PUSH0 PUSH0 PUSH0 PUSH0 PUSH1 0x80 DUP6 DUP8 SUB SLT ISZERO PUSH2 0x282 JUMPI PUSH2 0x281 PUSH2 0xF3 JUMP JUMPDEST JUMPDEST PUSH0 DUP6 ADD MLOAD PUSH8 0xFFFFFFFFFFFFFFFF DUP2 GT ISZERO PUSH2 0x29F JUMPI PUSH2 0x29E PUSH2 0xF7 JUMP JUMPDEST JUMPDEST PUSH2 0x2AB DUP8 DUP3 DUP9 ADD PUSH2 0x20A JUMP JUMPDEST SWAP5 POP POP PUSH1 0x20 DUP6 ADD MLOAD PUSH8 0xFFFFFFFFFFFFFFFF DUP2 GT ISZERO PUSH2 0x2CC JUMPI PUSH2 0x2CB PUSH2 0xF7 JUMP JUMPDEST JUMPDEST PUSH2 0x2D8 DUP8 DUP3 DUP9 ADD PUSH2 0x20A JUMP JUMPDEST SWAP4 POP POP PUSH1 0x40 PUSH2 0x2E9 DUP8 DUP3 DUP9 ADD PUSH2 0x256 JUMP JUMPDEST SWAP3 POP POP PUSH1 0x60 PUSH2 0x2FA DUP8 DUP3 DUP9 ADD PUSH2 0x256 JUMP JUMPDEST SWAP2 POP POP SWAP3 SWAP6 SWAP2 SWAP5 POP SWAP3 POP JUMP JUMPDEST PUSH0 DUP2 MLOAD SWAP1 POP SWAP2 SWAP1 POP JUMP JUMPDEST PUSH32 0x4E487B7100000000000000000000000000000000000000000000000000000000 PUSH0 MSTORE PUSH1 0x22 PUSH1 0x4 MSTORE PUSH1 0x24 PUSH0 REVERT JUMPDEST PUSH0 PUSH1 0x2 DUP3 DIV SWAP1 POP PUSH1 0x1 DUP3 AND DUP1 PUSH2 0x354 JUMPI PUSH1 0x7F DUP3 AND SWAP2 POP JUMPDEST PUSH1 0x20 DUP3 LT DUP2 SUB PUSH2 0x367 JUMPI PUSH2 0x366 PUSH2 0x310 JUMP JUMPDEST JUMPDEST POP SWAP2 SWAP1 POP JUMP JUMPDEST PUSH0 DUP2 SWAP1 POP DUP2 PUSH0 MSTORE PUSH1 0x20 PUSH0 KECCAK256 SWAP1 POP SWAP2 SWAP1 POP JUMP JUMPDEST PUSH0 PUSH1 0x20 PUSH1 0x1F DUP4 ADD DIV SWAP1 POP SWAP2 SWAP1 POP JUMP JUMPDEST PUSH0 DUP3 DUP3 SHL SWAP1 POP SWAP3 SWAP2 POP POP JUMP JUMPDEST PUSH0 PUSH1 0x8 DUP4 MUL PUSH2 0x3C9 PUSH32 0xFFFFFFFFFFFFFFFFFFFFFFFFFFFFFFFFFFFFFFFFFFFFFFFFFFFFFFFFFFFFFFFF DUP3 PUSH2 0x38E JUMP JUMPDEST PUSH2 0x3D3 DUP7 DUP4 PUSH2 0x38E JUMP JUMPDEST SWAP6 POP DUP1 NOT DUP5 AND SWAP4 POP DUP1 DUP7 AND DUP5 OR SWAP3 POP POP POP SWAP4 SWAP3 POP POP POP JUMP JUMPDEST PUSH0 DUP2 SWAP1 POP SWAP2 SWAP1 POP JUMP JUMPDEST PUSH0 PUSH2 0x40E PUSH2 0x409 PUSH2 0x404 DUP5 PUSH2 0x237 JUMP JUMPDEST PUSH2 0x3EB JUMP JUMPDEST PUSH2 0x237 JUMP JUMPDEST SWAP1 POP SWAP2 SWAP1 POP JUMP JUMPDEST PUSH0 DUP2 SWAP1 POP SWAP2 SWAP1 POP JUMP JUMPDEST PUSH2 0x427 DUP4 PUSH2 0x3F4 JUMP JUMPDEST PUSH2 0x43B PUSH2 0x433 DUP3 PUSH2 0x415 JUMP JUMPDEST DUP5 DUP5 SLOAD PUSH2 0x39A JUMP JUMPDEST DUP3 SSTORE POP POP POP POP JUMP JUMPDEST PUSH0 PUSH0 SWAP1 POP SWAP1 JUMP JUMPDEST PUSH2 0x452 PUSH2 0x443 JUMP JUMPDEST PUSH2 0x45D DUP2 DUP5 DUP5 PUSH2 0x41E JUMP JUMPDEST POP POP POP JUMP JUMPDEST JUMPDEST DUP2 DUP2 LT ISZERO PUSH2 0x480 JUMPI PUSH2 0x475 PUSH0 DUP3 PUSH2 0x44A JUMP JUMPDEST PUSH1 0x1 DUP2 ADD SWAP1 POP PUSH2 0x463 JUMP JUMPDEST POP POP JUMP JUMPDEST PUSH1 0x1F DUP3 GT ISZERO PUSH2 0x4C5 JUMPI PUSH2 0x496 DUP2 PUSH2 0x36D JUMP JUMPDEST PUSH2 0x49F DUP5 PUSH2 0x37F JUMP JUMPDEST DUP2 ADD PUSH1 0x20 DUP6 LT ISZERO PUSH2 0x4AE JUMPI DUP2 SWAP1 POP JUMPDEST PUSH2 0x4C2 PUSH2 0x4BA DUP6 PUSH2 0x37F JUMP JUMPDEST DUP4 ADD DUP3 PUSH2 0x462 JUMP JUMPDEST POP POP JUMPDEST POP POP POP JUMP JUMPDEST PUSH0 DUP3 DUP3 SHR SWAP1 POP SWAP3 SWAP2 POP POP JUMP JUMPDEST PUSH0 PUSH2 0x4E5 PUSH0 NOT DUP5 PUSH1 0x8 MUL PUSH2 0x4CA JUMP JUMPDEST NOT DUP1 DUP4 AND SWAP2 POP POP SWAP3 SWAP2 POP POP JUMP JUMPDEST PUSH0 PUSH2 0x4FD DUP4 DUP4 PUSH2 0x4D6 JUMP JUMPDEST SWAP2 POP DUP3 PUSH1 0x2 MUL DUP3 OR SWAP1 POP SWAP3 SWAP2 POP POP JUMP JUMPDEST PUSH2 0x516 DUP3 PUSH2 0x306 JUMP JUMPDEST PUSH8 0xFFFFFFFFFFFFFFFF DUP2 GT ISZERO PUSH2 0x52F JUMPI PUSH2 0x52E PUSH2 0x113 JUMP JUMPDEST JUMPDEST PUSH2 0x539 DUP3 SLOAD PUSH2 0x33D JUMP JUMPDEST PUSH2 0x544 DUP3 DUP3 DUP6 PUSH2 0x484 JUMP JUMPDEST PUSH0 PUSH1 0x20 SWAP1 POP PUSH1 0x1F DUP4 GT PUSH1 0x1 DUP2 EQ PUSH2 0x575 JUMPI PUSH0 DUP5 ISZERO PUSH2 0x563 JUMPI DUP3 DUP8 ADD MLOAD SWAP1 POP JUMPDEST PUSH2 0x56D DUP6 DUP3 PUSH2 0x4F2 JUMP JUMPDEST DUP7 SSTORE POP PUSH2 0x5D4 JUMP JUMPDEST PUSH1 0x1F NOT DUP5 AND PUSH2 0x583 DUP7 PUSH2 0x36D JUMP JUMPDEST PUSH0 JUMPDEST DUP3 DUP2 LT ISZERO PUSH2 0x5AA JUMPI DUP5 DUP10 ADD MLOAD DUP3 SSTORE PUSH1 0x1 DUP3 ADD SWAP2 POP PUSH1 0x20 DUP6 ADD SWAP5 POP PUSH1 0x20 DUP2 ADD SWAP1 POP PUSH2 0x585 JUMP JUMPDEST DUP7 DUP4 LT ISZERO PUSH2 0x5C7 JUMPI DUP5 DUP10 ADD MLOAD PUSH2 0x5C3 PUSH1 0x1F DUP10 AND DUP3 PUSH2 0x4D6 JUMP JUMPDEST DUP4 SSTORE POP JUMPDEST PUSH1 0x1 PUSH1 0x2 DUP9 MUL ADD DUP9 SSTORE POP POP POP JUMPDEST POP POP POP POP POP POP JUMP JUMPDEST PUSH32 0x4E487B7100000000000000000000000000000000000000000000000000000000 PUSH0 MSTORE PUSH1 0x11 PUSH1 0x4 MSTORE PUSH1 0x24 PUSH0 REVERT JUMPDEST PUSH0 PUSH2 0x613 DUP3 PUSH2 0x237 JUMP JUMPDEST SWAP2 POP PUSH2 0x61E DUP4 PUSH2 0x237 JUMP JUMPDEST SWAP3 POP DUP3 DUP3 MUL PUSH2 0x62C DUP2 PUSH2 0x237 JUMP JUMPDEST SWAP2 POP DUP3 DUP3 DIV DUP5 EQ DUP4 ISZERO OR PUSH2 0x643 JUMPI PUSH2 0x642 PUSH2 0x5DC JUMP JUMPDEST JUMPDEST POP SWAP3 SWAP2 POP POP JUMP JUMPDEST PUSH0 PUSH2 0x654 DUP3 PUSH2 0x237 JUMP JUMPDEST SWAP2 POP PUSH2 0x65F DUP4 PUSH2 0x237 JUMP JUMPDEST SWAP3 POP DUP3 DUP3 ADD SWAP1 POP DUP1 DUP3 GT ISZERO PUSH2 0x677 JUMPI PUSH2 0x676 PUSH2 0x5DC JUMP JUMPDEST JUMPDEST SWAP3 SWAP2 POP POP JUMP JUMPDEST PUSH32 0x4E487B7100000000000000000000000000000000000000000000000000000000 PUSH0 MSTORE PUSH1 0x21 PUSH1 0x4 MSTORE PUSH1 0x24 PUSH0 REVERT JUMPDEST PUSH2 0x1C52 DUP1 PUSH2 0x6B7 PUSH0 CODECOPY PUSH0 RETURN INVALID PUSH1 0x80 PUSH1 0x40 MSTORE PUSH1 0x4 CALLDATASIZE LT PUSH2 0xE7 JUMPI PUSH0 CALLDATALOAD PUSH1 0xE0 SHR DUP1 PUSH4 0x7284E416 GT PUSH2 0x89 JUMPI DUP1 PUSH4 0x8ECE7B91 GT PUSH2 0x58 JUMPI DUP1 PUSH4 0x8ECE7B91 EQ PUSH2 0x2B5 JUMPI DUP1 PUSH4 0xB85DFB80 EQ PUSH2 0x2DD JUMPI DUP1 PUSH4 0xC19D93FB EQ PUSH2 0x319 JUMPI DUP1 PUSH4 0xCA1D209D EQ PUSH2 0x343 JUMPI PUSH2 0xE7 JUMP JUMPDEST DUP1 PUSH4 0x7284E416 EQ PUSH2 0x1FD JUMPI DUP1 PUSH4 0x7497211B EQ PUSH2 0x227 JUMPI DUP1 PUSH4 0x7ADBA527 EQ PUSH2 0x24F JUMPI DUP1 PUSH4 0x8DA5CB5B EQ PUSH2 0x28B JUMPI PUSH2 0xE7 JUMP JUMPDEST DUP1 PUSH4 0x3CCFD60B GT PUSH2 0xC5 JUMPI DUP1 PUSH4 0x3CCFD60B EQ PUSH2 0x17D JUMPI DUP1 PUSH4 0x40193883 EQ PUSH2 0x193 JUMPI DUP1 PUSH4 0x590E1AE3 EQ PUSH2 0x1BD JUMPI DUP1 PUSH4 0x6F9FB98A EQ PUSH2 0x1D3 JUMPI PUSH2 0xE7 JUMP JUMPDEST DUP1 PUSH4 0x39AF9EB EQ PUSH2 0xEB JUMPI DUP1 PUSH4 0x6FDDE03 EQ PUSH2 0x129 JUMPI DUP1 PUSH4 0x29DCB0CF EQ PUSH2 0x153 JUMPI JUMPDEST PUSH0 PUSH0 REVERT JUMPDEST CALLVALUE DUP1 ISZERO PUSH2 0xF6 JUMPI PUSH0 PUSH0 REVERT JUMPDEST POP PUSH2 0x111 PUSH1 0x4 DUP1 CALLDATASIZE SUB DUP2 ADD SWAP1 PUSH2 0x10C SWAP2 SWAP1 PUSH2 0xF2B JUMP JUMPDEST PUSH2 0x35F JUMP JUMPDEST PUSH1 0x40 MLOAD PUSH2 0x120 SWAP4 SWAP3 SWAP2 SWAP1 PUSH2 0xFD5 JUMP JUMPDEST PUSH1 0x40 MLOAD DUP1 SWAP2 SUB SWAP1 RETURN JUMPDEST CALLVALUE DUP1 ISZERO PUSH2 0x134 JUMPI PUSH0 PUSH0 REVERT JUMPDEST POP PUSH2 0x13D PUSH2 0x41A JUMP JUMPDEST PUSH1 0x40 MLOAD PUSH2 0x14A SWAP2 SWAP1 PUSH2 0x1011 JUMP JUMPDEST PUSH1 0x40 MLOAD DUP1 SWAP2 SUB SWAP1 RETURN JUMPDEST CALLVALUE DUP1 ISZERO PUSH2 0x15E JUMPI PUSH0 PUSH0 REVERT JUMPDEST POP PUSH2 0x167 PUSH2 0x4A5 JUMP JUMPDEST PUSH1 0x40 MLOAD PUSH2 0x174 SWAP2 SWAP1 PUSH2 0x1031 JUMP JUMPDEST PUSH1 0x40 MLOAD DUP1 SWAP2 SUB SWAP1 RETURN JUMPDEST CALLVALUE DUP1 ISZERO PUSH2 0x188 JUMPI PUSH0 PUSH0 REVERT JUMPDEST POP PUSH2 0x191 PUSH2 0x4AB JUMP JUMPDEST STOP JUMPDEST CALLVALUE DUP1 ISZERO PUSH2 0x19E JUMPI PUSH0 PUSH0 REVERT JUMPDEST POP PUSH2 0x1A7 PUSH2 0x666 JUMP JUMPDEST PUSH1 0x40 MLOAD PUSH2 0x1B4 SWAP2 SWAP1 PUSH2 0x1031 JUMP JUMPDEST PUSH1 0x40 MLOAD DUP1 SWAP2 SUB SWAP1 RETURN JUMPDEST CALLVALUE DUP1 ISZERO PUSH2 0x1C8 JUMPI PUSH0 PUSH0 REVERT JUMPDEST POP PUSH2 0x1D1 PUSH2 0x66C JUMP JUMPDEST STOP JUMPDEST CALLVALUE DUP1 ISZERO PUSH2 0x1DE JUMPI PUSH0 PUSH0 REVERT JUMPDEST POP PUSH2 0x1E7 PUSH2 0x785 JUMP JUMPDEST PUSH1 0x40 MLOAD PUSH2 0x1F4 SWAP2 SWAP1 PUSH2 0x1031 JUMP JUMPDEST PUSH1 0x40 MLOAD DUP1 SWAP2 SUB SWAP1 RETURN JUMPDEST CALLVALUE DUP1 ISZERO PUSH2 0x208 JUMPI PUSH0 PUSH0 REVERT JUMPDEST POP PUSH2 0x211 PUSH2 0x78C JUMP JUMPDEST PUSH1 0x40 MLOAD PUSH2 0x21E SWAP2 SWAP1 PUSH2 0x1011 JUMP JUMPDEST PUSH1 0x40 MLOAD DUP1 SWAP2 SUB SWAP1 RETURN JUMPDEST CALLVALUE DUP1 ISZERO PUSH2 0x232 JUMPI PUSH0 PUSH0 REVERT JUMPDEST POP PUSH2 0x24D PUSH1 0x4 DUP1 CALLDATASIZE SUB DUP2 ADD SWAP1 PUSH2 0x248 SWAP2 SWAP1 PUSH2 0xF2B JUMP JUMPDEST PUSH2 0x818 JUMP JUMPDEST STOP JUMPDEST CALLVALUE DUP1 ISZERO PUSH2 0x25A JUMPI PUSH0 PUSH0 REVERT JUMPDEST POP PUSH2 0x275 PUSH1 0x4 DUP1 CALLDATASIZE SUB DUP2 ADD SWAP1 PUSH2 0x270 SWAP2 SWAP1 PUSH2 0x10A4 JUMP JUMPDEST PUSH2 0x9B1 JUMP JUMPDEST PUSH1 0x40 MLOAD PUSH2 0x282 SWAP2 SWAP1 PUSH2 0x10FC JUMP JUMPDEST PUSH1 0x40 MLOAD DUP1 SWAP2 SUB SWAP1 RETURN JUMPDEST CALLVALUE DUP1 ISZERO PUSH2 0x296 JUMPI PUSH0 PUSH0 REVERT JUMPDEST POP PUSH2 0x29F PUSH2 0xA16 JUMP JUMPDEST PUSH1 0x40 MLOAD PUSH2 0x2AC SWAP2 SWAP1 PUSH2 0x1124 JUMP JUMPDEST PUSH1 0x40 MLOAD DUP1 SWAP2 SUB SWAP1 RETURN JUMPDEST CALLVALUE DUP1 ISZERO PUSH2 0x2C0 JUMPI PUSH0 PUSH0 REVERT JUMPDEST POP PUSH2 0x2DB PUSH1 0x4 DUP1 CALLDATASIZE SUB DUP2 ADD SWAP1 PUSH2 0x2D6 SWAP2 SWAP1 PUSH2 0x1269 JUMP JUMPDEST PUSH2 0xA3B JUMP JUMPDEST STOP JUMPDEST CALLVALUE DUP1 ISZERO PUSH2 0x2E8 JUMPI PUSH0 PUSH0 REVERT JUMPDEST POP PUSH2 0x303 PUSH1 0x4 DUP1 CALLDATASIZE SUB DUP2 ADD SWAP1 PUSH2 0x2FE SWAP2 SWAP1 PUSH2 0x12C3 JUMP JUMPDEST PUSH2 0xB7D JUMP JUMPDEST PUSH1 0x40 MLOAD PUSH2 0x310 SWAP2 SWAP1 PUSH2 0x1031 JUMP JUMPDEST PUSH1 0x40 MLOAD DUP1 SWAP2 SUB SWAP1 RETURN JUMPDEST CALLVALUE DUP1 ISZERO PUSH2 0x324 JUMPI PUSH0 PUSH0 REVERT JUMPDEST POP PUSH2 0x32D PUSH2 0xB97 JUMP JUMPDEST PUSH1 0x40 MLOAD PUSH2 0x33A SWAP2 SWAP1 PUSH2 0x1361 JUMP JUMPDEST PUSH1 0x40 MLOAD DUP1 SWAP2 SUB SWAP1 RETURN JUMPDEST PUSH2 0x35D PUSH1 0x4 DUP1 CALLDATASIZE SUB DUP2 ADD SWAP1 PUSH2 0x358 SWAP2 SWAP1 PUSH2 0xF2B JUMP JUMPDEST PUSH2 0xBAA JUMP JUMPDEST STOP JUMPDEST PUSH1 0x5 DUP2 DUP2 SLOAD DUP2 LT PUSH2 0x36E JUMPI PUSH0 DUP1 REVERT JUMPDEST SWAP1 PUSH0 MSTORE PUSH1 0x20 PUSH0 KECCAK256 SWAP1 PUSH1 0x3 MUL ADD PUSH0 SWAP2 POP SWAP1 POP DUP1 PUSH0 ADD DUP1 SLOAD PUSH2 0x38D SWAP1 PUSH2 0x13A7 JUMP JUMPDEST DUP1 PUSH1 0x1F ADD PUSH1 0x20 DUP1 SWAP2 DIV MUL PUSH1 0x20 ADD PUSH1 0x40 MLOAD SWAP1 DUP2 ADD PUSH1 0x40 MSTORE DUP1 SWAP3 SWAP2 SWAP1 DUP2 DUP2 MSTORE PUSH1 0x20 ADD DUP3 DUP1 SLOAD PUSH2 0x3B9 SWAP1 PUSH2 0x13A7 JUMP JUMPDEST DUP1 ISZERO PUSH2 0x404 JUMPI DUP1 PUSH1 0x1F LT PUSH2 0x3DB JUMPI PUSH2 0x100 DUP1 DUP4 SLOAD DIV MUL DUP4 MSTORE SWAP2 PUSH1 0x20 ADD SWAP2 PUSH2 0x404 JUMP JUMPDEST DUP3 ADD SWAP2 SWAP1 PUSH0 MSTORE PUSH1 0x20 PUSH0 KECCAK256 SWAP1 JUMPDEST DUP2 SLOAD DUP2 MSTORE SWAP1 PUSH1 0x1 ADD SWAP1 PUSH1 0x20 ADD DUP1 DUP4 GT PUSH2 0x3E7 JUMPI DUP3 SWAP1 SUB PUSH1 0x1F AND DUP3 ADD SWAP2 JUMPDEST POP POP POP POP POP SWAP1 DUP1 PUSH1 0x1 ADD SLOAD SWAP1 DUP1 PUSH1 0x2 ADD SLOAD SWAP1 POP DUP4 JUMP JUMPDEST PUSH0 DUP1 SLOAD PUSH2 0x426 SWAP1 PUSH2 0x13A7 JUMP JUMPDEST DUP1 PUSH1 0x1F ADD PUSH1 0x20 DUP1 SWAP2 DIV MUL PUSH1 0x20 ADD PUSH1 0x40 MLOAD SWAP1 DUP2 ADD PUSH1 0x40 MSTORE DUP1 SWAP3 SWAP2 SWAP1 DUP2 DUP2 MSTORE PUSH1 0x20 ADD DUP3 DUP1 SLOAD PUSH2 0x452 SWAP1 PUSH2 0x13A7 JUMP JUMPDEST DUP1 ISZERO PUSH2 0x49D JUMPI DUP1 PUSH1 0x1F LT PUSH2 0x474 JUMPI PUSH2 0x100 DUP1 DUP4 SLOAD DIV MUL DUP4 MSTORE SWAP2 PUSH1 0x20 ADD SWAP2 PUSH2 0x49D JUMP JUMPDEST DUP3 ADD SWAP2 SWAP1 PUSH0 MSTORE PUSH1 0x20 PUSH0 KECCAK256 SWAP1 JUMPDEST DUP2 SLOAD DUP2 MSTORE SWAP1 PUSH1 0x1 ADD SWAP1 PUSH1 0x20 ADD DUP1 DUP4 GT PUSH2 0x480 JUMPI DUP3 SWAP1 SUB PUSH1 0x1F AND DUP3 ADD SWAP2 JUMPDEST POP POP POP POP POP DUP2 JUMP JUMPDEST PUSH1 0x3 SLOAD DUP2 JUMP JUMPDEST PUSH1 0x4 PUSH0 SWAP1 SLOAD SWAP1 PUSH2 0x100 EXP SWAP1 DIV PUSH20 0xFFFFFFFFFFFFFFFFFFFFFFFFFFFFFFFFFFFFFFFF AND PUSH20 0xFFFFFFFFFFFFFFFFFFFFFFFFFFFFFFFFFFFFFFFF AND CALLER PUSH20 0xFFFFFFFFFFFFFFFFFFFFFFFFFFFFFFFFFFFFFFFF AND EQ PUSH2 0x53A JUMPI PUSH1 0x40 MLOAD PUSH32 0x8C379A000000000000000000000000000000000000000000000000000000000 DUP2 MSTORE PUSH1 0x4 ADD PUSH2 0x531 SWAP1 PUSH2 0x1421 JUMP JUMPDEST PUSH1 0x40 MLOAD DUP1 SWAP2 SUB SWAP1 REVERT JUMPDEST PUSH2 0x542 PUSH2 0xDCA JUMP JUMPDEST PUSH1 0x1 PUSH1 0x2 DUP2 GT ISZERO PUSH2 0x556 JUMPI PUSH2 0x555 PUSH2 0x12EE JUMP JUMPDEST JUMPDEST PUSH1 0x4 PUSH1 0x14 SWAP1 SLOAD SWAP1 PUSH2 0x100 EXP SWAP1 DIV PUSH1 0xFF AND PUSH1 0x2 DUP2 GT ISZERO PUSH2 0x578 JUMPI PUSH2 0x577 PUSH2 0x12EE JUMP JUMPDEST JUMPDEST EQ PUSH2 0x5B8 JUMPI PUSH1 0x40 MLOAD PUSH32 0x8C379A000000000000000000000000000000000000000000000000000000000 DUP2 MSTORE PUSH1 0x4 ADD PUSH2 0x5AF SWAP1 PUSH2 0x1489 JUMP JUMPDEST PUSH1 0x40 MLOAD DUP1 SWAP2 SUB SWAP1 REVERT JUMPDEST PUSH0 SELFBALANCE SWAP1 POP PUSH0 DUP2 GT PUSH2 0x5FE JUMPI PUSH1 0x40 MLOAD PUSH32 0x8C379A000000000000000000000000000000000000000000000000000000000 DUP2 MSTORE PUSH1 0x4 ADD PUSH2 0x5F5 SWAP1 PUSH2 0x14F1 JUMP JUMPDEST PUSH1 0x40 MLOAD DUP1 SWAP2 SUB SWAP1 REVERT JUMPDEST PUSH1 0x4 PUSH0 SWAP1 SLOAD SWAP1 PUSH2 0x100 EXP SWAP1 DIV PUSH20 0xFFFFFFFFFFFFFFFFFFFFFFFFFFFFFFFFFFFFFFFF AND PUSH20 0xFFFFFFFFFFFFFFFFFFFFFFFFFFFFFFFFFFFFFFFF AND PUSH2 0x8FC DUP3 SWAP1 DUP2 ISZERO MUL SWAP1 PUSH1 0x40 MLOAD PUSH0 PUSH1 0x40 MLOAD DUP1 DUP4 SUB DUP2 DUP6 DUP9 DUP9 CALL SWAP4 POP POP POP POP ISZERO DUP1 ISZERO PUSH2 0x662 JUMPI RETURNDATASIZE PUSH0 PUSH0 RETURNDATACOPY RETURNDATASIZE PUSH0 REVERT JUMPDEST POP POP JUMP JUMPDEST PUSH1 0x2 SLOAD DUP2 JUMP JUMPDEST PUSH2 0x674 PUSH2 0xDCA JUMP JUMPDEST PUSH0 PUSH1 0x6 PUSH0 CALLER PUSH20 0xFFFFFFFFFFFFFFFFFFFFFFFFFFFFFFFFFFFFFFFF AND PUSH20 0xFFFFFFFFFFFFFFFFFFFFFFFFFFFFFFFFFFFFFFFF AND DUP2 MSTORE PUSH1 0x20 ADD SWAP1 DUP2 MSTORE PUSH1 0x20 ADD PUSH0 KECCAK256 PUSH0 ADD SLOAD SWAP1 POP PUSH0 DUP2 LT ISZERO PUSH2 0x6FA JUMPI PUSH1 0x40 MLOAD PUSH32 0x8C379A000000000000000000000000000000000000000000000000000000000 DUP2 MSTORE PUSH1 0x4 ADD PUSH2 0x6F1 SWAP1 PUSH2 0x1559 JUMP JUMPDEST PUSH1 0x40 MLOAD DUP1 SWAP2 SUB SWAP1 REVERT JUMPDEST PUSH0 PUSH1 0x6 PUSH0 CALLER PUSH20 0xFFFFFFFFFFFFFFFFFFFFFFFFFFFFFFFFFFFFFFFF AND PUSH20 0xFFFFFFFFFFFFFFFFFFFFFFFFFFFFFFFFFFFFFFFF AND DUP2 MSTORE PUSH1 0x20 ADD SWAP1 DUP2 MSTORE PUSH1 0x20 ADD PUSH0 KECCAK256 PUSH0 ADD DUP2 SWAP1 SSTORE POP CALLER PUSH20 0xFFFFFFFFFFFFFFFFFFFFFFFFFFFFFFFFFFFFFFFF AND PUSH2 0x8FC DUP3 SWAP1 DUP2 ISZERO MUL SWAP1 PUSH1 0x40 MLOAD PUSH0 PUSH1 0x40 MLOAD DUP1 DUP4 SUB DUP2 DUP6 DUP9 DUP9 CALL SWAP4 POP POP POP POP ISZERO DUP1 ISZERO PUSH2 0x781 JUMPI RETURNDATASIZE PUSH0 PUSH0 RETURNDATACOPY RETURNDATASIZE PUSH0 REVERT JUMPDEST POP POP JUMP JUMPDEST PUSH0 SELFBALANCE SWAP1 POP SWAP1 JUMP JUMPDEST PUSH1 0x1 DUP1 SLOAD PUSH2 0x799 SWAP1 PUSH2 0x13A7 JUMP JUMPDEST DUP1 PUSH1 0x1F ADD PUSH1 0x20 DUP1 SWAP2 DIV MUL PUSH1 0x20 ADD PUSH1 0x40 MLOAD SWAP1 DUP2 ADD PUSH1 0x40 MSTORE DUP1 SWAP3 SWAP2 SWAP1 DUP2 DUP2 MSTORE PUSH1 0x20 ADD DUP3 DUP1 SLOAD PUSH2 0x7C5 SWAP1 PUSH2 0x13A7 JUMP JUMPDEST DUP1 ISZERO PUSH2 0x810 JUMPI DUP1 PUSH1 0x1F LT PUSH2 0x7E7 JUMPI PUSH2 0x100 DUP1 DUP4 SLOAD DIV MUL DUP4 MSTORE SWAP2 PUSH1 0x20 ADD SWAP2 PUSH2 0x810 JUMP JUMPDEST DUP3 ADD SWAP2 SWAP1 PUSH0 MSTORE PUSH1 0x20 PUSH0 KECCAK256 SWAP1 JUMPDEST DUP2 SLOAD DUP2 MSTORE SWAP1 PUSH1 0x1 ADD SWAP1 PUSH1 0x20 ADD DUP1 DUP4 GT PUSH2 0x7F3 JUMPI DUP3 SWAP1 SUB PUSH1 0x1F AND DUP3 ADD SWAP2 JUMPDEST POP POP POP POP POP DUP2 JUMP JUMPDEST PUSH1 0x4 PUSH0 SWAP1 SLOAD SWAP1 PUSH2 0x100 EXP SWAP1 DIV PUSH20 0xFFFFFFFFFFFFFFFFFFFFFFFFFFFFFFFFFFFFFFFF AND PUSH20 0xFFFFFFFFFFFFFFFFFFFFFFFFFFFFFFFFFFFFFFFF AND CALLER PUSH20 0xFFFFFFFFFFFFFFFFFFFFFFFFFFFFFFFFFFFFFFFF AND EQ PUSH2 0x8A7 JUMPI PUSH1 0x40 MLOAD PUSH32 0x8C379A000000000000000000000000000000000000000000000000000000000 DUP2 MSTORE PUSH1 0x4 ADD PUSH2 0x89E SWAP1 PUSH2 0x1421 JUMP JUMPDEST PUSH1 0x40 MLOAD DUP1 SWAP2 SUB SWAP1 REVERT JUMPDEST PUSH1 0x5 DUP1 SLOAD SWAP1 POP DUP2 LT PUSH2 0x8EE JUMPI PUSH1 0x40 MLOAD PUSH32 0x8C379A000000000000000000000000000000000000000000000000000000000 DUP2 MSTORE PUSH1 0x4 ADD PUSH2 0x8E5 SWAP1 PUSH2 0x15C1 JUMP JUMPDEST PUSH1 0x40 MLOAD DUP1 SWAP2 SUB SWAP1 REVERT JUMPDEST PUSH1 0x5 PUSH1 0x1 PUSH1 0x5 DUP1 SLOAD SWAP1 POP PUSH2 0x902 SWAP2 SWAP1 PUSH2 0x160C JUMP JUMPDEST DUP2 SLOAD DUP2 LT PUSH2 0x913 JUMPI PUSH2 0x912 PUSH2 0x163F JUMP JUMPDEST JUMPDEST SWAP1 PUSH0 MSTORE PUSH1 0x20 PUSH0 KECCAK256 SWAP1 PUSH1 0x3 MUL ADD PUSH1 0x5 DUP3 DUP2 SLOAD DUP2 LT PUSH2 0x933 JUMPI PUSH2 0x932 PUSH2 0x163F JUMP JUMPDEST JUMPDEST SWAP1 PUSH0 MSTORE PUSH1 0x20 PUSH0 KECCAK256 SWAP1 PUSH1 0x3 MUL ADD PUSH0 DUP3 ADD DUP2 PUSH0 ADD SWAP1 DUP2 PUSH2 0x951 SWAP2 SWAP1 PUSH2 0x1821 JUMP JUMPDEST POP PUSH1 0x1 DUP3 ADD SLOAD DUP2 PUSH1 0x1 ADD SSTORE PUSH1 0x2 DUP3 ADD SLOAD DUP2 PUSH1 0x2 ADD SSTORE SWAP1 POP POP PUSH1 0x5 DUP1 SLOAD DUP1 PUSH2 0x97B JUMPI PUSH2 0x97A PUSH2 0x1906 JUMP JUMPDEST JUMPDEST PUSH1 0x1 SWAP1 SUB DUP2 DUP2 SWAP1 PUSH0 MSTORE PUSH1 0x20 PUSH0 KECCAK256 SWAP1 PUSH1 0x3 MUL ADD PUSH0 PUSH0 DUP3 ADD PUSH0 PUSH2 0x99C SWAP2 SWAP1 PUSH2 0xE8F JUMP JUMPDEST PUSH1 0x1 DUP3 ADD PUSH0 SWAP1 SSTORE PUSH1 0x2 DUP3 ADD PUSH0 SWAP1 SSTORE POP POP SWAP1 SSTORE POP JUMP JUMPDEST PUSH0 PUSH1 0x6 PUSH0 DUP5 PUSH20 0xFFFFFFFFFFFFFFFFFFFFFFFFFFFFFFFFFFFFFFFF AND PUSH20 0xFFFFFFFFFFFFFFFFFFFFFFFFFFFFFFFFFFFFFFFF AND DUP2 MSTORE PUSH1 0x20 ADD SWAP1 DUP2 MSTORE PUSH1 0x20 ADD PUSH0 KECCAK256 PUSH1 0x1 ADD PUSH0 DUP4 DUP2 MSTORE PUSH1 0x20 ADD SWAP1 DUP2 MSTORE PUSH1 0x20 ADD PUSH0 KECCAK256 PUSH0 SWAP1 SLOAD SWAP1 PUSH2 0x100 EXP SWAP1 DIV PUSH1 0xFF AND SWAP1 POP SWAP3 SWAP2 POP POP JUMP JUMPDEST PUSH1 0x4 PUSH0 SWAP1 SLOAD SWAP1 PUSH2 0x100 EXP SWAP1 DIV PUSH20 0xFFFFFFFFFFFFFFFFFFFFFFFFFFFFFFFFFFFFFFFF AND DUP2 JUMP JUMPDEST PUSH1 0x4 PUSH0 SWAP1 SLOAD SWAP1 PUSH2 0x100 EXP SWAP1 DIV PUSH20 0xFFFFFFFFFFFFFFFFFFFFFFFFFFFFFFFFFFFFFFFF AND PUSH20 0xFFFFFFFFFFFFFFFFFFFFFFFFFFFFFFFFFFFFFFFF AND CALLER PUSH20 0xFFFFFFFFFFFFFFFFFFFFFFFFFFFFFFFFFFFFFFFF AND EQ PUSH2 0xACA JUMPI PUSH1 0x40 MLOAD PUSH32 0x8C379A000000000000000000000000000000000000000000000000000000000 DUP2 MSTORE PUSH1 0x4 ADD PUSH2 0xAC1 SWAP1 PUSH2 0x1421 JUMP JUMPDEST PUSH1 0x40 MLOAD DUP1 SWAP2 SUB SWAP1 REVERT JUMPDEST PUSH0 DUP2 GT PUSH2 0xB0C JUMPI PUSH1 0x40 MLOAD PUSH32 0x8C379A000000000000000000000000000000000000000000000000000000000 DUP2 MSTORE PUSH1 0x4 ADD PUSH2 0xB03 SWAP1 PUSH2 0x197D JUMP JUMPDEST PUSH1 0x40 MLOAD DUP1 SWAP2 SUB SWAP1 REVERT JUMPDEST PUSH1 0x5 PUSH1 0x40 MLOAD DUP1 PUSH1 0x60 ADD PUSH1 0x40 MSTORE DUP1 DUP5 DUP2 MSTORE PUSH1 0x20 ADD DUP4 DUP2 MSTORE PUSH1 0x20 ADD PUSH0 DUP2 MSTORE POP SWAP1 DUP1 PUSH1 0x1 DUP2 SLOAD ADD DUP1 DUP3 SSTORE DUP1 SWAP2 POP POP PUSH1 0x1 SWAP1 SUB SWAP1 PUSH0 MSTORE PUSH1 0x20 PUSH0 KECCAK256 SWAP1 PUSH1 0x3 MUL ADD PUSH0 SWAP1 SWAP2 SWAP1 SWAP2 SWAP1 SWAP2 POP PUSH0 DUP3 ADD MLOAD DUP2 PUSH0 ADD SWAP1 DUP2 PUSH2 0xB62 SWAP2 SWAP1 PUSH2 0x199B JUMP JUMPDEST POP PUSH1 0x20 DUP3 ADD MLOAD DUP2 PUSH1 0x1 ADD SSTORE PUSH1 0x40 DUP3 ADD MLOAD DUP2 PUSH1 0x2 ADD SSTORE POP POP POP POP JUMP JUMPDEST PUSH1 0x6 PUSH1 0x20 MSTORE DUP1 PUSH0 MSTORE PUSH1 0x40 PUSH0 KECCAK256 PUSH0 SWAP2 POP SWAP1 POP DUP1 PUSH0 ADD SLOAD SWAP1 POP DUP2 JUMP JUMPDEST PUSH1 0x4 PUSH1 0x14 SWAP1 SLOAD SWAP1 PUSH2 0x100 EXP SWAP1 DIV PUSH1 0xFF AND DUP2 JUMP JUMPDEST PUSH0 PUSH1 0x2 DUP2 GT ISZERO PUSH2 0xBBD JUMPI PUSH2 0xBBC PUSH2 0x12EE JUMP JUMPDEST JUMPDEST PUSH1 0x4 PUSH1 0x14 SWAP1 SLOAD SWAP1 PUSH2 0x100 EXP SWAP1 DIV PUSH1 0xFF AND PUSH1 0x2 DUP2 GT ISZERO PUSH2 0xBDF JUMPI PUSH2 0xBDE PUSH2 0x12EE JUMP JUMPDEST JUMPDEST EQ PUSH2 0xC1F JUMPI PUSH1 0x40 MLOAD PUSH32 0x8C379A000000000000000000000000000000000000000000000000000000000 DUP2 MSTORE PUSH1 0x4 ADD PUSH2 0xC16 SWAP1 PUSH2 0x1AB4 JUMP JUMPDEST PUSH1 0x40 MLOAD DUP1 SWAP2 SUB SWAP1 REVERT JUMPDEST PUSH1 0x5 DUP1 SLOAD SWAP1 POP DUP2 LT PUSH2 0xC66 JUMPI PUSH1 0x40 MLOAD PUSH32 0x8C379A000000000000000000000000000000000000000000000000000000000 DUP2 MSTORE PUSH1 0x4 ADD PUSH2 0xC5D SWAP1 PUSH2 0x1B1C JUMP JUMPDEST PUSH1 0x40 MLOAD DUP1 SWAP2 SUB SWAP1 REVERT JUMPDEST PUSH1 0x5 DUP2 DUP2 SLOAD DUP2 LT PUSH2 0xC7A JUMPI PUSH2 0xC79 PUSH2 0x163F JUMP JUMPDEST JUMPDEST SWAP1 PUSH0 MSTORE PUSH1 0x20 PUSH0 KECCAK256 SWAP1 PUSH1 0x3 MUL ADD PUSH1 0x1 ADD SLOAD CALLVALUE EQ PUSH2 0xCCB JUMPI PUSH1 0x40 MLOAD PUSH32 0x8C379A000000000000000000000000000000000000000000000000000000000 DUP2 MSTORE PUSH1 0x4 ADD PUSH2 0xCC2 SWAP1 PUSH2 0x1B84 JUMP JUMPDEST PUSH1 0x40 MLOAD DUP1 SWAP2 SUB SWAP1 REVERT JUMPDEST PUSH1 0x5 DUP2 DUP2 SLOAD DUP2 LT PUSH2 0xCDF JUMPI PUSH2 0xCDE PUSH2 0x163F JUMP JUMPDEST JUMPDEST SWAP1 PUSH0 MSTORE PUSH1 0x20 PUSH0 KECCAK256 SWAP1 PUSH1 0x3 MUL ADD PUSH1 0x2 ADD PUSH0 DUP2 SLOAD DUP1 SWAP3 SWAP2 SWAP1 PUSH2 0xCFE SWAP1 PUSH2 0x1BA2 JUMP JUMPDEST SWAP2 SWAP1 POP SSTORE POP CALLVALUE PUSH1 0x6 PUSH0 CALLER PUSH20 0xFFFFFFFFFFFFFFFFFFFFFFFFFFFFFFFFFFFFFFFF AND PUSH20 0xFFFFFFFFFFFFFFFFFFFFFFFFFFFFFFFFFFFFFFFF AND DUP2 MSTORE PUSH1 0x20 ADD SWAP1 DUP2 MSTORE PUSH1 0x20 ADD PUSH0 KECCAK256 PUSH0 ADD PUSH0 DUP3 DUP3 SLOAD PUSH2 0xD51 SWAP2 SWAP1 PUSH2 0x1BE9 JUMP JUMPDEST SWAP3 POP POP DUP2 SWAP1 SSTORE POP PUSH1 0x1 PUSH1 0x6 PUSH0 CALLER PUSH20 0xFFFFFFFFFFFFFFFFFFFFFFFFFFFFFFFFFFFFFFFF AND PUSH20 0xFFFFFFFFFFFFFFFFFFFFFFFFFFFFFFFFFFFFFFFF AND DUP2 MSTORE PUSH1 0x20 ADD SWAP1 DUP2 MSTORE PUSH1 0x20 ADD PUSH0 KECCAK256 PUSH1 0x1 ADD PUSH0 DUP4 DUP2 MSTORE PUSH1 0x20 ADD SWAP1 DUP2 MSTORE PUSH1 0x20 ADD PUSH0 KECCAK256 PUSH0 PUSH2 0x100 EXP DUP2 SLOAD DUP2 PUSH1 0xFF MUL NOT AND SWAP1 DUP4 ISZERO ISZERO MUL OR SWAP1 SSTORE POP PUSH2 0xDC7 PUSH2 0xDCA JUMP JUMPDEST POP JUMP JUMPDEST PUSH0 PUSH1 0x2 DUP2 GT ISZERO PUSH2 0xDDD JUMPI PUSH2 0xDDC PUSH2 0x12EE JUMP JUMPDEST JUMPDEST PUSH1 0x4 PUSH1 0x14 SWAP1 SLOAD SWAP1 PUSH2 0x100 EXP SWAP1 DIV PUSH1 0xFF AND PUSH1 0x2 DUP2 GT ISZERO PUSH2 0xDFF JUMPI PUSH2 0xDFE PUSH2 0x12EE JUMP JUMPDEST JUMPDEST SUB PUSH2 0xE8D JUMPI PUSH1 0x3 SLOAD TIMESTAMP LT PUSH2 0xE4F JUMPI PUSH1 0x2 SLOAD SELFBALANCE LT ISZERO PUSH2 0xE1E JUMPI PUSH1 0x2 PUSH2 0xE21 JUMP JUMPDEST PUSH1 0x1 JUMPDEST PUSH1 0x4 PUSH1 0x14 PUSH2 0x100 EXP DUP2 SLOAD DUP2 PUSH1 0xFF MUL NOT AND SWAP1 DUP4 PUSH1 0x2 DUP2 GT ISZERO PUSH2 0xE45 JUMPI PUSH2 0xE44 PUSH2 0x12EE JUMP JUMPDEST JUMPDEST MUL OR SWAP1 SSTORE POP PUSH2 0xE8C JUMP JUMPDEST PUSH1 0x2 SLOAD SELFBALANCE LT ISZERO PUSH2 0xE5F JUMPI PUSH0 PUSH2 0xE62 JUMP JUMPDEST PUSH1 0x1 JUMPDEST PUSH1 0x4 PUSH1 0x14 PUSH2 0x100 EXP DUP2 SLOAD DUP2 PUSH1 0xFF MUL NOT AND SWAP1 DUP4 PUSH1 0x2 DUP2 GT ISZERO PUSH2 0xE86 JUMPI PUSH2 0xE85 PUSH2 0x12EE JUMP JUMPDEST JUMPDEST MUL OR SWAP1 SSTORE POP JUMPDEST JUMPDEST JUMP JUMPDEST POP DUP1 SLOAD PUSH2 0xE9B SWAP1 PUSH2 0x13A7 JUMP JUMPDEST PUSH0 DUP3 SSTORE DUP1 PUSH1 0x1F LT PUSH2 0xEAC JUMPI POP PUSH2 0xEC9 JUMP JUMPDEST PUSH1 0x1F ADD PUSH1 0x20 SWAP1 DIV SWAP1 PUSH0 MSTORE PUSH1 0x20 PUSH0 KECCAK256 SWAP1 DUP2 ADD SWAP1 PUSH2 0xEC8 SWAP2 SWAP1 PUSH2 0xECC JUMP JUMPDEST JUMPDEST POP JUMP JUMPDEST JUMPDEST DUP1 DUP3 GT ISZERO PUSH2 0xEE3 JUMPI PUSH0 DUP2 PUSH0 SWAP1 SSTORE POP PUSH1 0x1 ADD PUSH2 0xECD JUMP JUMPDEST POP SWAP1 JUMP JUMPDEST PUSH0 PUSH1 0x40 MLOAD SWAP1 POP SWAP1 JUMP JUMPDEST PUSH0 PUSH0 REVERT JUMPDEST PUSH0 PUSH0 REVERT JUMPDEST PUSH0 DUP2 SWAP1 POP SWAP2 SWAP1 POP JUMP JUMPDEST PUSH2 0xF0A DUP2 PUSH2 0xEF8 JUMP JUMPDEST DUP2 EQ PUSH2 0xF14 JUMPI PUSH0 PUSH0 REVERT JUMPDEST POP JUMP JUMPDEST PUSH0 DUP2 CALLDATALOAD SWAP1 POP PUSH2 0xF25 DUP2 PUSH2 0xF01 JUMP JUMPDEST SWAP3 SWAP2 POP POP JUMP JUMPDEST PUSH0 PUSH1 0x20 DUP3 DUP5 SUB SLT ISZERO PUSH2 0xF40 JUMPI PUSH2 0xF3F PUSH2 0xEF0 JUMP JUMPDEST JUMPDEST PUSH0 PUSH2 0xF4D DUP5 DUP3 DUP6 ADD PUSH2 0xF17 JUMP JUMPDEST SWAP2 POP POP SWAP3 SWAP2 POP POP JUMP JUMPDEST PUSH0 DUP2 MLOAD SWAP1 POP SWAP2 SWAP1 POP JUMP JUMPDEST PUSH0 DUP3 DUP3 MSTORE PUSH1 0x20 DUP3 ADD SWAP1 POP SWAP3 SWAP2 POP POP JUMP JUMPDEST DUP3 DUP2 DUP4 MCOPY PUSH0 DUP4 DUP4 ADD MSTORE POP POP POP JUMP JUMPDEST PUSH0 PUSH1 0x1F NOT PUSH1 0x1F DUP4 ADD AND SWAP1 POP SWAP2 SWAP1 POP JUMP JUMPDEST PUSH0 PUSH2 0xF98 DUP3 PUSH2 0xF56 JUMP JUMPDEST PUSH2 0xFA2 DUP2 DUP6 PUSH2 0xF60 JUMP JUMPDEST SWAP4 POP PUSH2 0xFB2 DUP2 DUP6 PUSH1 0x20 DUP7 ADD PUSH2 0xF70 JUMP JUMPDEST PUSH2 0xFBB DUP2 PUSH2 0xF7E JUMP JUMPDEST DUP5 ADD SWAP2 POP POP SWAP3 SWAP2 POP POP JUMP JUMPDEST PUSH2 0xFCF DUP2 PUSH2 0xEF8 JUMP JUMPDEST DUP3 MSTORE POP POP JUMP JUMPDEST PUSH0 PUSH1 0x60 DUP3 ADD SWAP1 POP DUP2 DUP2 SUB PUSH0 DUP4 ADD MSTORE PUSH2 0xFED DUP2 DUP7 PUSH2 0xF8E JUMP JUMPDEST SWAP1 POP PUSH2 0xFFC PUSH1 0x20 DUP4 ADD DUP6 PUSH2 0xFC6 JUMP JUMPDEST PUSH2 0x1009 PUSH1 0x40 DUP4 ADD DUP5 PUSH2 0xFC6 JUMP JUMPDEST SWAP5 SWAP4 POP POP POP POP JUMP JUMPDEST PUSH0 PUSH1 0x20 DUP3 ADD SWAP1 POP DUP2 DUP2 SUB PUSH0 DUP4 ADD MSTORE PUSH2 0x1029 DUP2 DUP5 PUSH2 0xF8E JUMP JUMPDEST SWAP1 POP SWAP3 SWAP2 POP POP JUMP JUMPDEST PUSH0 PUSH1 0x20 DUP3 ADD SWAP1 POP PUSH2 0x1044 PUSH0 DUP4 ADD DUP5 PUSH2 0xFC6 JUMP JUMPDEST SWAP3 SWAP2 POP POP JUMP JUMPDEST PUSH0 PUSH20 0xFFFFFFFFFFFFFFFFFFFFFFFFFFFFFFFFFFFFFFFF DUP3 AND SWAP1 POP SWAP2 SWAP1 POP JUMP JUMPDEST PUSH0 PUSH2 0x1073 DUP3 PUSH2 0x104A JUMP JUMPDEST SWAP1 POP SWAP2 SWAP1 POP JUMP JUMPDEST PUSH2 0x1083 DUP2 PUSH2 0x1069 JUMP JUMPDEST DUP2 EQ PUSH2 0x108D JUMPI PUSH0 PUSH0 REVERT JUMPDEST POP JUMP JUMPDEST PUSH0 DUP2 CALLDATALOAD SWAP1 POP PUSH2 0x109E DUP2 PUSH2 0x107A JUMP JUMPDEST SWAP3 SWAP2 POP POP JUMP JUMPDEST PUSH0 PUSH0 PUSH1 0x40 DUP4 DUP6 SUB SLT ISZERO PUSH2 0x10BA JUMPI PUSH2 0x10B9 PUSH2 0xEF0 JUMP JUMPDEST JUMPDEST PUSH0 PUSH2 0x10C7 DUP6 DUP3 DUP7 ADD PUSH2 0x1090 JUMP JUMPDEST SWAP3 POP POP PUSH1 0x20 PUSH2 0x10D8 DUP6 DUP3 DUP7 ADD PUSH2 0xF17 JUMP JUMPDEST SWAP2 POP POP SWAP3 POP SWAP3 SWAP1 POP JUMP JUMPDEST PUSH0 DUP2 ISZERO ISZERO SWAP1 POP SWAP2 SWAP1 POP JUMP JUMPDEST PUSH2 0x10F6 DUP2 PUSH2 0x10E2 JUMP JUMPDEST DUP3 MSTORE POP POP JUMP JUMPDEST PUSH0 PUSH1 0x20 DUP3 ADD SWAP1 POP PUSH2 0x110F PUSH0 DUP4 ADD DUP5 PUSH2 0x10ED JUMP JUMPDEST SWAP3 SWAP2 POP POP JUMP JUMPDEST PUSH2 0x111E DUP2 PUSH2 0x1069 JUMP JUMPDEST DUP3 MSTORE POP POP JUMP JUMPDEST PUSH0 PUSH1 0x20 DUP3 ADD SWAP1 POP PUSH2 0x1137 PUSH0 DUP4 ADD DUP5 PUSH2 0x1115 JUMP JUMPDEST SWAP3 SWAP2 POP POP JUMP JUMPDEST PUSH0 PUSH0 REVERT JUMPDEST PUSH0 PUSH0 REVERT JUMPDEST PUSH32 0x4E487B7100000000000000000000000000000000000000000000000000000000 PUSH0 MSTORE PUSH1 0x41 PUSH1 0x4 MSTORE PUSH1 0x24 PUSH0 REVERT JUMPDEST PUSH2 0x117B DUP3 PUSH2 0xF7E JUMP JUMPDEST DUP2 ADD DUP2 DUP2 LT PUSH8 0xFFFFFFFFFFFFFFFF DUP3 GT OR ISZERO PUSH2 0x119A JUMPI PUSH2 0x1199 PUSH2 0x1145 JUMP JUMPDEST JUMPDEST DUP1 PUSH1 0x40 MSTORE POP POP POP JUMP JUMPDEST PUSH0 PUSH2 0x11AC PUSH2 0xEE7 JUMP JUMPDEST SWAP1 POP PUSH2 0x11B8 DUP3 DUP3 PUSH2 0x1172 JUMP JUMPDEST SWAP2 SWAP1 POP JUMP JUMPDEST PUSH0 PUSH8 0xFFFFFFFFFFFFFFFF DUP3 GT ISZERO PUSH2 0x11D7 JUMPI PUSH2 0x11D6 PUSH2 0x1145 JUMP JUMPDEST JUMPDEST PUSH2 0x11E0 DUP3 PUSH2 0xF7E JUMP JUMPDEST SWAP1 POP PUSH1 0x20 DUP2 ADD SWAP1 POP SWAP2 SWAP1 POP JUMP JUMPDEST DUP3 DUP2 DUP4 CALLDATACOPY PUSH0 DUP4 DUP4 ADD MSTORE POP POP POP JUMP JUMPDEST PUSH0 PUSH2 0x120D PUSH2 0x1208 DUP5 PUSH2 0x11BD JUMP JUMPDEST PUSH2 0x11A3 JUMP JUMPDEST SWAP1 POP DUP3 DUP2 MSTORE PUSH1 0x20 DUP2 ADD DUP5 DUP5 DUP5 ADD GT ISZERO PUSH2 0x1229 JUMPI PUSH2 0x1228 PUSH2 0x1141 JUMP JUMPDEST JUMPDEST PUSH2 0x1234 DUP5 DUP3 DUP6 PUSH2 0x11ED JUMP JUMPDEST POP SWAP4 SWAP3 POP POP POP JUMP JUMPDEST PUSH0 DUP3 PUSH1 0x1F DUP4 ADD SLT PUSH2 0x1250 JUMPI PUSH2 0x124F PUSH2 0x113D JUMP JUMPDEST JUMPDEST DUP2 CALLDATALOAD PUSH2 0x1260 DUP5 DUP3 PUSH1 0x20 DUP7 ADD PUSH2 0x11FB JUMP JUMPDEST SWAP2 POP POP SWAP3 SWAP2 POP POP JUMP JUMPDEST PUSH0 PUSH0 PUSH1 0x40 DUP4 DUP6 SUB SLT ISZERO PUSH2 0x127F JUMPI PUSH2 0x127E PUSH2 0xEF0 JUMP JUMPDEST JUMPDEST PUSH0 DUP4 ADD CALLDATALOAD PUSH8 0xFFFFFFFFFFFFFFFF DUP2 GT ISZERO PUSH2 0x129C JUMPI PUSH2 0x129B PUSH2 0xEF4 JUMP JUMPDEST JUMPDEST PUSH2 0x12A8 DUP6 DUP3 DUP7 ADD PUSH2 0x123C JUMP JUMPDEST SWAP3 POP POP PUSH1 0x20 PUSH2 0x12B9 DUP6 DUP3 DUP7 ADD PUSH2 0xF17 JUMP JUMPDEST SWAP2 POP POP SWAP3 POP SWAP3 SWAP1 POP JUMP JUMPDEST PUSH0 PUSH1 0x20 DUP3 DUP5 SUB SLT ISZERO PUSH2 0x12D8 JUMPI PUSH2 0x12D7 PUSH2 0xEF0 JUMP JUMPDEST JUMPDEST PUSH0 PUSH2 0x12E5 DUP5 DUP3 DUP6 ADD PUSH2 0x1090 JUMP JUMPDEST SWAP2 POP POP SWAP3 SWAP2 POP POP JUMP JUMPDEST PUSH32 0x4E487B7100000000000000000000000000000000000000000000000000000000 PUSH0 MSTORE PUSH1 0x21 PUSH1 0x4 MSTORE PUSH1 0x24 PUSH0 REVERT JUMPDEST PUSH1 0x3 DUP2 LT PUSH2 0x132C JUMPI PUSH2 0x132B PUSH2 0x12EE JUMP JUMPDEST JUMPDEST POP JUMP JUMPDEST PUSH0 DUP2 SWAP1 POP PUSH2 0x133C DUP3 PUSH2 0x131B JUMP JUMPDEST SWAP2 SWAP1 POP JUMP JUMPDEST PUSH0 PUSH2 0x134B DUP3 PUSH2 0x132F JUMP JUMPDEST SWAP1 POP SWAP2 SWAP1 POP JUMP JUMPDEST PUSH2 0x135B DUP2 PUSH2 0x1341 JUMP JUMPDEST DUP3 MSTORE POP POP JUMP JUMPDEST PUSH0 PUSH1 0x20 DUP3 ADD SWAP1 POP PUSH2 0x1374 PUSH0 DUP4 ADD DUP5 PUSH2 0x1352 JUMP JUMPDEST SWAP3 SWAP2 POP POP JUMP JUMPDEST PUSH32 0x4E487B7100000000000000000000000000000000000000000000000000000000 PUSH0 MSTORE PUSH1 0x22 PUSH1 0x4 MSTORE PUSH1 0x24 PUSH0 REVERT JUMPDEST PUSH0 PUSH1 0x2 DUP3 DIV SWAP1 POP PUSH1 0x1 DUP3 AND DUP1 PUSH2 0x13BE JUMPI PUSH1 0x7F DUP3 AND SWAP2 POP JUMPDEST PUSH1 0x20 DUP3 LT DUP2 SUB PUSH2 0x13D1 JUMPI PUSH2 0x13D0 PUSH2 0x137A JUMP JUMPDEST JUMPDEST POP SWAP2 SWAP1 POP JUMP JUMPDEST PUSH32 0x54686520636F6E7472616374206973206E6F74206F776E656420627920746865 PUSH0 DUP3 ADD MSTORE POP JUMP JUMPDEST PUSH0 PUSH2 0x140B PUSH1 0x20 DUP4 PUSH2 0xF60 JUMP JUMPDEST SWAP2 POP PUSH2 0x1416 DUP3 PUSH2 0x13D7 JUMP JUMPDEST PUSH1 0x20 DUP3 ADD SWAP1 POP SWAP2 SWAP1 POP JUMP JUMPDEST PUSH0 PUSH1 0x20 DUP3 ADD SWAP1 POP DUP2 DUP2 SUB PUSH0 DUP4 ADD MSTORE PUSH2 0x1438 DUP2 PUSH2 0x13FF JUMP JUMPDEST SWAP1 POP SWAP2 SWAP1 POP JUMP JUMPDEST PUSH32 0x43616D706169676E206973206E6F74207375636365737366756C2E0000000000 PUSH0 DUP3 ADD MSTORE POP JUMP JUMPDEST PUSH0 PUSH2 0x1473 PUSH1 0x1B DUP4 PUSH2 0xF60 JUMP JUMPDEST SWAP2 POP PUSH2 0x147E DUP3 PUSH2 0x143F JUMP JUMPDEST PUSH1 0x20 DUP3 ADD SWAP1 POP SWAP2 SWAP1 POP JUMP JUMPDEST PUSH0 PUSH1 0x20 DUP3 ADD SWAP1 POP DUP2 DUP2 SUB PUSH0 DUP4 ADD MSTORE PUSH2 0x14A0 DUP2 PUSH2 0x1467 JUMP JUMPDEST SWAP1 POP SWAP2 SWAP1 POP JUMP JUMPDEST PUSH32 0x4E6F2062616C616E636520746F20776974686472617700000000000000000000 PUSH0 DUP3 ADD MSTORE POP JUMP JUMPDEST PUSH0 PUSH2 0x14DB PUSH1 0x16 DUP4 PUSH2 0xF60 JUMP JUMPDEST SWAP2 POP PUSH2 0x14E6 DUP3 PUSH2 0x14A7 JUMP JUMPDEST PUSH1 0x20 DUP3 ADD SWAP1 POP SWAP2 SWAP1 POP JUMP JUMPDEST PUSH0 PUSH1 0x20 DUP3 ADD SWAP1 POP DUP2 DUP2 SUB PUSH0 DUP4 ADD MSTORE PUSH2 0x1508 DUP2 PUSH2 0x14CF JUMP JUMPDEST SWAP1 POP SWAP2 SWAP1 POP JUMP JUMPDEST PUSH32 0x4E6F20636F6E747269627574696F6E20746F20726566756E6400000000000000 PUSH0 DUP3 ADD MSTORE POP JUMP JUMPDEST PUSH0 PUSH2 0x1543 PUSH1 0x19 DUP4 PUSH2 0xF60 JUMP JUMPDEST SWAP2 POP PUSH2 0x154E DUP3 PUSH2 0x150F JUMP JUMPDEST PUSH1 0x20 DUP3 ADD SWAP1 POP SWAP2 SWAP1 POP JUMP JUMPDEST PUSH0 PUSH1 0x20 DUP3 ADD SWAP1 POP DUP2 DUP2 SUB PUSH0 DUP4 ADD MSTORE PUSH2 0x1570 DUP2 PUSH2 0x1537 JUMP JUMPDEST SWAP1 POP SWAP2 SWAP1 POP JUMP JUMPDEST PUSH32 0x5469657220646F6573206E6F7420657869737400000000000000000000000000 PUSH0 DUP3 ADD MSTORE POP JUMP JUMPDEST PUSH0 PUSH2 0x15AB PUSH1 0x13 DUP4 PUSH2 0xF60 JUMP JUMPDEST SWAP2 POP PUSH2 0x15B6 DUP3 PUSH2 0x1577 JUMP JUMPDEST PUSH1 0x20 DUP3 ADD SWAP1 POP SWAP2 SWAP1 POP JUMP JUMPDEST PUSH0 PUSH1 0x20 DUP3 ADD SWAP1 POP DUP2 DUP2 SUB PUSH0 DUP4 ADD MSTORE PUSH2 0x15D8 DUP2 PUSH2 0x159F JUMP JUMPDEST SWAP1 POP SWAP2 SWAP1 POP JUMP JUMPDEST PUSH32 0x4E487B7100000000000000000000000000000000000000000000000000000000 PUSH0 MSTORE PUSH1 0x11 PUSH1 0x4 MSTORE PUSH1 0x24 PUSH0 REVERT JUMPDEST PUSH0 PUSH2 0x1616 DUP3 PUSH2 0xEF8 JUMP JUMPDEST SWAP2 POP PUSH2 0x1621 DUP4 PUSH2 0xEF8 JUMP JUMPDEST SWAP3 POP DUP3 DUP3 SUB SWAP1 POP DUP2 DUP2 GT ISZERO PUSH2 0x1639 JUMPI PUSH2 0x1638 PUSH2 0x15DF JUMP JUMPDEST JUMPDEST SWAP3 SWAP2 POP POP JUMP JUMPDEST PUSH32 0x4E487B7100000000000000000000000000000000000000000000000000000000 PUSH0 MSTORE PUSH1 0x32 PUSH1 0x4 MSTORE PUSH1 0x24 PUSH0 REVERT JUMPDEST PUSH0 DUP2 SLOAD SWAP1 POP PUSH2 0x167A DUP2 PUSH2 0x13A7 JUMP JUMPDEST SWAP1 POP SWAP2 SWAP1 POP JUMP JUMPDEST PUSH0 DUP2 SWAP1 POP DUP2 PUSH0 MSTORE PUSH1 0x20 PUSH0 KECCAK256 SWAP1 POP SWAP2 SWAP1 POP JUMP JUMPDEST PUSH0 PUSH1 0x20 PUSH1 0x1F DUP4 ADD DIV SWAP1 POP SWAP2 SWAP1 POP JUMP JUMPDEST PUSH0 DUP3 DUP3 SHL SWAP1 POP SWAP3 SWAP2 POP POP JUMP JUMPDEST PUSH0 PUSH1 0x8 DUP4 MUL PUSH2 0x16DD PUSH32 0xFFFFFFFFFFFFFFFFFFFFFFFFFFFFFFFFFFFFFFFFFFFFFFFFFFFFFFFFFFFFFFFF DUP3 PUSH2 0x16A2 JUMP JUMPDEST PUSH2 0x16E7 DUP7 DUP4 PUSH2 0x16A2 JUMP JUMPDEST SWAP6 POP DUP1 NOT DUP5 AND SWAP4 POP DUP1 DUP7 AND DUP5 OR SWAP3 POP POP POP SWAP4 SWAP3 POP POP POP JUMP JUMPDEST PUSH0 DUP2 SWAP1 POP SWAP2 SWAP1 POP JUMP JUMPDEST PUSH0 PUSH2 0x1722 PUSH2 0x171D PUSH2 0x1718 DUP5 PUSH2 0xEF8 JUMP JUMPDEST PUSH2 0x16FF JUMP JUMPDEST PUSH2 0xEF8 JUMP JUMPDEST SWAP1 POP SWAP2 SWAP1 POP JUMP JUMPDEST PUSH0 DUP2 SWAP1 POP SWAP2 SWAP1 POP JUMP JUMPDEST PUSH2 0x173B DUP4 PUSH2 0x1708 JUMP JUMPDEST PUSH2 0x174F PUSH2 0x1747 DUP3 PUSH2 0x1729 JUMP JUMPDEST DUP5 DUP5 SLOAD PUSH2 0x16AE JUMP JUMPDEST DUP3 SSTORE POP POP POP POP JUMP JUMPDEST PUSH0 PUSH0 SWAP1 POP SWAP1 JUMP JUMPDEST PUSH2 0x1766 PUSH2 0x1757 JUMP JUMPDEST PUSH2 0x1771 DUP2 DUP5 DUP5 PUSH2 0x1732 JUMP JUMPDEST POP POP POP JUMP JUMPDEST JUMPDEST DUP2 DUP2 LT ISZERO PUSH2 0x1794 JUMPI PUSH2 0x1789 PUSH0 DUP3 PUSH2 0x175E JUMP JUMPDEST PUSH1 0x1 DUP2 ADD SWAP1 POP PUSH2 0x1777 JUMP JUMPDEST POP POP JUMP JUMPDEST PUSH1 0x1F DUP3 GT ISZERO PUSH2 0x17D9 JUMPI PUSH2 0x17AA DUP2 PUSH2 0x1681 JUMP JUMPDEST PUSH2 0x17B3 DUP5 PUSH2 0x1693 JUMP JUMPDEST DUP2 ADD PUSH1 0x20 DUP6 LT ISZERO PUSH2 0x17C2 JUMPI DUP2 SWAP1 POP JUMPDEST PUSH2 0x17D6 PUSH2 0x17CE DUP6 PUSH2 0x1693 JUMP JUMPDEST DUP4 ADD DUP3 PUSH2 0x1776 JUMP JUMPDEST POP POP JUMPDEST POP POP POP JUMP JUMPDEST PUSH0 DUP3 DUP3 SHR SWAP1 POP SWAP3 SWAP2 POP POP JUMP JUMPDEST PUSH0 PUSH2 0x17F9 PUSH0 NOT DUP5 PUSH1 0x8 MUL PUSH2 0x17DE JUMP JUMPDEST NOT DUP1 DUP4 AND SWAP2 POP POP SWAP3 SWAP2 POP POP JUMP JUMPDEST PUSH0 PUSH2 0x1811 DUP4 DUP4 PUSH2 0x17EA JUMP JUMPDEST SWAP2 POP DUP3 PUSH1 0x2 MUL DUP3 OR SWAP1 POP SWAP3 SWAP2 POP POP JUMP JUMPDEST DUP2 DUP2 SUB PUSH2 0x182F JUMPI POP POP PUSH2 0x1904 JUMP JUMPDEST PUSH2 0x1838 DUP3 PUSH2 0x166C JUMP JUMPDEST PUSH8 0xFFFFFFFFFFFFFFFF DUP2 GT ISZERO PUSH2 0x1851 JUMPI PUSH2 0x1850 PUSH2 0x1145 JUMP JUMPDEST JUMPDEST PUSH2 0x185B DUP3 SLOAD PUSH2 0x13A7 JUMP JUMPDEST PUSH2 0x1866 DUP3 DUP3 DUP6 PUSH2 0x1798 JUMP JUMPDEST PUSH0 PUSH1 0x1F DUP4 GT PUSH1 0x1 DUP2 EQ PUSH2 0x1893 JUMPI PUSH0 DUP5 ISZERO PUSH2 0x1881 JUMPI DUP3 DUP8 ADD SLOAD SWAP1 POP JUMPDEST PUSH2 0x188B DUP6 DUP3 PUSH2 0x1806 JUMP JUMPDEST DUP7 SSTORE POP PUSH2 0x18FD JUMP JUMPDEST PUSH1 0x1F NOT DUP5 AND PUSH2 0x18A1 DUP8 PUSH2 0x1681 JUMP JUMPDEST SWAP7 POP PUSH2 0x18AC DUP7 PUSH2 0x1681 JUMP JUMPDEST PUSH0 JUMPDEST DUP3 DUP2 LT ISZERO PUSH2 0x18D3 JUMPI DUP5 DUP10 ADD SLOAD DUP3 SSTORE PUSH1 0x1 DUP3 ADD SWAP2 POP PUSH1 0x1 DUP6 ADD SWAP5 POP PUSH1 0x20 DUP2 ADD SWAP1 POP PUSH2 0x18AE JUMP JUMPDEST DUP7 DUP4 LT ISZERO PUSH2 0x18F0 JUMPI DUP5 DUP10 ADD SLOAD PUSH2 0x18EC PUSH1 0x1F DUP10 AND DUP3 PUSH2 0x17EA JUMP JUMPDEST DUP4 SSTORE POP JUMPDEST PUSH1 0x1 PUSH1 0x2 DUP9 MUL ADD DUP9 SSTORE POP POP POP JUMPDEST POP POP POP POP POP POP JUMPDEST JUMP JUMPDEST PUSH32 0x4E487B7100000000000000000000000000000000000000000000000000000000 PUSH0 MSTORE PUSH1 0x31 PUSH1 0x4 MSTORE PUSH1 0x24 PUSH0 REVERT JUMPDEST PUSH32 0x416D6F756E742063616E6E6F7420756E64657220300000000000000000000000 PUSH0 DUP3 ADD MSTORE POP JUMP JUMPDEST PUSH0 PUSH2 0x1967 PUSH1 0x15 DUP4 PUSH2 0xF60 JUMP JUMPDEST SWAP2 POP PUSH2 0x1972 DUP3 PUSH2 0x1933 JUMP JUMPDEST PUSH1 0x20 DUP3 ADD SWAP1 POP SWAP2 SWAP1 POP JUMP JUMPDEST PUSH0 PUSH1 0x20 DUP3 ADD SWAP1 POP DUP2 DUP2 SUB PUSH0 DUP4 ADD MSTORE PUSH2 0x1994 DUP2 PUSH2 0x195B JUMP JUMPDEST SWAP1 POP SWAP2 SWAP1 POP JUMP JUMPDEST PUSH2 0x19A4 DUP3 PUSH2 0xF56 JUMP JUMPDEST PUSH8 0xFFFFFFFFFFFFFFFF DUP2 GT ISZERO PUSH2 0x19BD JUMPI PUSH2 0x19BC PUSH2 0x1145 JUMP JUMPDEST JUMPDEST PUSH2 0x19C7 DUP3 SLOAD PUSH2 0x13A7 JUMP JUMPDEST PUSH2 0x19D2 DUP3 DUP3 DUP6 PUSH2 0x1798 JUMP JUMPDEST PUSH0 PUSH1 0x20 SWAP1 POP PUSH1 0x1F DUP4 GT PUSH1 0x1 DUP2 EQ PUSH2 0x1A03 JUMPI PUSH0 DUP5 ISZERO PUSH2 0x19F1 JUMPI DUP3 DUP8 ADD MLOAD SWAP1 POP JUMPDEST PUSH2 0x19FB DUP6 DUP3 PUSH2 0x1806 JUMP JUMPDEST DUP7 SSTORE POP PUSH2 0x1A62 JUMP JUMPDEST PUSH1 0x1F NOT DUP5 AND PUSH2 0x1A11 DUP7 PUSH2 0x1681 JUMP JUMPDEST PUSH0 JUMPDEST DUP3 DUP2 LT ISZERO PUSH2 0x1A38 JUMPI DUP5 DUP10 ADD MLOAD DUP3 SSTORE PUSH1 0x1 DUP3 ADD SWAP2 POP PUSH1 0x20 DUP6 ADD SWAP5 POP PUSH1 0x20 DUP2 ADD SWAP1 POP PUSH2 0x1A13 JUMP JUMPDEST DUP7 DUP4 LT ISZERO PUSH2 0x1A55 JUMPI DUP5 DUP10 ADD MLOAD PUSH2 0x1A51 PUSH1 0x1F DUP10 AND DUP3 PUSH2 0x17EA JUMP JUMPDEST DUP4 SSTORE POP JUMPDEST PUSH1 0x1 PUSH1 0x2 DUP9 MUL ADD DUP9 SSTORE POP POP POP JUMPDEST POP POP POP POP POP POP JUMP JUMPDEST PUSH32 0x5468652063616D706169676E206973206E6F74206F70656E0000000000000000 PUSH0 DUP3 ADD MSTORE POP JUMP JUMPDEST PUSH0 PUSH2 0x1A9E PUSH1 0x18 DUP4 PUSH2 0xF60 JUMP JUMPDEST SWAP2 POP PUSH2 0x1AA9 DUP3 PUSH2 0x1A6A JUMP JUMPDEST PUSH1 0x20 DUP3 ADD SWAP1 POP SWAP2 SWAP1 POP JUMP JUMPDEST PUSH0 PUSH1 0x20 DUP3 ADD SWAP1 POP DUP2 DUP2 SUB PUSH0 DUP4 ADD MSTORE PUSH2 0x1ACB DUP2 PUSH2 0x1A92 JUMP JUMPDEST SWAP1 POP SWAP2 SWAP1 POP JUMP JUMPDEST PUSH32 0x496E76616C696420746965722E00000000000000000000000000000000000000 PUSH0 DUP3 ADD MSTORE POP JUMP JUMPDEST PUSH0 PUSH2 0x1B06 PUSH1 0xD DUP4 PUSH2 0xF60 JUMP JUMPDEST SWAP2 POP PUSH2 0x1B11 DUP3 PUSH2 0x1AD2 JUMP JUMPDEST PUSH1 0x20 DUP3 ADD SWAP1 POP SWAP2 SWAP1 POP JUMP JUMPDEST PUSH0 PUSH1 0x20 DUP3 ADD SWAP1 POP DUP2 DUP2 SUB PUSH0 DUP4 ADD MSTORE PUSH2 0x1B33 DUP2 PUSH2 0x1AFA JUMP JUMPDEST SWAP1 POP SWAP2 SWAP1 POP JUMP JUMPDEST PUSH32 0x496E636F727265637420616D6F756E7400000000000000000000000000000000 PUSH0 DUP3 ADD MSTORE POP JUMP JUMPDEST PUSH0 PUSH2 0x1B6E PUSH1 0x10 DUP4 PUSH2 0xF60 JUMP JUMPDEST SWAP2 POP PUSH2 0x1B79 DUP3 PUSH2 0x1B3A JUMP JUMPDEST PUSH1 0x20 DUP3 ADD SWAP1 POP SWAP2 SWAP1 POP JUMP JUMPDEST PUSH0 PUSH1 0x20 DUP3 ADD SWAP1 POP DUP2 DUP2 SUB PUSH0 DUP4 ADD MSTORE PUSH2 0x1B9B DUP2 PUSH2 0x1B62 JUMP JUMPDEST SWAP1 POP SWAP2 SWAP1 POP JUMP JUMPDEST PUSH0 PUSH2 0x1BAC DUP3 PUSH2 0xEF8 JUMP JUMPDEST SWAP2 POP PUSH32 0xFFFFFFFFFFFFFFFFFFFFFFFFFFFFFFFFFFFFFFFFFFFFFFFFFFFFFFFFFFFFFFFF DUP3 SUB PUSH2 0x1BDE JUMPI PUSH2 0x1BDD PUSH2 0x15DF JUMP JUMPDEST JUMPDEST PUSH1 0x1 DUP3 ADD SWAP1 POP SWAP2 SWAP1 POP JUMP JUMPDEST PUSH0 PUSH2 0x1BF3 DUP3 PUSH2 0xEF8 JUMP JUMPDEST SWAP2 POP PUSH2 0x1BFE DUP4 PUSH2 0xEF8 JUMP JUMPDEST SWAP3 POP DUP3 DUP3 ADD SWAP1 POP DUP1 DUP3 GT ISZERO PUSH2 0x1C16 JUMPI PUSH2 0x1C15 PUSH2 0x15DF JUMP JUMPDEST JUMPDEST SWAP3 SWAP2 POP POP JUMP INVALID LOG2 PUSH5 0x6970667358 0x22 SLT KECCAK256 TLOAD PREVRANDAO BYTE MCOPY 0xFC EXTCODECOPY 0xBE PUSH29 0x6868BD066A429F54472336ADA38C3C5146DC16B94F83904664736F6C63 NUMBER STOP ADDMOD 0x1E STOP CALLER "
				},
				"gasEstimates": {
					"creation": {
						"codeDepositCost": "1450000",
						"executionCost": "infinite",
						"totalCost": "infinite"
					},
					"external": {
						"addTier(string,uint256)": "infinite",
						"backers(address)": "2859",
						"deadline()": "2493",
						"description()": "infinite",
						"fund(uint256)": "infinite",
						"getContractBalance()": "423",
						"goal()": "2470",
						"hasFundedTier(address,uint256)": "3189",
						"name()": "infinite",
						"owner()": "2597",
						"refund()": "infinite",
						"removeTier(uint256)": "infinite",
						"state()": "2671",
						"tiers(uint256)": "infinite",
						"withdraw()": "infinite"
					},
					"internal": {
						"checkAndUpdateCampaignState()": "30878"
					}
				},
				"methodIdentifiers": {
					"addTier(string,uint256)": "8ece7b91",
					"backers(address)": "b85dfb80",
					"deadline()": "29dcb0cf",
					"description()": "7284e416",
					"fund(uint256)": "ca1d209d",
					"getContractBalance()": "6f9fb98a",
					"goal()": "40193883",
					"hasFundedTier(address,uint256)": "7adba527",
					"name()": "06fdde03",
					"owner()": "8da5cb5b",
					"refund()": "590e1ae3",
					"removeTier(uint256)": "7497211b",
					"state()": "c19d93fb",
					"tiers(uint256)": "039af9eb",
					"withdraw()": "3ccfd60b"
				}
			},
			"storageLayout": {
				"storage": [
					{
						"astId": 3,
						"contract": "contracts/CrowdFunding.sol:CrowdFunding",
						"label": "name",
						"offset": 0,
						"slot": "0",
						"type": "t_string_storage"
					},
					{
						"astId": 5,
						"contract": "contracts/CrowdFunding.sol:CrowdFunding",
						"label": "description",
						"offset": 0,
						"slot": "1",
						"type": "t_string_storage"
					},
					{
						"astId": 7,
						"contract": "contracts/CrowdFunding.sol:CrowdFunding",
						"label": "goal",
						"offset": 0,
						"slot": "2",
						"type": "t_uint256"
					},
					{
						"astId": 9,
						"contract": "contracts/CrowdFunding.sol:CrowdFunding",
						"label": "deadline",
						"offset": 0,
						"slot": "3",
						"type": "t_uint256"
					},
					{
						"astId": 11,
						"contract": "contracts/CrowdFunding.sol:CrowdFunding",
						"label": "owner",
						"offset": 0,
						"slot": "4",
						"type": "t_address"
					},
					{
						"astId": 18,
						"contract": "contracts/CrowdFunding.sol:CrowdFunding",
						"label": "state",
						"offset": 20,
						"slot": "4",
						"type": "t_enum(CampaignState)15"
					},
					{
						"astId": 36,
						"contract": "contracts/CrowdFunding.sol:CrowdFunding",
						"label": "tiers",
						"offset": 0,
						"slot": "5",
						"type": "t_array(t_struct(Tier)25_storage)dyn_storage"
					},
					{
						"astId": 41,
						"contract": "contracts/CrowdFunding.sol:CrowdFunding",
						"label": "backers",
						"offset": 0,
						"slot": "6",
						"type": "t_mapping(t_address,t_struct(Backer)32_storage)"
					}
				],
				"types": {
					"t_address": {
						"encoding": "inplace",
						"label": "address",
						"numberOfBytes": "20"
					},
					"t_array(t_struct(Tier)25_storage)dyn_storage": {
						"base": "t_struct(Tier)25_storage",
						"encoding": "dynamic_array",
						"label": "struct CrowdFunding.Tier[]",
						"numberOfBytes": "32"
					},
					"t_bool": {
						"encoding": "inplace",
						"label": "bool",
						"numberOfBytes": "1"
					},
					"t_enum(CampaignState)15": {
						"encoding": "inplace",
						"label": "enum CrowdFunding.CampaignState",
						"numberOfBytes": "1"
					},
					"t_mapping(t_address,t_struct(Backer)32_storage)": {
						"encoding": "mapping",
						"key": "t_address",
						"label": "mapping(address => struct CrowdFunding.Backer)",
						"numberOfBytes": "32",
						"value": "t_struct(Backer)32_storage"
					},
					"t_mapping(t_uint256,t_bool)": {
						"encoding": "mapping",
						"key": "t_uint256",
						"label": "mapping(uint256 => bool)",
						"numberOfBytes": "32",
						"value": "t_bool"
					},
					"t_string_storage": {
						"encoding": "bytes",
						"label": "string",
						"numberOfBytes": "32"
					},
					"t_struct(Backer)32_storage": {
						"encoding": "inplace",
						"label": "struct CrowdFunding.Backer",
						"members": [
							{
								"astId": 27,
								"contract": "contracts/CrowdFunding.sol:CrowdFunding",
								"label": "totalContribution",
								"offset": 0,
								"slot": "0",
								"type": "t_uint256"
							},
							{
								"astId": 31,
								"contract": "contracts/CrowdFunding.sol:CrowdFunding",
								"label": "fundedTiers",
								"offset": 0,
								"slot": "1",
								"type": "t_mapping(t_uint256,t_bool)"
							}
						],
						"numberOfBytes": "64"
					},
					"t_struct(Tier)25_storage": {
						"encoding": "inplace",
						"label": "struct CrowdFunding.Tier",
						"members": [
							{
								"astId": 20,
								"contract": "contracts/CrowdFunding.sol:CrowdFunding",
								"label": "name",
								"offset": 0,
								"slot": "0",
								"type": "t_string_storage"
							},
							{
								"astId": 22,
								"contract": "contracts/CrowdFunding.sol:CrowdFunding",
								"label": "amount",
								"offset": 0,
								"slot": "1",
								"type": "t_uint256"
							},
							{
								"astId": 24,
								"contract": "contracts/CrowdFunding.sol:CrowdFunding",
								"label": "backers",
								"offset": 0,
								"slot": "2",
								"type": "t_uint256"
							}
						],
						"numberOfBytes": "96"
					},
					"t_uint256": {
						"encoding": "inplace",
						"label": "uint256",
						"numberOfBytes": "32"
					}
				}
			},
			"userdoc": {
				"kind": "user",
				"methods": {},
				"version": 1
			}
		}
	}
}